{
  "contractName": "Candidate",
  "abi": [
    {
      "inputs": [
        {
          "internalType": "address",
          "name": "_candidate",
          "type": "address"
        },
        {
          "internalType": "bool",
          "name": "_isLayer2Candidate",
          "type": "bool"
        },
        {
          "internalType": "string",
          "name": "_memo",
          "type": "string"
        },
        {
          "internalType": "address",
          "name": "_committee",
          "type": "address"
        },
        {
          "internalType": "address",
          "name": "_seigManager",
          "type": "address"
        }
      ],
      "stateMutability": "nonpayable",
      "type": "constructor"
    },
    {
      "anonymous": false,
      "inputs": [
        {
          "indexed": true,
          "internalType": "address",
          "name": "previousOwner",
          "type": "address"
        },
        {
          "indexed": true,
          "internalType": "address",
          "name": "newOwner",
          "type": "address"
        }
      ],
      "name": "OwnershipTransferred",
      "type": "event"
    },
    {
      "inputs": [],
      "name": "candidate",
      "outputs": [
        {
          "internalType": "address",
          "name": "",
          "type": "address"
        }
      ],
      "stateMutability": "view",
      "type": "function"
    },
    {
      "inputs": [],
      "name": "committee",
      "outputs": [
        {
          "internalType": "contract IDAOCommittee",
          "name": "",
          "type": "address"
        }
      ],
      "stateMutability": "view",
      "type": "function"
    },
    {
      "inputs": [],
      "name": "memo",
      "outputs": [
        {
          "internalType": "string",
          "name": "",
          "type": "string"
        }
      ],
      "stateMutability": "view",
      "type": "function"
    },
    {
      "inputs": [],
      "name": "owner",
      "outputs": [
        {
          "internalType": "address",
          "name": "",
          "type": "address"
        }
      ],
      "stateMutability": "view",
      "type": "function"
    },
    {
      "inputs": [],
      "name": "renounceOwnership",
      "outputs": [],
      "stateMutability": "nonpayable",
      "type": "function"
    },
    {
      "inputs": [],
      "name": "seigManager",
      "outputs": [
        {
          "internalType": "contract ISeigManager",
          "name": "",
          "type": "address"
        }
      ],
      "stateMutability": "view",
      "type": "function"
    },
    {
      "inputs": [
        {
          "internalType": "bytes4",
          "name": "interfaceId",
          "type": "bytes4"
        }
      ],
      "name": "supportsInterface",
      "outputs": [
        {
          "internalType": "bool",
          "name": "",
          "type": "bool"
        }
      ],
      "stateMutability": "view",
      "type": "function"
    },
    {
      "inputs": [
        {
          "internalType": "address",
          "name": "newOwner",
          "type": "address"
        }
      ],
      "name": "transferOwnership",
      "outputs": [],
      "stateMutability": "nonpayable",
      "type": "function"
    },
    {
      "inputs": [
        {
          "internalType": "address",
          "name": "_seigManager",
          "type": "address"
        }
      ],
      "name": "setSeigManager",
      "outputs": [],
      "stateMutability": "nonpayable",
      "type": "function"
    },
    {
      "inputs": [
        {
          "internalType": "address",
          "name": "_committee",
          "type": "address"
        }
      ],
      "name": "setCommittee",
      "outputs": [],
      "stateMutability": "nonpayable",
      "type": "function"
    },
    {
      "inputs": [],
      "name": "updateSeigniorage",
      "outputs": [
        {
          "internalType": "bool",
          "name": "",
          "type": "bool"
        }
      ],
      "stateMutability": "nonpayable",
      "type": "function"
    },
    {
      "inputs": [
        {
          "internalType": "uint256",
          "name": "_memberIndex",
          "type": "uint256"
        }
      ],
      "name": "changeMember",
      "outputs": [
        {
          "internalType": "bool",
          "name": "",
          "type": "bool"
        }
      ],
      "stateMutability": "nonpayable",
      "type": "function"
    },
    {
      "inputs": [],
      "name": "retireMember",
      "outputs": [
        {
          "internalType": "bool",
          "name": "",
          "type": "bool"
        }
      ],
      "stateMutability": "nonpayable",
      "type": "function"
    },
    {
      "inputs": [
        {
          "internalType": "uint256",
          "name": "_agendaID",
          "type": "uint256"
        },
        {
          "internalType": "uint256",
          "name": "_vote",
          "type": "uint256"
        },
        {
          "internalType": "string",
          "name": "_comment",
          "type": "string"
        }
      ],
      "name": "castVote",
      "outputs": [],
      "stateMutability": "nonpayable",
      "type": "function"
    },
    {
      "inputs": [],
      "name": "isCandidateContract",
      "outputs": [
        {
          "internalType": "bool",
          "name": "",
          "type": "bool"
        }
      ],
      "stateMutability": "view",
      "type": "function"
    },
    {
      "inputs": [],
      "name": "operator",
      "outputs": [
        {
          "internalType": "address",
          "name": "",
          "type": "address"
        }
      ],
      "stateMutability": "view",
      "type": "function"
    },
    {
      "inputs": [],
      "name": "isLayer2",
      "outputs": [
        {
          "internalType": "bool",
          "name": "",
          "type": "bool"
        }
      ],
      "stateMutability": "view",
      "type": "function"
    },
    {
      "inputs": [],
      "name": "currentFork",
      "outputs": [
        {
          "internalType": "uint256",
          "name": "",
          "type": "uint256"
        }
      ],
      "stateMutability": "view",
      "type": "function"
    },
    {
      "inputs": [
        {
          "internalType": "uint256",
          "name": "forkNumber",
          "type": "uint256"
        }
      ],
      "name": "lastEpoch",
      "outputs": [
        {
          "internalType": "uint256",
          "name": "",
          "type": "uint256"
        }
      ],
      "stateMutability": "view",
      "type": "function"
    },
    {
      "inputs": [],
      "name": "totalStaked",
      "outputs": [
        {
          "internalType": "uint256",
          "name": "totalsupply",
          "type": "uint256"
        }
      ],
      "stateMutability": "view",
      "type": "function"
    },
    {
      "inputs": [
        {
          "internalType": "address",
          "name": "_account",
          "type": "address"
        }
      ],
      "name": "stakedOf",
      "outputs": [
        {
          "internalType": "uint256",
          "name": "amount",
          "type": "uint256"
        }
      ],
      "stateMutability": "view",
      "type": "function"
    }
  ],
  "bytecode": "0x60806040523480156200001157600080fd5b506040516200150038038062001500833981810160405260a08110156200003757600080fd5b815160208301516040808501805191519395929483019291846401000000008211156200006357600080fd5b9083019060208201858111156200007957600080fd5b82516401000000008111828201881017156200009457600080fd5b82525081516020918201929091019080838360005b83811015620000c3578181015183820152602001620000a9565b50505050905090810190601f168015620000f15780820380516001836020036101000a031916815260200191505b50604090815260208201519101519092509050600062000110620002bc565b600080546001600160a01b0319166001600160a01b0383169081178255604051929350917f8be0079c531659141344cd1fd0a4f28419497f9722a3daafe3b4186f6b6457e0908290a3506200016c6301ffc9a760e01b620002c0565b60028054610100600160a81b0319166101006001600160a01b038816021760ff1916851515179081905560ff16156200025957600260019054906101000a90046001600160a01b03166001600160a01b031663882eed2c6040518163ffffffff1660e01b815260040160206040518083038186803b158015620001ee57600080fd5b505afa15801562000203573d6000803e3d6000fd5b505050506040513d60208110156200021a57600080fd5b5051620002595760405162461bcd60e51b8152600401808060200182810382526022815260200180620014de6022913960400191505060405180910390fd5b600480546001600160a01b038085166001600160a01b031992831617909255600580549284169290911691909117905582516200029e90600390602086019062000348565b50620002b1631dffc87160e21b620002c0565b5050505050620003f4565b3390565b6001600160e01b0319808216141562000320576040805162461bcd60e51b815260206004820152601c60248201527f4552433136353a20696e76616c696420696e7465726661636520696400000000604482015290519081900360640190fd5b6001600160e01b0319166000908152600160208190526040909120805460ff19169091179055565b828054600181600116156101000203166002900490600052602060002090601f016020900481019282620003805760008555620003cb565b82601f106200039b57805160ff1916838001178555620003cb565b82800160010185558215620003cb579182015b82811115620003cb578251825591602001919060010190620003ae565b50620003d9929150620003dd565b5090565b5b80821115620003d95760008155600101620003de565b6110da80620004046000396000f3fe608060405234801561001057600080fd5b50600436106101375760003560e01c8063764a7856116100b85780638da5cb5b1161007c5780638da5cb5b14610340578063af500ba314610348578063bddae40e1461036e578063c4ef9c0014610394578063d864e7401461039c578063f2fde38b146103a457610137565b8063764a7856146103025780637657f20a1461030a57806377ff21c414610330578063817b1cd214610338578063882eed2c1461033057610137565b8063570ca735116100ff578063570ca7351461024957806358c3b8701461026d5780636c8381f8146102ea5780636fb7f558146102f2578063715018a6146102fa57610137565b806301ffc9a71461013c57806311e4c9141461017757806311f19e04146101a6578063183d2d1c146101c357806324f99b1e146101cb575b600080fd5b6101636004803603602081101561015257600080fd5b50356001600160e01b0319166103ca565b604080519115158252519081900360200190f35b6101946004803603602081101561018d57600080fd5b50356103e9565b60408051918252519081900360200190f35b610163600480360360208110156101bc57600080fd5b50356103ef565b61019461059d565b610247600480360360608110156101e157600080fd5b81359160208101359181019060608101604082013564010000000081111561020857600080fd5b82018360208201111561021a57600080fd5b8035906020019184600183028401116401000000008311171561023c57600080fd5b5090925090506105a2565b005b610251610777565b604080516001600160a01b039092168252519081900360200190f35b61027561078b565b6040805160208082528351818301528351919283929083019185019080838360005b838110156102af578181015183820152602001610297565b50505050905090810190601f1680156102dc5780820380516001836020036101000a031916815260200191505b509250505060405180910390f35b610251610819565b61025161082d565b61024761083c565b6101636108de565b6102476004803603602081101561032057600080fd5b50356001600160a01b0316610a01565b61016361059d565b610194610a7b565b610251610b4e565b6101946004803603602081101561035e57600080fd5b50356001600160a01b0316610b5d565b6102476004803603602081101561038457600080fd5b50356001600160a01b0316610c45565b610163610cbf565b610251610e32565b610247600480360360208110156103ba57600080fd5b50356001600160a01b0316610e41565b6001600160e01b03191660009081526001602052604090205460ff1690565b50600190565b60025460009060ff16156104d1576000600260019054906101000a90046001600160a01b03169050336001600160a01b0316816001600160a01b031663570ca7356040518163ffffffff1660e01b815260040160206040518083038186803b15801561045a57600080fd5b505afa15801561046e573d6000803e3d6000fd5b505050506040513d602081101561048457600080fd5b50516001600160a01b0316146104cb5760405162461bcd60e51b815260040180806020018281038252603681526020018061106f6036913960400191505060405180910390fd5b5061051f565b60025461010090046001600160a01b0316331461051f5760405162461bcd60e51b8152600401808060200182810382526037815260200180610fdb6037913960400191505060405180910390fd5b600480546040805163047c678160e21b8152928301859052516001600160a01b03909116916311f19e049160248083019260209291908290030181600087803b15801561056b57600080fd5b505af115801561057f573d6000803e3d6000fd5b505050506040513d602081101561059557600080fd5b505192915050565b600190565b60025460ff1615610681576000600260019054906101000a90046001600160a01b03169050336001600160a01b0316816001600160a01b031663570ca7356040518163ffffffff1660e01b815260040160206040518083038186803b15801561060a57600080fd5b505afa15801561061e573d6000803e3d6000fd5b505050506040513d602081101561063457600080fd5b50516001600160a01b03161461067b5760405162461bcd60e51b815260040180806020018281038252603681526020018061106f6036913960400191505060405180910390fd5b506106cf565b60025461010090046001600160a01b031633146106cf5760405162461bcd60e51b8152600401808060200182810382526037815260200180610fdb6037913960400191505060405180910390fd5b6004805460405163127ccd8f60e11b815291820186815260248301869052606060448401908152606484018590526001600160a01b03909216926324f99b1e92889288928892889291608401848480828437600081840152601f19601f82011690508083019250505095505050505050600060405180830381600087803b15801561075957600080fd5b505af115801561076d573d6000803e3d6000fd5b5050505050505050565b60025461010090046001600160a01b031690565b6003805460408051602060026001851615610100026000190190941693909304601f810184900484028201840190925281815292918301828280156108115780601f106107e657610100808354040283529160200191610811565b820191906000526020600020905b8154815290600101906020018083116107f457829003601f168201915b505050505081565b60025461010090046001600160a01b031681565b6005546001600160a01b031681565b610844610f39565b6000546001600160a01b03908116911614610894576040805162461bcd60e51b8152602060048201819052602482015260008051602061104f833981519152604482015290519081900360640190fd5b600080546040516001600160a01b03909116907f8be0079c531659141344cd1fd0a4f28419497f9722a3daafe3b4186f6b6457e0908390a3600080546001600160a01b0319169055565b6005546000906001600160a01b031661093e576040805162461bcd60e51b815260206004820152601e60248201527f43616e6469646174653a20536569674d616e61676572206973207a65726f0000604482015290519081900360640190fd5b60025460ff16156109805760405162461bcd60e51b815260040180806020018281038252603d815260200180611012603d913960400191505060405180910390fd5b600560009054906101000a90046001600160a01b03166001600160a01b031663764a78566040518163ffffffff1660e01b8152600401602060405180830381600087803b1580156109d057600080fd5b505af11580156109e4573d6000803e3d6000fd5b505050506040513d60208110156109fa57600080fd5b5051905090565b610a09610f39565b6000546001600160a01b03908116911614610a59576040805162461bcd60e51b8152602060048201819052602482015260008051602061104f833981519152604482015290519081900360640190fd5b600580546001600160a01b0319166001600160a01b0392909216919091179055565b600080610a86610f3d565b90506001600160a01b038116610ae3576040805162461bcd60e51b815260206004820152601a60248201527f43616e6469646174653a20636f696e616765206973207a65726f000000000000604482015290519081900360640190fd5b806001600160a01b03166318160ddd6040518163ffffffff1660e01b815260040160206040518083038186803b158015610b1c57600080fd5b505afa158015610b30573d6000803e3d6000fd5b505050506040513d6020811015610b4657600080fd5b505191505090565b6000546001600160a01b031690565b600080610b68610f3d565b90506001600160a01b038116610bc5576040805162461bcd60e51b815260206004820152601d60248201527f44414f436f6d6d69747465653a20636f696e616765206973207a65726f000000604482015290519081900360640190fd5b806001600160a01b03166370a08231846040518263ffffffff1660e01b815260040180826001600160a01b0316815260200191505060206040518083038186803b158015610c1257600080fd5b505afa158015610c26573d6000803e3d6000fd5b505050506040513d6020811015610c3c57600080fd5b50519392505050565b610c4d610f39565b6000546001600160a01b03908116911614610c9d576040805162461bcd60e51b8152602060048201819052602482015260008051602061104f833981519152604482015290519081900360640190fd5b600480546001600160a01b0319166001600160a01b0392909216919091179055565b60025460009060ff1615610da1576000600260019054906101000a90046001600160a01b03169050336001600160a01b0316816001600160a01b031663570ca7356040518163ffffffff1660e01b815260040160206040518083038186803b158015610d2a57600080fd5b505afa158015610d3e573d6000803e3d6000fd5b505050506040513d6020811015610d5457600080fd5b50516001600160a01b031614610d9b5760405162461bcd60e51b815260040180806020018281038252603681526020018061106f6036913960400191505060405180910390fd5b50610def565b60025461010090046001600160a01b03163314610def5760405162461bcd60e51b8152600401808060200182810382526037815260200180610fdb6037913960400191505060405180910390fd5b600480546040805162313be760ea1b815290516001600160a01b039092169263c4ef9c009282820192602092908290030181600087803b1580156109d057600080fd5b6004546001600160a01b031681565b610e49610f39565b6000546001600160a01b03908116911614610e99576040805162461bcd60e51b8152602060048201819052602482015260008051602061104f833981519152604482015290519081900360640190fd5b6001600160a01b038116610ede5760405162461bcd60e51b8152600401808060200182810382526026815260200180610fb56026913960400191505060405180910390fd5b600080546040516001600160a01b03808516939216917f8be0079c531659141344cd1fd0a4f28419497f9722a3daafe3b4186f6b6457e091a3600080546001600160a01b0319166001600160a01b0392909216919091179055565b3390565b600254600090819060ff1615610f64575060025461010090046001600160a01b0316610f67565b50305b60055460408051634c063c1960e01b81526001600160a01b03848116600483015291519190921691634c063c19916024808301926020929190829003018186803b158015610b1c57600080fdfe4f776e61626c653a206e6577206f776e657220697320746865207a65726f206164647265737343616e6469646174653a2073656e646572206973206e6f74207468652063616e646964617465206f66207468697320636f6e747261637443616e6469646174653a20796f752073686f756c642075706461746520736569676e696f726167652066726f6d206c617965723220636f6e74726163744f776e61626c653a2063616c6c6572206973206e6f7420746865206f776e657243616e6469646174653a2073656e646572206973206e6f7420746865206f70657261746f72206f66207468697320636f6e7472616374a2646970667358221220c50d3758682d68a104a0eb2b4d67a3a0f89c876e764024b43a35f930b98402dc64736f6c6343000706003343616e6469646174653a20696e76616c6964206c617965723220636f6e7472616374",
  "immutableReferences": {},
  "source": "// SPDX-License-Identifier: MIT\npragma solidity ^0.7.6;\n\nimport \"../../node_modules/@openzeppelin/contracts/access/Ownable.sol\";\n\nimport { IDAOCommittee } from \"../interfaces/IDAOCommittee.sol\";\nimport { IERC20 } from  \"../../node_modules/@openzeppelin/contracts/token/ERC20/IERC20.sol\";\nimport { SafeMath } from \"../../node_modules/@openzeppelin/contracts/math/SafeMath.sol\";\nimport { ISeigManager } from \"../interfaces/ISeigManager.sol\";\nimport { ICandidate } from \"../interfaces/ICandidate.sol\";\nimport { ILayer2 } from \"../interfaces/ILayer2.sol\";\nimport { ILayer2Registry } from \"../interfaces/ILayer2Registry.sol\";\nimport { IDAOCommittee } from \"../interfaces/IDAOCommittee.sol\";\nimport { ERC165 } from \"../../node_modules/@openzeppelin/contracts/introspection/ERC165.sol\";\n\n/// @title Managing a candidate\n/// @notice Either a user or layer2 contract can be a candidate\ncontract Candidate is Ownable, ERC165 {\n    using SafeMath for uint256;\n\n    bool isLayer2Candidate;\n    address public candidate;\n    string public memo;\n\n    IDAOCommittee public committee;\n    ISeigManager public seigManager;\n\n    modifier onlyCandidate() {\n        if (isLayer2Candidate) {\n            ILayer2 layer2 = ILayer2(candidate);\n            require(layer2.operator() == msg.sender, \"Candidate: sender is not the operator of this contract\");\n        } else {\n            require(candidate == msg.sender, \"Candidate: sender is not the candidate of this contract\");\n        }\n        _;\n    }\n    \n    constructor(\n        address _candidate,\n        bool _isLayer2Candidate,\n        string memory _memo,\n        address _committee,\n        address _seigManager\n    ) \n    {\n        candidate = _candidate;\n        isLayer2Candidate = _isLayer2Candidate;\n        if (isLayer2Candidate) {\n            require(\n                ILayer2(candidate).isLayer2(),\n                \"Candidate: invalid layer2 contract\"\n            );\n        }\n        committee = IDAOCommittee(_committee);\n        seigManager = ISeigManager(_seigManager);\n        memo = _memo;\n\n        _registerInterface(ICandidate(address(this)).isCandidateContract.selector);\n    }\n    \n    /// @notice Set SeigManager contract address\n    /// @param _seigManager New SeigManager contract address\n    function setSeigManager(address _seigManager) public onlyOwner {\n        seigManager = ISeigManager(_seigManager);\n    }\n\n    /// @notice Set DAOCommitteeProxy contract address\n    /// @param _committee New DAOCommitteeProxy contract address\n    function setCommittee(address _committee) public onlyOwner {\n        committee = IDAOCommittee(_committee);\n    }\n\n    /// @notice Call updateSeigniorage on SeigManager\n    /// @return Whether or not the execution succeeded\n    function updateSeigniorage() public returns (bool) {\n        require(address(seigManager) != address(0), \"Candidate: SeigManager is zero\");\n        require(\n            isLayer2Candidate == false,\n            \"Candidate: you should update seigniorage from layer2 contract\"\n        );\n\n        return ISeigManager(seigManager).updateSeigniorage();\n    }\n\n    /// @notice Try to be a member\n    /// @param _memberIndex The index of changing member slot\n    /// @return Whether or not the execution succeeded\n    function changeMember(uint256 _memberIndex)\n        public\n        onlyCandidate\n        returns (bool)\n    {\n        return committee.changeMember(_memberIndex);\n    }\n\n    /// @notice Retire a member\n    /// @return Whether or not the execution succeeded\n    function retireMember() public onlyCandidate returns (bool) {\n        return committee.retireMember();\n    }\n    \n    /// @notice Vote on an agenda\n    /// @param _agendaID The agenda ID\n    /// @param _vote voting type\n    /// @param _comment voting comment\n    function castVote(\n        uint256 _agendaID,\n        uint _vote,\n        string calldata _comment\n    )\n        public\n        onlyCandidate\n    {\n        committee.castVote(_agendaID, _vote, _comment);\n    }\n\n    /// @notice Checks whether this contract is a candidate contract\n    /// @return Whether or not this contract is a candidate contract\n    function isCandidateContract() public view returns (bool) {\n        return true;\n    }\n\n    function operator() public view returns (address) { return candidate; }\n    function isLayer2() public view returns (bool) { return true; }\n    function currentFork() public view returns (uint) { return 1; }\n    function lastEpoch(uint forkNumber) public view returns (uint) { return 1; }\n\n    /// @notice Retrieves the total staked balance on this candidate\n    /// @return totalsupply Total staked amount on this candidate\n    function totalStaked()\n        public\n        view\n        returns (uint256 totalsupply)\n    {\n        address coinage = _getCoinageToken();\n        require(coinage != address(0), \"Candidate: coinage is zero\");\n        return IERC20(coinage).totalSupply();\n    }\n\n    /// @notice Retrieves the staked balance of the account on this candidate\n    /// @param _account Address being retrieved\n    /// @return amount The staked balance of the account on this candidate\n    function stakedOf(\n        address _account\n    )\n        public\n        view\n        returns (uint256 amount)\n    {\n        address coinage = _getCoinageToken();\n        require(coinage != address(0), \"DAOCommittee: coinage is zero\");\n        return IERC20(coinage).balanceOf(_account);\n    }\n\n    function _getCoinageToken() internal view returns (address) {\n        address c;\n        if (isLayer2Candidate) {\n            c = candidate;\n        } else {\n            c = address(this);\n        }\n\n        return seigManager.coinages(c);\n    }\n}\n",
  "sourcePath": "/Users/sgnoo/Workspace/tokamak-dao-contracts/contracts/dao/Candidate.sol",
  "compiler": {
    "name": "solc",
    "version": "0.7.6+commit.7338295f.Emscripten.clang"
  },
  "schemaVersion": "3.3.1",
  "updatedAt": "2021-01-26T09:02:06.520Z",
  "devdoc": {
    "kind": "dev",
    "methods": {
      "castVote(uint256,uint256,string)": {
        "params": {
          "_agendaID": "The agenda ID",
          "_comment": "voting comment",
          "_vote": "voting type"
        }
      },
      "changeMember(uint256)": {
        "params": {
          "_memberIndex": "The index of changing member slot"
        },
        "returns": {
          "_0": "Whether or not the execution succeeded"
        }
      },
      "isCandidateContract()": {
        "returns": {
          "_0": "Whether or not this contract is a candidate contract"
        }
      },
      "owner()": {
        "details": "Returns the address of the current owner."
      },
      "renounceOwnership()": {
        "details": "Leaves the contract without owner. It will not be possible to call `onlyOwner` functions anymore. Can only be called by the current owner. NOTE: Renouncing ownership will leave the contract without an owner, thereby removing any functionality that is only available to the owner."
      },
      "retireMember()": {
        "returns": {
          "_0": "Whether or not the execution succeeded"
        }
      },
      "setCommittee(address)": {
        "params": {
          "_committee": "New DAOCommitteeProxy contract address"
        }
      },
      "setSeigManager(address)": {
        "params": {
          "_seigManager": "New SeigManager contract address"
        }
      },
      "stakedOf(address)": {
        "params": {
          "_account": "Address being retrieved"
        },
        "returns": {
          "amount": "The staked balance of the account on this candidate"
        }
      },
      "supportsInterface(bytes4)": {
        "details": "See {IERC165-supportsInterface}. Time complexity O(1), guaranteed to always use less than 30 000 gas."
      },
      "totalStaked()": {
        "returns": {
          "totalsupply": "Total staked amount on this candidate"
        }
      },
      "transferOwnership(address)": {
        "details": "Transfers ownership of the contract to a new account (`newOwner`). Can only be called by the current owner."
      },
      "updateSeigniorage()": {
        "returns": {
          "_0": "Whether or not the execution succeeded"
        }
      }
    },
    "title": "Managing a candidate",
    "version": 1
  },
  "userdoc": {
    "kind": "user",
    "methods": {
      "castVote(uint256,uint256,string)": {
        "notice": "Vote on an agenda"
      },
      "changeMember(uint256)": {
        "notice": "Try to be a member"
      },
      "isCandidateContract()": {
        "notice": "Checks whether this contract is a candidate contract"
      },
      "retireMember()": {
        "notice": "Retire a member"
      },
      "setCommittee(address)": {
        "notice": "Set DAOCommitteeProxy contract address"
      },
      "setSeigManager(address)": {
        "notice": "Set SeigManager contract address"
      },
      "stakedOf(address)": {
        "notice": "Retrieves the staked balance of the account on this candidate"
      },
      "totalStaked()": {
        "notice": "Retrieves the total staked balance on this candidate"
      },
      "updateSeigniorage()": {
        "notice": "Call updateSeigniorage on SeigManager"
      }
    },
    "notice": "Either a user or layer2 contract can be a candidate",
    "version": 1
  }
}