{
  "contractName": "DAOAgendaManager",
  "abi": [
    {
      "inputs": [
        {
          "internalType": "address",
          "name": "_ton",
          "type": "address"
        }
      ],
      "stateMutability": "nonpayable",
      "type": "constructor"
    },
    {
      "anonymous": false,
      "inputs": [
        {
          "indexed": true,
          "internalType": "uint256",
          "name": "agendaID",
          "type": "uint256"
        },
        {
          "indexed": false,
          "internalType": "uint256",
          "name": "result",
          "type": "uint256"
        }
      ],
      "name": "AgendaResultChanged",
      "type": "event"
    },
    {
      "anonymous": false,
      "inputs": [
        {
          "indexed": true,
          "internalType": "uint256",
          "name": "agendaID",
          "type": "uint256"
        },
        {
          "indexed": false,
          "internalType": "uint256",
          "name": "prevStatus",
          "type": "uint256"
        },
        {
          "indexed": false,
          "internalType": "uint256",
          "name": "newStatus",
          "type": "uint256"
        }
      ],
      "name": "AgendaStatusChanged",
      "type": "event"
    },
    {
      "anonymous": false,
      "inputs": [
        {
          "indexed": true,
          "internalType": "address",
          "name": "previousOwner",
          "type": "address"
        },
        {
          "indexed": true,
          "internalType": "address",
          "name": "newOwner",
          "type": "address"
        }
      ],
      "name": "OwnershipTransferred",
      "type": "event"
    },
    {
      "inputs": [],
      "name": "activityRewardManager",
      "outputs": [
        {
          "internalType": "address",
          "name": "",
          "type": "address"
        }
      ],
      "stateMutability": "view",
      "type": "function"
    },
    {
      "inputs": [
        {
          "internalType": "uint256",
          "name": "",
          "type": "uint256"
        }
      ],
      "name": "agendas",
      "outputs": [
        {
          "internalType": "uint256",
          "name": "createdTimestamp",
          "type": "uint256"
        },
        {
          "internalType": "uint256",
          "name": "noticeEndTimestamp",
          "type": "uint256"
        },
        {
          "internalType": "uint256",
          "name": "votingPeriodInSeconds",
          "type": "uint256"
        },
        {
          "internalType": "uint256",
          "name": "votingStartedTimestamp",
          "type": "uint256"
        },
        {
          "internalType": "uint256",
          "name": "votingEndTimestamp",
          "type": "uint256"
        },
        {
          "internalType": "uint256",
          "name": "executedTimestamp",
          "type": "uint256"
        },
        {
          "internalType": "uint256",
          "name": "countingYes",
          "type": "uint256"
        },
        {
          "internalType": "uint256",
          "name": "countingNo",
          "type": "uint256"
        },
        {
          "internalType": "uint256",
          "name": "countingAbstain",
          "type": "uint256"
        },
        {
          "internalType": "uint256",
          "name": "reward",
          "type": "uint256"
        },
        {
          "internalType": "enum LibAgenda.AgendaStatus",
          "name": "status",
          "type": "uint8"
        },
        {
          "internalType": "enum LibAgenda.AgendaResult",
          "name": "result",
          "type": "uint8"
        },
        {
          "internalType": "bool",
          "name": "executed",
          "type": "bool"
        }
      ],
      "stateMutability": "view",
      "type": "function"
    },
    {
      "inputs": [],
      "name": "committee",
      "outputs": [
        {
          "internalType": "contract IDAOCommittee",
          "name": "",
          "type": "address"
        }
      ],
      "stateMutability": "view",
      "type": "function"
    },
    {
      "inputs": [],
      "name": "createAgendaFees",
      "outputs": [
        {
          "internalType": "uint256",
          "name": "",
          "type": "uint256"
        }
      ],
      "stateMutability": "view",
      "type": "function"
    },
    {
      "inputs": [
        {
          "internalType": "uint256",
          "name": "",
          "type": "uint256"
        }
      ],
      "name": "executionInfos",
      "outputs": [
        {
          "internalType": "address",
          "name": "target",
          "type": "address"
        },
        {
          "internalType": "bytes",
          "name": "functionBytecode",
          "type": "bytes"
        }
      ],
      "stateMutability": "view",
      "type": "function"
    },
    {
      "inputs": [],
      "name": "minimunNoticePeriodSeconds",
      "outputs": [
        {
          "internalType": "uint256",
          "name": "",
          "type": "uint256"
        }
      ],
      "stateMutability": "view",
      "type": "function"
    },
    {
      "inputs": [],
      "name": "minimunVotingPeriodSeconds",
      "outputs": [
        {
          "internalType": "uint256",
          "name": "",
          "type": "uint256"
        }
      ],
      "stateMutability": "view",
      "type": "function"
    },
    {
      "inputs": [],
      "name": "owner",
      "outputs": [
        {
          "internalType": "address",
          "name": "",
          "type": "address"
        }
      ],
      "stateMutability": "view",
      "type": "function"
    },
    {
      "inputs": [],
      "name": "quorum",
      "outputs": [
        {
          "internalType": "uint256",
          "name": "numerator",
          "type": "uint256"
        },
        {
          "internalType": "uint256",
          "name": "denominator",
          "type": "uint256"
        }
      ],
      "stateMutability": "view",
      "type": "function"
    },
    {
      "inputs": [],
      "name": "renounceOwnership",
      "outputs": [],
      "stateMutability": "nonpayable",
      "type": "function"
    },
    {
      "inputs": [],
      "name": "ton",
      "outputs": [
        {
          "internalType": "address",
          "name": "",
          "type": "address"
        }
      ],
      "stateMutability": "view",
      "type": "function"
    },
    {
      "inputs": [
        {
          "internalType": "address",
          "name": "newOwner",
          "type": "address"
        }
      ],
      "name": "transferOwnership",
      "outputs": [],
      "stateMutability": "nonpayable",
      "type": "function"
    },
    {
      "inputs": [
        {
          "internalType": "uint256",
          "name": "",
          "type": "uint256"
        },
        {
          "internalType": "address",
          "name": "",
          "type": "address"
        }
      ],
      "name": "voterInfos",
      "outputs": [
        {
          "internalType": "bool",
          "name": "isVoter",
          "type": "bool"
        },
        {
          "internalType": "bool",
          "name": "hasVoted",
          "type": "bool"
        },
        {
          "internalType": "uint256",
          "name": "vote",
          "type": "uint256"
        }
      ],
      "stateMutability": "view",
      "type": "function"
    },
    {
      "inputs": [
        {
          "internalType": "uint256",
          "name": "_status",
          "type": "uint256"
        }
      ],
      "name": "getStatus",
      "outputs": [
        {
          "internalType": "enum LibAgenda.AgendaStatus",
          "name": "emnustatus",
          "type": "uint8"
        }
      ],
      "stateMutability": "pure",
      "type": "function"
    },
    {
      "inputs": [
        {
          "internalType": "address",
          "name": "_committee",
          "type": "address"
        }
      ],
      "name": "setCommittee",
      "outputs": [],
      "stateMutability": "nonpayable",
      "type": "function"
    },
    {
      "inputs": [
        {
          "internalType": "uint256",
          "name": "_agendaID",
          "type": "uint256"
        },
        {
          "internalType": "uint256",
          "name": "_status",
          "type": "uint256"
        }
      ],
      "name": "setStatus",
      "outputs": [],
      "stateMutability": "nonpayable",
      "type": "function"
    },
    {
      "inputs": [
        {
          "internalType": "uint256",
          "name": "_createAgendaFees",
          "type": "uint256"
        }
      ],
      "name": "setCreateAgendaFees",
      "outputs": [],
      "stateMutability": "nonpayable",
      "type": "function"
    },
    {
      "inputs": [
        {
          "internalType": "uint256",
          "name": "_minimunNoticePeriodSeconds",
          "type": "uint256"
        }
      ],
      "name": "setMinimunNoticePeriodSeconds",
      "outputs": [],
      "stateMutability": "nonpayable",
      "type": "function"
    },
    {
      "inputs": [
        {
          "internalType": "uint256",
          "name": "_minimunVotingPeriodSeconds",
          "type": "uint256"
        }
      ],
      "name": "setMinimunVotingPeriodSeconds",
      "outputs": [],
      "stateMutability": "nonpayable",
      "type": "function"
    },
    {
      "inputs": [
        {
          "internalType": "address",
          "name": "_man",
          "type": "address"
        }
      ],
      "name": "setActivityRewardManager",
      "outputs": [],
      "stateMutability": "nonpayable",
      "type": "function"
    },
    {
      "inputs": [
        {
          "internalType": "uint256",
          "name": "quorumNumerator",
          "type": "uint256"
        },
        {
          "internalType": "uint256",
          "name": "quorumDenominator",
          "type": "uint256"
        }
      ],
      "name": "setQuorum",
      "outputs": [],
      "stateMutability": "nonpayable",
      "type": "function"
    },
    {
      "inputs": [
        {
          "internalType": "uint256",
          "name": "_agendaID",
          "type": "uint256"
        },
        {
          "internalType": "address",
          "name": "_user",
          "type": "address"
        }
      ],
      "name": "hasVoted",
      "outputs": [
        {
          "internalType": "bool",
          "name": "",
          "type": "bool"
        }
      ],
      "stateMutability": "view",
      "type": "function"
    },
    {
      "inputs": [
        {
          "internalType": "uint256",
          "name": "_agendaID",
          "type": "uint256"
        }
      ],
      "name": "getAgendaNoticeEndTimeSeconds",
      "outputs": [
        {
          "internalType": "uint256",
          "name": "",
          "type": "uint256"
        }
      ],
      "stateMutability": "view",
      "type": "function"
    },
    {
      "inputs": [
        {
          "internalType": "uint256",
          "name": "_agendaID",
          "type": "uint256"
        }
      ],
      "name": "getAgendaVotingStartTimeSeconds",
      "outputs": [
        {
          "internalType": "uint256",
          "name": "",
          "type": "uint256"
        }
      ],
      "stateMutability": "view",
      "type": "function"
    },
    {
      "inputs": [
        {
          "internalType": "uint256",
          "name": "_agendaID",
          "type": "uint256"
        }
      ],
      "name": "getAgendaVotingEndTimeSeconds",
      "outputs": [
        {
          "internalType": "uint256",
          "name": "",
          "type": "uint256"
        }
      ],
      "stateMutability": "view",
      "type": "function"
    },
    {
      "inputs": [
        {
          "internalType": "uint256",
          "name": "_agendaID",
          "type": "uint256"
        }
      ],
      "name": "canExecuteAgenda",
      "outputs": [
        {
          "internalType": "bool",
          "name": "",
          "type": "bool"
        }
      ],
      "stateMutability": "view",
      "type": "function"
    },
    {
      "inputs": [
        {
          "internalType": "uint256",
          "name": "_agendaID",
          "type": "uint256"
        }
      ],
      "name": "getAgendaStatus",
      "outputs": [
        {
          "internalType": "uint256",
          "name": "status",
          "type": "uint256"
        }
      ],
      "stateMutability": "view",
      "type": "function"
    },
    {
      "inputs": [],
      "name": "totalAgendas",
      "outputs": [
        {
          "internalType": "uint256",
          "name": "",
          "type": "uint256"
        }
      ],
      "stateMutability": "view",
      "type": "function"
    },
    {
      "inputs": [
        {
          "internalType": "uint256",
          "name": "_agendaID",
          "type": "uint256"
        }
      ],
      "name": "getAgendaResult",
      "outputs": [
        {
          "internalType": "uint256",
          "name": "result",
          "type": "uint256"
        },
        {
          "internalType": "bool",
          "name": "executed",
          "type": "bool"
        }
      ],
      "stateMutability": "view",
      "type": "function"
    },
    {
      "inputs": [
        {
          "internalType": "address",
          "name": "_target",
          "type": "address"
        },
        {
          "internalType": "uint256",
          "name": "_noticePeriodSeconds",
          "type": "uint256"
        },
        {
          "internalType": "uint256",
          "name": "_votingPeriodSeconds",
          "type": "uint256"
        },
        {
          "internalType": "uint256",
          "name": "_reward",
          "type": "uint256"
        },
        {
          "internalType": "bytes",
          "name": "_functionBytecode",
          "type": "bytes"
        }
      ],
      "name": "newAgenda",
      "outputs": [
        {
          "internalType": "uint256",
          "name": "agendaID",
          "type": "uint256"
        }
      ],
      "stateMutability": "nonpayable",
      "type": "function"
    },
    {
      "inputs": [
        {
          "internalType": "uint256",
          "name": "_agendaID",
          "type": "uint256"
        }
      ],
      "name": "startVoting",
      "outputs": [],
      "stateMutability": "nonpayable",
      "type": "function"
    },
    {
      "inputs": [
        {
          "internalType": "uint256",
          "name": "_agendaID",
          "type": "uint256"
        },
        {
          "internalType": "address",
          "name": "_user",
          "type": "address"
        }
      ],
      "name": "isVoter",
      "outputs": [
        {
          "internalType": "bool",
          "name": "",
          "type": "bool"
        }
      ],
      "stateMutability": "view",
      "type": "function"
    },
    {
      "inputs": [
        {
          "internalType": "uint256",
          "name": "_agendaID",
          "type": "uint256"
        },
        {
          "internalType": "address",
          "name": "_voter",
          "type": "address"
        },
        {
          "internalType": "uint256",
          "name": "_vote",
          "type": "uint256"
        }
      ],
      "name": "castVote",
      "outputs": [
        {
          "internalType": "bool",
          "name": "",
          "type": "bool"
        }
      ],
      "stateMutability": "nonpayable",
      "type": "function"
    },
    {
      "inputs": [
        {
          "internalType": "uint256",
          "name": "_agendaID",
          "type": "uint256"
        }
      ],
      "name": "setExecutedAgenda",
      "outputs": [],
      "stateMutability": "nonpayable",
      "type": "function"
    },
    {
      "inputs": [
        {
          "internalType": "uint256",
          "name": "_agendaID",
          "type": "uint256"
        },
        {
          "internalType": "enum LibAgenda.AgendaResult",
          "name": "_result",
          "type": "uint8"
        }
      ],
      "name": "setResult",
      "outputs": [],
      "stateMutability": "nonpayable",
      "type": "function"
    },
    {
      "inputs": [
        {
          "internalType": "uint256",
          "name": "_agendaID",
          "type": "uint256"
        }
      ],
      "name": "getExecutionInfo",
      "outputs": [
        {
          "internalType": "address",
          "name": "target",
          "type": "address"
        },
        {
          "internalType": "bytes",
          "name": "functionBytecode",
          "type": "bytes"
        }
      ],
      "stateMutability": "view",
      "type": "function"
    },
    {
      "inputs": [
        {
          "internalType": "uint256",
          "name": "_agendaID",
          "type": "uint256"
        }
      ],
      "name": "getVotingCount",
      "outputs": [
        {
          "internalType": "uint256",
          "name": "countingYes",
          "type": "uint256"
        },
        {
          "internalType": "uint256",
          "name": "countingNo",
          "type": "uint256"
        },
        {
          "internalType": "uint256",
          "name": "countingAbstain",
          "type": "uint256"
        }
      ],
      "stateMutability": "view",
      "type": "function"
    },
    {
      "inputs": [
        {
          "internalType": "uint256",
          "name": "_agendaID",
          "type": "uint256"
        }
      ],
      "name": "getAgendaTimestamps",
      "outputs": [
        {
          "internalType": "uint256",
          "name": "createdTimestamp",
          "type": "uint256"
        },
        {
          "internalType": "uint256",
          "name": "noticeEndTimestamp",
          "type": "uint256"
        },
        {
          "internalType": "uint256",
          "name": "votingStartedTimestamp",
          "type": "uint256"
        },
        {
          "internalType": "uint256",
          "name": "votingEndTimestamp",
          "type": "uint256"
        },
        {
          "internalType": "uint256",
          "name": "executedTimestamp",
          "type": "uint256"
        }
      ],
      "stateMutability": "view",
      "type": "function"
    },
    {
      "inputs": [],
      "name": "numAgendas",
      "outputs": [
        {
          "internalType": "uint256",
          "name": "",
          "type": "uint256"
        }
      ],
      "stateMutability": "view",
      "type": "function"
    },
    {
      "inputs": [
        {
          "internalType": "uint256",
          "name": "_agendaID",
          "type": "uint256"
        }
      ],
      "name": "getVoters",
      "outputs": [
        {
          "internalType": "address[]",
          "name": "",
          "type": "address[]"
        }
      ],
      "stateMutability": "view",
      "type": "function"
    }
  ],
  "bytecode": "0x608060405234801561001057600080fd5b5060405162002870380380620028708339818101604052602081101561003557600080fd5b505160006100416100e5565b600080546001600160a01b0319166001600160a01b0383169081178255604051929350917f8be0079c531659141344cd1fd0a4f28419497f9722a3daafe3b4186f6b6457e0908290a3506213c6806005556202a300600655600060045560408051808201909152600180825260026020909201829052600a819055600b9190915580546001600160a01b0319166001600160a01b03929092169190911790556100e9565b3390565b61277780620000f96000396000f3fe608060405234801561001057600080fd5b50600436106102475760003560e01c80637a3d54681161013b578063b4f69b6a116100b8578063d1f0473f1161007c578063d1f0473f146108bd578063d864e740146108da578063de6bd386146108e2578063e3bc145f146104d5578063f2fde38b146108ff57610247565b8063b4f69b6a1461084d578063bddae40e1461086a578063cc48b94714610890578063d0e7907f14610898578063d10d2b50146108a057610247565b80638da5cb5b116100ff5780638da5cb5b146107945780638e3f5f831461079c5780638ea5938c146107e4578063aee4a42a146107ec578063b4e6393e1461082757610247565b80637a3d54681461068b5780637e77eb23146106ae57806382e40813146106e057806386b646f214610703578063879b00a01461077057610247565b80634a47f59b116101c9578063715018a61161018d578063715018a614610513578063728af9d11461051b57806373ba3745146105c057806377f28d5b146105dd578063783c8288146105fa57610247565b80634a47f59b1461042557806356150a36146104715780635c622a0e14610497578063699cc358146104d55780636bcaab5e146104dd57610247565b806337184a321161021057806337184a32146103015780633c4a819c146103205780633d2f5bda146103bf5780633da2371f146103dc57806343859632146103f957610247565b8062b74c451461024c5780631703a0181461028c5780632522a32f146102ad578063284d776e146102c7578063334bbf35146102e4575b600080fd5b6102786004803603604081101561026257600080fd5b50803590602001356001600160a01b0316610925565b604080519115158252519081900360200190f35b610294610998565b6040805192835260208301919091528051918290030190f35b6102b56109a1565b60408051918252519081900360200190f35b6102b5600480360360208110156102dd57600080fd5b50356109a7565b6102b5600480360360208110156102fa57600080fd5b5035610a21565b61031e6004803603602081101561031757600080fd5b5035610a8a565b005b61033d6004803603602081101561033657600080fd5b5035610bc3565b604051808e81526020018d81526020018c81526020018b81526020018a815260200189815260200188815260200187815260200186815260200185815260200184600781111561038957fe5b815260200183600381111561039a57fe5b815260200182151581526020019d505050505050505050505050505060405180910390f35b61031e600480360360208110156103d557600080fd5b5035610c42565b6102b5600480360360208110156103f257600080fd5b5035610ed3565b6102786004803603604081101561040f57600080fd5b50803590602001356001600160a01b0316610f3c565b6104516004803603604081101561043b57600080fd5b50803590602001356001600160a01b0316610fb0565b604080519315158452911515602084015282820152519081900360600190f35b61031e6004803603604081101561048757600080fd5b508035906020013560ff16610fe1565b6104b4600480360360208110156104ad57600080fd5b50356110c1565b604051808260078111156104c457fe5b815260200191505060405180910390f35b6102b5611131565b6104fa600480360360208110156104f357600080fd5b5035611137565b6040805192835290151560208301528051918290030190f35b61031e6111e1565b6105386004803603602081101561053157600080fd5b5035611283565b60405180836001600160a01b0316815260200180602001828103825283818151815260200191508051906020019080838360005b8381101561058457818101518382015260200161056c565b50505050905090810190601f1680156105b15780820380516001836020036101000a031916815260200191505b50935050505060405180910390f35b610538600480360360208110156105d657600080fd5b5035611337565b610278600480360360208110156105f357600080fd5b50356113f5565b6102b5600480360360a081101561061057600080fd5b6001600160a01b038235169160208101359160408201359160608101359181019060a08101608082013564010000000081111561064c57600080fd5b82018360208201111561065e57600080fd5b8035906020019184600183028401116401000000008311171561068057600080fd5b509092509050611468565b61031e600480360360408110156106a157600080fd5b50803590602001356117df565b610278600480360360608110156106c457600080fd5b508035906001600160a01b0360208201351690604001356118c1565b61031e600480360360408110156106f657600080fd5b5080359060200135611c5f565b6107206004803603602081101561071957600080fd5b5035611d9c565b60408051602080825283518183015283519192839290830191858101910280838360005b8381101561075c578181015183820152602001610744565b505050509050019250505060405180910390f35b610778611e1c565b604080516001600160a01b039092168252519081900360200190f35b610778611e2b565b6107b9600480360360208110156107b257600080fd5b5035611e3a565b6040805195865260208601949094528484019290925260608401526080830152519081900360a00190f35b6102b5611e89565b6108096004803603602081101561080257600080fd5b5035611e8f565b60408051938452602084019290925282820152519081900360600190f35b61031e6004803603602081101561083d57600080fd5b50356001600160a01b0316611ecf565b61031e6004803603602081101561086357600080fd5b5035611f8e565b61031e6004803603602081101561088057600080fd5b50356001600160a01b0316611feb565b6107786120aa565b6102b56120b9565b61031e600480360360208110156108b657600080fd5b50356120bf565b61031e600480360360208110156108d357600080fd5b503561211c565b610778612179565b6102b5600480360360208110156108f857600080fd5b5035612188565b61031e6004803603602081101561091557600080fd5b50356001600160a01b03166121f1565b60006001600160a01b03821661096c5760405162461bcd60e51b81526004018080602001828103825260268152602001806125086026913960400191505060405180910390fd5b5060009182526008602090815260408084206001600160a01b0393909316845291905290205460ff1690565b600a54600b5482565b60045481565b60075460009082106109ea5760405162461bcd60e51b81526004018080602001828103825260228152602001806126c86022913960400191505060405180910390fd5b600782815481106109f757fe5b60009182526020909120600a600d90920201015460ff166007811115610a1957fe5b90505b919050565b6007546000908210610a645760405162461bcd60e51b81526004018080602001828103825260278152602001806125a96027913960400191505060405180910390fd5b60078281548110610a7157fe5b90600052602060002090600d0201600401549050919050565b610a926122e9565b6000546001600160a01b03908116911614610ae2576040805162461bcd60e51b815260206004820181905260248201526000805160206126a8833981519152604482015290519081900360640190fd5b6007548110610b225760405162461bcd60e51b81526004018080602001828103825260278152602001806124b86027913960400191505060405180910390fd5b600060078281548110610b3157fe5b60009182526020909120600c600d90920201908101805460ff19166001179055426005820155600a81015490915082907f27e1508d1d92ba0e1e406fad0138e0f3dd44688f5018dbe7f5718da02931eb7c9060ff166007811115610b9157fe5b60408051918252600460208301528051918290030190a2600a810180546004919060ff19166001835b02179055505050565b60078181548110610bd357600080fd5b60009182526020909120600d9091020180546001820154600283015460038401546004850154600586015460068701546007880154600889015460098a0154600a8b0154600c909b0154999b509799969895979496939592949193909260ff808316926101009004811691168d565b600060078281548110610c5157fe5b60009182526020909120600d9091020190506001600a82015460ff166007811115610c7857fe5b14610cca576040805162461bcd60e51b815260206004820181905260248201527f44414f4167656e64614d616e616765723a20696e76616c696420737461747573604482015290519081900360640190fd5b4281600101541115610d0d5760405162461bcd60e51b815260040180806020018281038252602a8152602001806125ff602a913960400191505060405180910390fd5b42600382018190556002820154610d2491906122ed565b600482810191909155600a8201805460ff191660021790556003546040805162f8f26b60e21b815290516000936001600160a01b03909316926303e3c9ac92808201926020929091829003018186803b158015610d8057600080fd5b505afa158015610d94573d6000803e3d6000fd5b505050506040513d6020811015610daa57600080fd5b5051905060005b81811015610e925760035460408051632ed7846560e11b81526004810184905290516000926001600160a01b031691635daf08ca916024808301926020929190829003018186803b158015610e0557600080fd5b505afa158015610e19573d6000803e3d6000fd5b505050506040513d6020811015610e2f57600080fd5b5051600b85018054600180820183556000928352602080842090920180546001600160a01b0319166001600160a01b03909516948517905588835260088252604080842094845293909152919020805460ff191682179055919091019050610db1565b50604080516001815260026020820152815185927f27e1508d1d92ba0e1e406fad0138e0f3dd44688f5018dbe7f5718da02931eb7c928290030190a2505050565b6007546000908210610f165760405162461bcd60e51b81526004018080602001828103825260278152602001806125a96027913960400191505060405180910390fd5b60078281548110610f2357fe5b90600052602060002090600d0201600301549050919050565b6007546000908310610f7f5760405162461bcd60e51b81526004018080602001828103825260298152602001806124df6029913960400191505060405180910390fd5b5060009182526008602090815260408084206001600160a01b03939093168452919052902054610100900460ff1690565b60086020908152600092835260408084209091529082529020805460019091015460ff808316926101009004169083565b610fe96122e9565b6000546001600160a01b03908116911614611039576040805162461bcd60e51b815260206004820181905260248201526000805160206126a8833981519152604482015290519081900360640190fd5b60006007838154811061104857fe5b90600052602060002090600d020190508181600a0160016101000a81548160ff0219169083600381111561107857fe5b0217905550827ff874b3fe678e8c9f4bd9dd7051e2bd81708e378e98526f16586e7bf60b77effc8360038111156110ab57fe5b60408051918252519081900360200190a2505050565b600060018214156110d457506001610a1c565b60028214156110e557506002610a1c565b60048214156110f657506004610a1c565b600582141561110757506005610a1c565b600682141561111857506006610a1c565b600782141561112957506007610a1c565b506000610a1c565b60075490565b6007546000908190831061117c5760405162461bcd60e51b815260040180806020018281038252602a8152602001806126ea602a913960400191505060405180910390fd5b6007838154811061118957fe5b90600052602060002090600d0201600a0160019054906101000a900460ff1660038111156111b357fe5b600784815481106111c057fe5b60009182526020909120600c600d90920201015490925060ff169050915091565b6111e96122e9565b6000546001600160a01b03908116911614611239576040805162461bcd60e51b815260206004820181905260248201526000805160206126a8833981519152604482015290519081900360640190fd5b600080546040516001600160a01b03909116907f8be0079c531659141344cd1fd0a4f28419497f9722a3daafe3b4186f6b6457e0908390a3600080546001600160a01b0319169055565b6009602090815260009182526040918290208054600180830180548651600261010094831615949094026000190190911692909204601f81018690048602830186019096528582526001600160a01b0390921694929390929083018282801561132d5780601f106113025761010080835404028352916020019161132d565b820191906000526020600020905b81548152906001019060200180831161131057829003601f168201915b5050505050905082565b60008181526009602090815260408083208054600180830180548551600261010094831615949094026000190190911692909204601f810187900487028301870190955284825260609593946001600160a01b0390931693909283918301828280156113e45780601f106113b9576101008083540402835291602001916113e4565b820191906000526020600020905b8154815290600101906020018083116113c757829003601f168201915b505050505090509250925050915091565b6000806007838154811061140557fe5b60009182526020909120600d9091020190506003600a82015460ff16600781111561142c57fe5b14801561145057506001600a820154610100900460ff16600381111561144e57fe5b145b80156114615750600c81015460ff16155b9392505050565b60006114726122e9565b6000546001600160a01b039081169116146114c2576040805162461bcd60e51b815260206004820181905260248201526000805160206126a8833981519152604482015290519081900360640190fd5b6005548610156115035760405162461bcd60e51b815260040180806020018281038252602e815260200180612554602e913960400191505060405180910390fd5b5060075461150f612347565b60016101408201818152600061016084018190526101a0840181905242808552610e108b020160208501908152604085018a8152606086018381526080870184815260a0880185815261012089018d815260078054808b018255978190528a517fa66cc928b5edb82af9bd49922954155ab7b0942694bea4ce44661d9a8736c688600d90990298890190815596517fa66cc928b5edb82af9bd49922954155ab7b0942694bea4ce44661d9a8736c68989015594517fa66cc928b5edb82af9bd49922954155ab7b0942694bea4ce44661d9a8736c68a88015592517fa66cc928b5edb82af9bd49922954155ab7b0942694bea4ce44661d9a8736c68b87015590517fa66cc928b5edb82af9bd49922954155ab7b0942694bea4ce44661d9a8736c68c860155517fa66cc928b5edb82af9bd49922954155ab7b0942694bea4ce44661d9a8736c68d85015560c08701517fa66cc928b5edb82af9bd49922954155ab7b0942694bea4ce44661d9a8736c68e85015560e08701517fa66cc928b5edb82af9bd49922954155ab7b0942694bea4ce44661d9a8736c68f8501556101008701517fa66cc928b5edb82af9bd49922954155ab7b0942694bea4ce44661d9a8736c690850155517fa66cc928b5edb82af9bd49922954155ab7b0942694bea4ce44661d9a8736c69184015592517fa66cc928b5edb82af9bd49922954155ab7b0942694bea4ce44661d9a8736c692909201805486959294919260ff199190911691849081111561173a57fe5b0217905550610160820151600a8201805461ff00191661010083600381111561175f57fe5b0217905550610180820151805161178091600b8401916020909101906123c1565b506101a09190910151600c909101805460ff1916911515919091179055600082815260096020526040902080546001600160a01b0319166001600160a01b038a161781556117d2600182018686612426565b5050509695505050505050565b6117e76122e9565b6000546001600160a01b03908116911614611837576040805162461bcd60e51b815260206004820181905260248201526000805160206126a8833981519152604482015290519081900360640190fd5b6000821180156118475750600081115b801561185257508082105b6118a3576040805162461bcd60e51b815260206004820181905260248201527f44414f4167656e64614d616e616765723a20696e76616c69642071756f72756d604482015290519081900360640190fd5b60408051808201909152828152602001819052600a91909155600b55565b60006118cb6122e9565b6000546001600160a01b0390811691161461191b576040805162461bcd60e51b815260206004820181905260248201526000805160206126a8833981519152604482015290519081900360640190fd5b60038210611970576040805162461bcd60e51b815260206004820152601a60248201527f44414f436f6d6d69747465653a20696e76616c696420766f7465000000000000604482015290519081900360640190fd5b61197a8484610925565b6119cb576040805162461bcd60e51b815260206004820152601960248201527f44414f436f6d6d69747465653a206e6f74206120766f74657200000000000000604482015290519081900360640190fd5b6119d58484610f3c565b15611a27576040805162461bcd60e51b815260206004820152601b60248201527f44414f436f6d6d69747465653a20616c726561647920766f7465640000000000604482015290519081900360640190fd5b600060078581548110611a3657fe5b90600052602060002090600d0201905060078054905085108015611a6c57506002600a82015460ff166007811115611a6a57fe5b145b611aa75760405162461bcd60e51b81526004018080602001828103825260278152602001806125826027913960400191505060405180910390fd5b611ab18585610925565b611aec5760405162461bcd60e51b815260040180806020018281038252602e815260200180612714602e913960400191505060405180910390fd5b611af68585610f3c565b15611b325760405162461bcd60e51b81526004018080602001828103825260248152602001806126636024913960400191505060405180910390fd5b4260078681548110611b4057fe5b90600052602060002090600d02016003015411158015611b7e575060078581548110611b6857fe5b90600052602060002090600d0201600401544211155b611bb95760405162461bcd60e51b815260040180806020018281038252603a815260200180612629603a913960400191505060405180910390fd5b60008581526008602090815260408083206001600160a01b03881684529091528120805461ff0019166101001781556001810185905590841415611c11576008820154611c079060016122ed565b6008830155611c53565b6001841415611c34576006820154611c2a9060016122ed565b6006830155611c53565b6002841415611c53576007820154611c4d9060016122ed565b60078301555b50600195945050505050565b611c676122e9565b6000546001600160a01b03908116911614611cb7576040805162461bcd60e51b815260206004820181905260248201526000805160206126a8833981519152604482015290519081900360640190fd5b6007548210611cf75760405162461bcd60e51b81526004018080602001828103825260298152602001806124df6029913960400191505060405180910390fd5b817f27e1508d1d92ba0e1e406fad0138e0f3dd44688f5018dbe7f5718da02931eb7c60078481548110611d2657fe5b60009182526020909120600a600d90920201015460ff166007811115611d4857fe5b60408051918252602082018590528051918290030190a2611d68816110c1565b60078381548110611d7557fe5b60009182526020909120600a600d9092020101805460ff19166001836007811115610bba57fe5b606060078281548110611dab57fe5b90600052602060002090600d0201600b01805480602002602001604051908101604052809291908181526020018280548015611e1057602002820191906000526020600020905b81546001600160a01b03168152600190910190602001808311611df2575b50505050509050919050565b6002546001600160a01b031681565b6000546001600160a01b031690565b60008060008060008060078781548110611e5057fe5b60009182526020909120600d909102018054600182015460038301546004840154600590940154929b919a509850919650945092505050565b60055481565b60008060008060078581548110611ea257fe5b90600052602060002090600d02019050806006015481600701548260080154935093509350509193909250565b611ed76122e9565b6000546001600160a01b03908116911614611f27576040805162461bcd60e51b815260206004820181905260248201526000805160206126a8833981519152604482015290519081900360640190fd5b6001600160a01b038116611f6c5760405162461bcd60e51b815260040180806020018281038252602f8152602001806125d0602f913960400191505060405180910390fd5b600280546001600160a01b0319166001600160a01b0392909216919091179055565b611f966122e9565b6000546001600160a01b03908116911614611fe6576040805162461bcd60e51b815260206004820181905260248201526000805160206126a8833981519152604482015290519081900360640190fd5b600455565b611ff36122e9565b6000546001600160a01b03908116911614612043576040805162461bcd60e51b815260206004820181905260248201526000805160206126a8833981519152604482015290519081900360640190fd5b6001600160a01b0381166120885760405162461bcd60e51b81526004018080602001828103825260218152602001806126876021913960400191505060405180910390fd5b600380546001600160a01b0319166001600160a01b0392909216919091179055565b6001546001600160a01b031681565b60065481565b6120c76122e9565b6000546001600160a01b03908116911614612117576040805162461bcd60e51b815260206004820181905260248201526000805160206126a8833981519152604482015290519081900360640190fd5b600555565b6121246122e9565b6000546001600160a01b03908116911614612174576040805162461bcd60e51b815260206004820181905260248201526000805160206126a8833981519152604482015290519081900360640190fd5b600655565b6003546001600160a01b031681565b60075460009082106121cb5760405162461bcd60e51b81526004018080602001828103825260278152602001806125a96027913960400191505060405180910390fd5b600782815481106121d857fe5b90600052602060002090600d0201600101549050919050565b6121f96122e9565b6000546001600160a01b03908116911614612249576040805162461bcd60e51b815260206004820181905260248201526000805160206126a8833981519152604482015290519081900360640190fd5b6001600160a01b03811661228e5760405162461bcd60e51b815260040180806020018281038252602681526020018061252e6026913960400191505060405180910390fd5b600080546040516001600160a01b03808516939216917f8be0079c531659141344cd1fd0a4f28419497f9722a3daafe3b4186f6b6457e091a3600080546001600160a01b0319166001600160a01b0392909216919091179055565b3390565b600082820183811015611461576040805162461bcd60e51b815260206004820152601b60248201527f536166654d6174683a206164646974696f6e206f766572666c6f770000000000604482015290519081900360640190fd5b604051806101c0016040528060008152602001600081526020016000815260200160008152602001600081526020016000815260200160008152602001600081526020016000815260200160008152602001600060078111156123a657fe5b81526020016000815260606020820152600060409091015290565b828054828255906000526020600020908101928215612416579160200282015b8281111561241657825182546001600160a01b0319166001600160a01b039091161782556020909201916001909101906123e1565b506124229291506124a2565b5090565b828054600181600116156101000203166002900490600052602060002090601f01602090048101928261245c5760008555612416565b82601f106124755782800160ff19823516178555612416565b82800160010185558215612416579182015b82811115612416578235825591602001919060010190612487565b5b8082111561242257600081556001016124a356fe44414f4167656e64614d616e616765723a205f6167656e6461494420697320696e76616c69642e44414f4167656e64614d616e616765723a204e6f7420612076616c69642050726f706f73616c20496444414f4167656e64614d616e616765723a20757365722061646472657373206973207a65726f4f776e61626c653a206e6577206f776e657220697320746865207a65726f206164647265737344414f4167656e64614d616e616765723a206d696e696d756e4e6f74696365506572696f642069732073686f727444414f4167656e64614d616e616765723a20737461747573206973206e6f7420766f74696e672e44414f4167656e64614d616e616765723a204e6f7420612076616c6964204167656e646120496444414f4167656e64614d616e616765723a2041637469766974795265776172644d616e61676572206973207a65726f44414f4167656e64614d616e616765723a2063616e206e6f7420737461727420766f74696e672079657444414f4167656e64614d616e616765723a20666f722074686973206167656e64612c2074686520766f74696e672074696d652065787069726564766f74657220616c726561647920766f746564206f6e20746869732070726f706f73616c44414f4167656e64614d616e616765723a2061646472657373206973207a65726f4f776e61626c653a2063616c6c6572206973206e6f7420746865206f776e657244414f4167656e64614d616e616765723a20696e76616c6964206167656e6420696444414f4167656e64614d616e616765723a204e6f7420612076616c6964205f6167656e64614944204964796f7520617265206e6f74206120636f6d6d6974746565206d656d626572206f6e2074686973206167656e64612ea264697066735822122003a25f7ef524d6cac9dfce2023ce38b784defeccddef96ab044d124c40e41a9664736f6c63430007060033",
  "immutableReferences": {},
  "source": "// SPDX-License-Identifier: MIT\npragma solidity ^0.7.6;\n\nimport { SafeMath } from \"../../node_modules/@openzeppelin/contracts/math/SafeMath.sol\";\nimport { IERC20 } from  \"../../node_modules/@openzeppelin/contracts/token/ERC20/IERC20.sol\";\nimport { IDAOCommittee } from \"../interfaces/IDAOCommittee.sol\";\nimport { LibAgenda } from \"../lib/Agenda.sol\";\nimport \"../../node_modules/@openzeppelin/contracts/access/Ownable.sol\";\n\ncontract DAOAgendaManager is Ownable {\n    using SafeMath for uint256;\n    using LibAgenda for *;\n\n    enum VoteChoice { ABSTAIN, YES, NO, MAX }\n\n    struct Ratio {\n        uint256 numerator;\n        uint256 denominator;\n    }\n    \n    address public ton;\n    address public activityRewardManager;\n    IDAOCommittee public committee;\n    \n    //uint256 public numAgendas;\n    //uint256 public numExecAgendas;\n    \n    uint256 public createAgendaFees; // \n    \n    uint256 public minimunNoticePeriodSeconds;\n    uint256 public minimunVotingPeriodSeconds;\n    \n    LibAgenda.Agenda[] public agendas;\n    mapping(uint256 => mapping(address => LibAgenda.Voter)) public voterInfos;\n    mapping(uint256 => LibAgenda.AgendaExecutionInfo) public executionInfos;\n    \n    Ratio public quorum;\n    \n    event AgendaStatusChanged(\n        uint256 indexed agendaID,\n        uint256 prevStatus,\n        uint256 newStatus\n    );\n\n    event AgendaResultChanged(\n        uint256 indexed agendaID,\n        uint256 result\n    );\n\n    modifier validAgenda(uint256 _agendaID) {\n        require(_agendaID < agendas.length, \"DAOAgendaManager: invalid agenda id\");\n        _;\n    }\n    \n    constructor(address _ton/*, address _activityRewardManager*/) {\n        minimunNoticePeriodSeconds = 60 * 60 * 24 * 15; //  15 days , on seconds\n        minimunVotingPeriodSeconds = 60 * 60 * 24 * 2; //  2 days , on seconds\n        \n        createAgendaFees = 0;\n        quorum = Ratio(1, 2);\n        ton = _ton;\n        //numAgendas = 0;\n    }\n\n    function getStatus(uint _status) public pure returns (LibAgenda.AgendaStatus emnustatus) {\n        if (_status == uint(LibAgenda.AgendaStatus.NOTICE))\n            return LibAgenda.AgendaStatus.NOTICE;\n        else if (_status == uint(LibAgenda.AgendaStatus.VOTING))\n            return LibAgenda.AgendaStatus.VOTING;\n        else if (_status == uint(LibAgenda.AgendaStatus.EXECUTED))\n            return LibAgenda.AgendaStatus.EXECUTED;\n        else if (_status == uint(LibAgenda.AgendaStatus.ENDED))\n            return LibAgenda.AgendaStatus.ENDED;\n        else if (_status == uint(LibAgenda.AgendaStatus.PENDING))\n            return LibAgenda.AgendaStatus.PENDING;\n        else if (_status == uint(LibAgenda.AgendaStatus.RISK))\n            return LibAgenda.AgendaStatus.RISK;\n        else\n            return LibAgenda.AgendaStatus.NONE;\n    }\n\n    function setCommittee(address _committee) public onlyOwner {\n        require(_committee != address(0), \"DAOAgendaManager: address is zero\");\n        committee = IDAOCommittee(_committee);\n    }\n\n    function setStatus(uint256 _agendaID, uint _status) public onlyOwner {\n        require(_agendaID < agendas.length, \"DAOAgendaManager: Not a valid Proposal Id\");\n\n        emit AgendaStatusChanged(_agendaID, uint(agendas[_agendaID].status), _status);\n        agendas[_agendaID].status = getStatus(_status);\n    }\n\n    function setCreateAgendaFees(uint256 _createAgendaFees) public onlyOwner {\n        createAgendaFees = _createAgendaFees;\n    }\n\n    function setMinimunNoticePeriodSeconds(uint256 _minimunNoticePeriodSeconds) public onlyOwner {\n        minimunNoticePeriodSeconds = _minimunNoticePeriodSeconds;\n    }\n\n    function setMinimunVotingPeriodSeconds(uint256 _minimunVotingPeriodSeconds) public onlyOwner {\n        minimunVotingPeriodSeconds = _minimunVotingPeriodSeconds;\n    }\n      \n    function setActivityRewardManager(address _man) public onlyOwner {\n        require(_man != address(0), \"DAOAgendaManager: ActivityRewardManager is zero\");\n        activityRewardManager = _man;\n    }\n\n    function setQuorum(uint256 quorumNumerator, uint256 quorumDenominator) public onlyOwner {\n        require(quorumNumerator > 0 && quorumDenominator > 0 && quorumNumerator < quorumDenominator, \"DAOAgendaManager: invalid quorum\");\n        quorum = Ratio(quorumNumerator,quorumDenominator);\n    }\n    \n    function hasVoted(uint256 _agendaID, address _user) public view returns (bool) {\n        require(_agendaID < agendas.length, \"DAOAgendaManager: Not a valid Proposal Id\");\n        return voterInfos[_agendaID][_user].hasVoted;\n    }\n    \n    function getAgendaNoticeEndTimeSeconds(uint256 _agendaID) public view returns (uint) {\n        require(_agendaID < agendas.length, \"DAOAgendaManager: Not a valid Agenda Id\");\n        return agendas[_agendaID].noticeEndTimestamp;\n    }\n    \n    function getAgendaVotingStartTimeSeconds(uint256 _agendaID) public view returns (uint) {\n        require(_agendaID < agendas.length, \"DAOAgendaManager: Not a valid Agenda Id\");\n        return agendas[_agendaID].votingStartedTimestamp;\n    }\n\n    function getAgendaVotingEndTimeSeconds(uint256 _agendaID) public view returns (uint) {\n        require(_agendaID < agendas.length, \"DAOAgendaManager: Not a valid Agenda Id\");\n        return agendas[_agendaID].votingEndTimestamp;\n    }\n\n    function canExecuteAgenda(uint256 _agendaID) public view returns (bool) {\n        LibAgenda.Agenda storage agenda = agendas[_agendaID];\n\n        return agenda.status == LibAgenda.AgendaStatus.WAITING_EXEC &&\n            agenda.result == LibAgenda.AgendaResult.ACCEPT &&\n            agenda.executed == false;\n\n        /*require(agenda.status == uint(LibAgenda.AgendaStatus.WAITING_EXEC), \"DAOAgendaManager: agenda status must be WAITING_EXEC.\");\n        //require(agenda.votingEndTimestamp < block.timestamp, \"DAOAgendaManager: for this agenda, the voting time is not expired\");\n        require(agenda.result == LibAgenda.AgendaResult.ACCEPT, \"DAOAgendaManager: for this agenda, not accept\");\n        require(agenda.executed == false, \"DAOAgendaManager: already executed agenda\");*/\n    }\n    \n    /*function detailedAgenda(uint256 _agendaID)\n        public\n        view\n        returns (\n            address[2] memory creator,\n            uint[8] memory datas,\n            uint256[3] memory counting,\n            uint256 fees,\n            bool executed,\n            bytes memory functionBytecode,\n            address[] memory voters\n        )\n    {\n        require(_agendaID < agendas.length, \"DAOAgendaManager: Not a valid Agenda Id\");\n        LibAgenda.Agenda storage agenda = agendas[_agendaID];\n        uint[8] memory args1 = [\n            uint(agenda.status),\n            uint(agenda.result),\n            //uint(agenda.group),\n            agenda.createdTimestamp,\n            agenda.noticeEndTimestamp,\n            agenda.votingStartedTimestamp,\n            agenda.votingEndTimestamp,\n            agenda.executedTimestamp\n        ];\n        \n        return (\n            [agenda.creator, agenda.target],\n            args1,\n            agenda.counting,\n            agenda.fees,\n            agenda.executed,\n            agenda.functionBytecode,\n            agenda.voters\n        );\n    }*/\n\n    /*function detailedAgendaVoteInfo(uint256 _agendaID, address voter)\n        public\n        view\n        returns (\n            bool hasVoted,\n            uint256 vote,\n            string memory comment\n        )\n    {\n        require(_agendaID < agendas.length, \"DAOAgendaManager: Not a valid Agenda Id\");\n\n        if (voterInfos[_agendaID][voter].hasVoted) {\n            return (voterInfos[_agendaID][voter].hasVoted, voterInfos[_agendaID][voter].vote, voterInfos[_agendaID][voter].comment);\n        } else {\n            return (false, 0, '');\n        }\n    }*/\n    \n    function getAgendaStatus(uint256 _agendaID) public view returns (uint status) {\n        require(_agendaID < agendas.length, \"DAOAgendaManager: invalid agend id\");\n        return uint(agendas[_agendaID].status);\n    }\n\n    function totalAgendas() public view returns (uint256) {\n        return agendas.length;\n    }\n\n    function getAgendaResult(uint256 _agendaID) public view returns (uint result, bool executed) {\n        require(_agendaID < agendas.length, \"DAOAgendaManager: Not a valid _agendaID Id\");\n        return (uint(agendas[_agendaID].result), agendas[_agendaID].executed);\n    }\n   \n    function newAgenda(\n        address _target,\n        uint256 _noticePeriodSeconds,\n        uint256 _votingPeriodSeconds,\n        uint256 _reward,\n        bytes calldata _functionBytecode\n    )\n        onlyOwner\n        public\n        returns (uint256 agendaID)\n    {\n        require(_noticePeriodSeconds >= minimunNoticePeriodSeconds, \"DAOAgendaManager: minimunNoticePeriod is short\");\n        agendaID = agendas.length;\n         \n        LibAgenda.Agenda memory p;\n        p.status = LibAgenda.AgendaStatus.NOTICE;\n        p.result = LibAgenda.AgendaResult.PENDING;\n        p.executed = false;\n        p.createdTimestamp = block.timestamp;\n        p.noticeEndTimestamp = block.timestamp + 60 * 60 * _noticePeriodSeconds;\n        p.votingPeriodInSeconds = _votingPeriodSeconds;\n        p.votingStartedTimestamp = 0;\n        p.votingEndTimestamp = 0;\n        p.executedTimestamp = 0;\n        p.reward = _reward;\n        \n        agendas.push(p);\n\n        LibAgenda.AgendaExecutionInfo storage executionInfo = executionInfos[agendaID];\n        executionInfo.target = _target;\n        executionInfo.functionBytecode = _functionBytecode;\n\n        //numAgendas = agendas.length;\n        //agendaID = numAgendas.sub(1);\n    }\n\n    function startVoting(uint256 _agendaID) public {\n        LibAgenda.Agenda storage agenda = agendas[_agendaID];\n        require(\n            agenda.status == LibAgenda.AgendaStatus.NOTICE,\n            \"DAOAgendaManager: invalid status\"\n        );\n        require(\n            agenda.noticeEndTimestamp <= block.timestamp,\n            \"DAOAgendaManager: can not start voting yet\"\n        );\n\n        agenda.votingStartedTimestamp = block.timestamp;\n        agenda.votingEndTimestamp = block.timestamp.add(agenda.votingPeriodInSeconds);\n        agenda.status = LibAgenda.AgendaStatus.VOTING;\n\n        uint256 memberCount = committee.maxMember();\n        for (uint256 i = 0; i < memberCount; i++) {\n            address voter = committee.members(i);\n            agenda.voters.push(voter);\n            voterInfos[_agendaID][voter].isVoter = true;\n        }\n\n        emit AgendaStatusChanged(_agendaID, uint(LibAgenda.AgendaStatus.NOTICE), uint(LibAgenda.AgendaStatus.VOTING));\n    }\n    \n    function isVoter(uint256 _agendaID, address _user) public view returns (bool) {\n        require(_user != address(0), \"DAOAgendaManager: user address is zero\");\n        return voterInfos[_agendaID][_user].isVoter;\n    }\n    \n    function castVote(\n        uint256 _agendaID,\n        address _voter,\n        uint _vote\n    )\n        public\n        onlyOwner\n        returns (bool)\n    {\n        require(_vote < uint(VoteChoice.MAX), \"DAOCommittee: invalid vote\");\n        require(isVoter(_agendaID, _voter), \"DAOCommittee: not a voter\");\n        require(!hasVoted(_agendaID, _voter), \"DAOCommittee: already voted\");\n\n        LibAgenda.Agenda storage agenda = agendas[_agendaID];\n        require(\n            _agendaID < agendas.length && agenda.status == LibAgenda.AgendaStatus.VOTING,\n            \"DAOAgendaManager: status is not voting.\");\n        require(\n            isVoter(_agendaID, _voter),\n            \"you are not a committee member on this agenda.\"\n        );\n        require(\n            !hasVoted(_agendaID, _voter),\n            \"voter already voted on this proposal\"\n        );\n        require(\n            agendas[_agendaID].votingStartedTimestamp <= block.timestamp &&\n            block.timestamp <= agendas[_agendaID].votingEndTimestamp,\n            \"DAOAgendaManager: for this agenda, the voting time expired\"\n        );\n        \n        LibAgenda.Voter storage voter = voterInfos[_agendaID][_voter];\n        voter.hasVoted = true;\n        voter.vote = _vote;\n             \n        // counting 0:abstainVotes 1:yesVotes 2:noVotes\n        if (_vote == uint(VoteChoice.ABSTAIN))\n            agenda.countingAbstain = agenda.countingAbstain.add(1);\n        else if (_vote == uint(VoteChoice.YES))\n            agenda.countingYes = agenda.countingYes.add(1);\n        else if (_vote == uint(VoteChoice.NO))\n            agenda.countingNo = agenda.countingNo.add(1);\n        \n        return true;\n    }\n    \n    function setExecutedAgenda(uint256 _agendaID)\n        public\n        onlyOwner\n    {\n        require(_agendaID < agendas.length, \"DAOAgendaManager: _agendaID is invalid.\");\n\n        LibAgenda.Agenda storage agenda = agendas[_agendaID];\n        agenda.executed = true;\n        agenda.executedTimestamp = block.timestamp;\n\n        emit AgendaStatusChanged(_agendaID, uint(agenda.status), uint(LibAgenda.AgendaStatus.EXECUTED));\n\n        agenda.status = LibAgenda.AgendaStatus.EXECUTED;\n    }\n\n    /*function agendaStepNext(uint256 _agendaID) public onlyOwner {\n        LibAgenda.Agenda storage agenda = agendas[_agendaID];\n        uint256 prevStatus = agenda.status;\n        uint256 prevResult = agenda.result;\n\n        if (agenda.status == LibAgenda.AgendaStatus.NOTICE) {\n        } else if (agenda.status == LibAgenda.AgendaStatus.VOTING) {\n            // The agenda is on voting process\n            if (agenda.result == LibAgenda.AgendaResult.ACCEPT) {\n                // The agenda is accepted\n                agenda.status = LibAgenda.AgendaStatus.WAITING_EXEC;\n            } else if (\n                agenda.result == LibAgenda.AgendaResult.REJECT ||\n                agenda.result == LibAgenda.AgendaResult.DISMISS\n            ) {\n                // The agenda is rejected\n                agenda.status = LibAgenda.AgendaStatus.ENDED;\n            } else if (\n                agenda.result == LibAgenda.AgendaResult.PENDING &&\n                agenda.votingEndTimestamp < block.timestamp\n            ) {\n                // The agenda is dismissed\n                agenda.status = LibAgenda.AgendaStatus.ENDED;\n                agenda.result = LibAgenda.AgendaResult.DISMISS;\n            }\n        } else if (agenda.status == LibAgenda.AgendaStatus.WAITING_EXEC) {\n        } else if (agenda.status == LibAgenda.AgendaStatus.VOTING) {\n        } else if (agenda.status == LibAgenda.AgendaStatus.VOTING) {\n        } else if (agenda.status == LibAgenda.AgendaStatus.VOTING) {\n        }\n\n        emit AgendaStepNext(\n            _agendaID,\n            prevStatus,\n            prevResult,\n            agenda.status,\n            agenda.result\n        );\n    }*/\n\n    function setResult(uint256 _agendaID, LibAgenda.AgendaResult _result)\n        public\n        onlyOwner\n    {\n        LibAgenda.Agenda storage agenda = agendas[_agendaID];\n        agenda.result = _result;\n\n        emit AgendaResultChanged(_agendaID, uint(_result));\n    }\n     \n    function getExecutionInfo(uint256 _agendaID)\n        public\n        view\n        returns(\n            address target,\n            bytes memory functionBytecode\n        )\n    {\n        LibAgenda.AgendaExecutionInfo storage agenda = executionInfos[_agendaID];\n        return (\n            agenda.target,\n            agenda.functionBytecode\n        );\n    }\n\n    function getVotingCount(uint256 _agendaID)\n        public\n        view\n        returns (\n            uint256 countingYes,\n            uint256 countingNo,\n            uint256 countingAbstain\n        )\n    {\n        LibAgenda.Agenda storage agenda = agendas[_agendaID];\n        return (\n            agenda.countingYes,\n            agenda.countingNo,\n            agenda.countingAbstain\n        );\n    }\n\n    function getAgendaTimestamps(uint256 _agendaID)\n        public\n        view\n        returns (\n            uint256 createdTimestamp,\n            uint256 noticeEndTimestamp,\n            uint256 votingStartedTimestamp,\n            uint256 votingEndTimestamp,\n            uint256 executedTimestamp\n        )\n    {\n        LibAgenda.Agenda storage agenda = agendas[_agendaID];\n        return (\n            agenda.createdTimestamp,\n            agenda.noticeEndTimestamp,\n            agenda.votingStartedTimestamp,\n            agenda.votingEndTimestamp,\n            agenda.executedTimestamp\n        );\n    }\n\n    function numAgendas() public view returns (uint256) {\n        return agendas.length;\n    }\n\n    function getVoters(uint256 _agendaID) public view returns (address[] memory) {\n        return agendas[_agendaID].voters;\n    }\n}\n",
  "sourcePath": "/Users/sgnoo/Workspace/tokamak-dao-contracts/contracts/dao/DAOAgendaManager.sol",
  "compiler": {
    "name": "solc",
    "version": "0.7.6+commit.7338295f.Emscripten.clang"
  },
  "schemaVersion": "3.3.1",
  "updatedAt": "2021-01-06T08:41:25.498Z",
  "devdoc": {
    "kind": "dev",
    "methods": {
      "owner()": {
        "details": "Returns the address of the current owner."
      },
      "renounceOwnership()": {
        "details": "Leaves the contract without owner. It will not be possible to call `onlyOwner` functions anymore. Can only be called by the current owner. NOTE: Renouncing ownership will leave the contract without an owner, thereby removing any functionality that is only available to the owner."
      },
      "transferOwnership(address)": {
        "details": "Transfers ownership of the contract to a new account (`newOwner`). Can only be called by the current owner."
      }
    },
    "version": 1
  },
  "userdoc": {
    "kind": "user",
    "methods": {},
    "version": 1
  }
}