{
  "contractName": "DAOAgendaManagerRole",
  "abi": [
    {
      "inputs": [],
      "stateMutability": "nonpayable",
      "type": "constructor"
    },
    {
      "anonymous": false,
      "inputs": [
        {
          "indexed": true,
          "internalType": "address",
          "name": "account",
          "type": "address"
        }
      ],
      "name": "AgendaManagerAdded",
      "type": "event"
    },
    {
      "anonymous": false,
      "inputs": [
        {
          "indexed": true,
          "internalType": "address",
          "name": "account",
          "type": "address"
        }
      ],
      "name": "AgendaManagerRemoved",
      "type": "event"
    },
    {
      "inputs": [
        {
          "internalType": "address",
          "name": "account",
          "type": "address"
        }
      ],
      "name": "isAgendaManager",
      "outputs": [
        {
          "internalType": "bool",
          "name": "",
          "type": "bool"
        }
      ],
      "stateMutability": "view",
      "type": "function"
    },
    {
      "inputs": [
        {
          "internalType": "address",
          "name": "account",
          "type": "address"
        }
      ],
      "name": "addAgendaManager",
      "outputs": [],
      "stateMutability": "nonpayable",
      "type": "function"
    },
    {
      "inputs": [],
      "name": "renounceAgendaManager",
      "outputs": [],
      "stateMutability": "nonpayable",
      "type": "function"
    }
  ],
  "bytecode": "0x608060405234801561001057600080fd5b5061001a3361001f565b6100dc565b61003781600061006e60201b6100eb1790919060201c565b6040516001600160a01b038216907f33b2170787bdf77c4262c9bf57f4af9c221a084e18cc578d1a952807d76a9d9090600090a250565b61007882826100a7565b1561008257600080fd5b6001600160a01b0316600090815260209190915260409020805460ff19166001179055565b60006001600160a01b0382166100bc57600080fd5b506001600160a01b03166000908152602091909152604090205460ff1690565b610248806100eb6000396000f3fe608060405234801561001057600080fd5b50600436106100415760003560e01c80634b60738314610046578063be26816d14610080578063f9ac7eaa146100a8575b600080fd5b61006c6004803603602081101561005c57600080fd5b50356001600160a01b03166100b0565b604080519115158252519081900360200190f35b6100a66004803603602081101561009657600080fd5b50356001600160a01b03166100c2565b005b6100a66100e0565b60006100bc8183610124565b92915050565b6100cb336100b0565b6100d457600080fd5b6100dd81610159565b50565b6100e93361019b565b565b6100f58282610124565b156100ff57600080fd5b6001600160a01b0316600090815260209190915260409020805460ff19166001179055565b60006001600160a01b03821661013957600080fd5b506001600160a01b03166000908152602091909152604090205460ff1690565b6101646000826100eb565b6040516001600160a01b038216907f33b2170787bdf77c4262c9bf57f4af9c221a084e18cc578d1a952807d76a9d9090600090a250565b6101a66000826101dd565b6040516001600160a01b038216907fcc37a8a80a166e07608aa5b9571c2e3db9ff7977d08581dd15fefdf95487098690600090a250565b6101e78282610124565b6101f057600080fd5b6001600160a01b0316600090815260209190915260409020805460ff1916905556fea26469706673582212204075ca3b34a8e92d70bf23c8608c3c9fabb670895cd864de47907e655fc6de9c64736f6c63430007060033",
  "immutableReferences": {},
  "source": "// SPDX-License-Identifier: MIT\npragma solidity ^0.7.6;\n\nimport \"../lib/Roles.sol\";\n\ncontract DAOAgendaManagerRole {\n    using Roles for Roles.Role;\n\n    event AgendaManagerAdded(address indexed account);\n    event AgendaManagerRemoved(address indexed account);\n\n    Roles.Role private _agendaManagers;\n\n    constructor () {\n        _addAgendaManager(msg.sender);\n    }\n\n    modifier onlyAgendaManager() {\n        require(isAgendaManager(msg.sender));\n        _;\n    }\n\n    function isAgendaManager(address account) public view returns (bool) {\n        return _agendaManagers.has(account);\n    }\n\n    function addAgendaManager(address account) public onlyAgendaManager {\n        _addAgendaManager(account);\n    }\n\n    function renounceAgendaManager() public {\n        _removeAgendaManager(msg.sender);\n    }\n\n    function _addAgendaManager(address account) internal {\n        _agendaManagers.add(account);\n        emit AgendaManagerAdded(account);\n    }\n\n    function _removeAgendaManager(address account) internal {\n        _agendaManagers.remove(account);\n        emit AgendaManagerRemoved(account);\n    }\n}\n",
  "sourcePath": "/Users/sgnoo/Workspace/tokamak-dao-contracts/contracts/roles/DAOAgendaManagerRole.sol",
  "compiler": {
    "name": "solc",
    "version": "0.7.6+commit.7338295f.Emscripten.clang"
  },
  "schemaVersion": "3.3.1",
  "updatedAt": "2021-01-20T01:55:31.131Z",
  "devdoc": {
    "kind": "dev",
    "methods": {},
    "version": 1
  },
  "userdoc": {
    "kind": "user",
    "methods": {},
    "version": 1
  }
}