{
  "contractName": "DAOActivityRewardManager",
  "abi": [
    {
      "inputs": [
        {
          "internalType": "address",
          "name": "_ton",
          "type": "address"
        },
        {
          "internalType": "address",
          "name": "_daoVault",
          "type": "address"
        }
      ],
      "stateMutability": "nonpayable",
      "type": "constructor"
    },
    {
      "anonymous": false,
      "inputs": [
        {
          "indexed": true,
          "internalType": "address",
          "name": "previousOwner",
          "type": "address"
        },
        {
          "indexed": true,
          "internalType": "address",
          "name": "newOwner",
          "type": "address"
        }
      ],
      "name": "OwnershipTransferred",
      "type": "event"
    },
    {
      "inputs": [],
      "name": "activityfeePerVoting",
      "outputs": [
        {
          "internalType": "uint256",
          "name": "",
          "type": "uint256"
        }
      ],
      "stateMutability": "view",
      "type": "function"
    },
    {
      "inputs": [
        {
          "internalType": "address",
          "name": "",
          "type": "address"
        }
      ],
      "name": "activityfees",
      "outputs": [
        {
          "internalType": "uint256",
          "name": "total",
          "type": "uint256"
        },
        {
          "internalType": "uint256",
          "name": "remain",
          "type": "uint256"
        },
        {
          "internalType": "uint256",
          "name": "claim",
          "type": "uint256"
        }
      ],
      "stateMutability": "view",
      "type": "function"
    },
    {
      "inputs": [
        {
          "internalType": "uint256",
          "name": "",
          "type": "uint256"
        }
      ],
      "name": "agendaActivityfees",
      "outputs": [
        {
          "internalType": "uint256",
          "name": "",
          "type": "uint256"
        }
      ],
      "stateMutability": "view",
      "type": "function"
    },
    {
      "inputs": [
        {
          "internalType": "uint256",
          "name": "",
          "type": "uint256"
        },
        {
          "internalType": "address",
          "name": "",
          "type": "address"
        }
      ],
      "name": "agendaVoters",
      "outputs": [
        {
          "internalType": "bool",
          "name": "",
          "type": "bool"
        }
      ],
      "stateMutability": "view",
      "type": "function"
    },
    {
      "inputs": [],
      "name": "daoVault",
      "outputs": [
        {
          "internalType": "address",
          "name": "",
          "type": "address"
        }
      ],
      "stateMutability": "view",
      "type": "function"
    },
    {
      "inputs": [],
      "name": "owner",
      "outputs": [
        {
          "internalType": "address",
          "name": "",
          "type": "address"
        }
      ],
      "stateMutability": "view",
      "type": "function"
    },
    {
      "inputs": [],
      "name": "renounceOwnership",
      "outputs": [],
      "stateMutability": "nonpayable",
      "type": "function"
    },
    {
      "inputs": [],
      "name": "ton",
      "outputs": [
        {
          "internalType": "address",
          "name": "",
          "type": "address"
        }
      ],
      "stateMutability": "view",
      "type": "function"
    },
    {
      "inputs": [],
      "name": "totalActivityFees",
      "outputs": [
        {
          "internalType": "uint256",
          "name": "",
          "type": "uint256"
        }
      ],
      "stateMutability": "view",
      "type": "function"
    },
    {
      "inputs": [
        {
          "internalType": "address",
          "name": "newOwner",
          "type": "address"
        }
      ],
      "name": "transferOwnership",
      "outputs": [],
      "stateMutability": "nonpayable",
      "type": "function"
    },
    {
      "inputs": [
        {
          "internalType": "uint256",
          "name": "_activityfeePerVoting",
          "type": "uint256"
        }
      ],
      "name": "setActivityfeePerVoting",
      "outputs": [],
      "stateMutability": "nonpayable",
      "type": "function"
    },
    {
      "inputs": [
        {
          "internalType": "address",
          "name": "_daoVault",
          "type": "address"
        }
      ],
      "name": "setDaoVault",
      "outputs": [],
      "stateMutability": "nonpayable",
      "type": "function"
    },
    {
      "inputs": [],
      "name": "getDaoVault",
      "outputs": [
        {
          "internalType": "address",
          "name": "",
          "type": "address"
        }
      ],
      "stateMutability": "view",
      "type": "function"
    },
    {
      "inputs": [
        {
          "internalType": "address",
          "name": "user",
          "type": "address"
        }
      ],
      "name": "getActivityfees",
      "outputs": [
        {
          "internalType": "uint256",
          "name": "total",
          "type": "uint256"
        },
        {
          "internalType": "uint256",
          "name": "remain",
          "type": "uint256"
        },
        {
          "internalType": "uint256",
          "name": "claim",
          "type": "uint256"
        }
      ],
      "stateMutability": "view",
      "type": "function"
    },
    {
      "inputs": [
        {
          "internalType": "uint256",
          "name": "_AgendaID",
          "type": "uint256"
        },
        {
          "internalType": "uint256",
          "name": "fees",
          "type": "uint256"
        }
      ],
      "name": "payActivityFees",
      "outputs": [
        {
          "internalType": "bool",
          "name": "",
          "type": "bool"
        }
      ],
      "stateMutability": "nonpayable",
      "type": "function"
    },
    {
      "inputs": [
        {
          "internalType": "address",
          "name": "user",
          "type": "address"
        },
        {
          "internalType": "uint256",
          "name": "amount",
          "type": "uint256"
        }
      ],
      "name": "claim",
      "outputs": [
        {
          "internalType": "uint256",
          "name": "",
          "type": "uint256"
        }
      ],
      "stateMutability": "nonpayable",
      "type": "function"
    },
    {
      "inputs": [],
      "name": "getActivityfeePerVoting",
      "outputs": [
        {
          "internalType": "uint256",
          "name": "",
          "type": "uint256"
        }
      ],
      "stateMutability": "view",
      "type": "function"
    },
    {
      "inputs": [],
      "name": "calculateActivityFees",
      "outputs": [
        {
          "internalType": "uint256",
          "name": "",
          "type": "uint256"
        }
      ],
      "stateMutability": "view",
      "type": "function"
    }
  ],
  "bytecode": "0x608060405234801561001057600080fd5b50604051610ad9380380610ad98339818101604052604081101561003357600080fd5b50805160209091015160006100466100c6565b600080546001600160a01b0319166001600160a01b0383169081178255604051929350917f8be0079c531659141344cd1fd0a4f28419497f9722a3daafe3b4186f6b6457e0908290a3506000600355600180546001600160a01b039384166001600160a01b031991821617909155600280549290931691161790556100ca565b3390565b610a00806100d96000396000f3fe608060405234801561001057600080fd5b50600436106101165760003560e01c806391e70759116100a2578063cc9efba911610071578063cc9efba91461025d578063d1628bb0146102a1578063f1c41b51146102be578063f2fde38b146102c6578063fa04be6e146102ec57610116565b806391e70759146102195780639bfc126614610221578063aad3ec9614610229578063cc48b9471461025557610116565b806358ba5f16116100e957806358ba5f16146101ba5780635903bd6c146101dd578063715018a6146102015780638d63537f146102095780638da5cb5b1461021157610116565b806328b2418e1461011b5780632f5b5ccc1461015b5780634b799db11461018a5780634f64ecf2146101b2575b600080fd5b6101476004803603604081101561013157600080fd5b50803590602001356001600160a01b0316610312565b604080519115158252519081900360200190f35b6101786004803603602081101561017157600080fd5b5035610332565b60408051918252519081900360200190f35b6101b0600480360360208110156101a057600080fd5b50356001600160a01b0316610344565b005b610178610403565b610147600480360360408110156101d057600080fd5b5080359060200135610426565b6101e56104a2565b604080516001600160a01b039092168252519081900360200190f35b6101b06104b1565b610178610553565b6101e5610559565b6101e5610568565b610178610577565b6101786004803603604081101561023f57600080fd5b506001600160a01b03813516906020013561057d565b6101e5610634565b6102836004803603602081101561027357600080fd5b50356001600160a01b0316610643565b60408051938452602084019290925282820152519081900360600190f35b6101b0600480360360208110156102b757600080fd5b50356106a6565b610178610703565b6101b0600480360360208110156102dc57600080fd5b50356001600160a01b0316610709565b6102836004803603602081101561030257600080fd5b50356001600160a01b0316610801565b600660209081526000928352604080842090915290825290205460ff1681565b60056020526000908152604090205481565b61034c610822565b6000546001600160a01b0390811691161461039c576040805162461bcd60e51b815260206004820181905260248201526000805160206109ab833981519152604482015290519081900360640190fd5b6001600160a01b0381166103e15760405162461bcd60e51b81526004018080602001828103825260248152602001806109876024913960400191505060405180910390fd5b600280546001600160a01b0319166001600160a01b0392909216919091179055565b60008061040e610703565b9050801561041d579050610423565b60009150505b90565b6000610430610822565b6000546001600160a01b03908116911614610480576040805162461bcd60e51b815260206004820181905260248201526000805160206109ab833981519152604482015290519081900360640190fd5b81156104985760008381526005602052604090208290555b5060015b92915050565b6002546001600160a01b031681565b6104b9610822565b6000546001600160a01b03908116911614610509576040805162461bcd60e51b815260206004820181905260248201526000805160206109ab833981519152604482015290519081900360640190fd5b600080546040516001600160a01b03909116907f8be0079c531659141344cd1fd0a4f28419497f9722a3daafe3b4186f6b6457e0908390a3600080546001600160a01b0319169055565b60075481565b6000546001600160a01b031690565b6002546001600160a01b031690565b60035481565b6000610587610822565b6000546001600160a01b039081169116146105d7576040805162461bcd60e51b815260206004820181905260248201526000805160206109ab833981519152604482015290519081900360640190fd5b6001600160a01b03831660009081526004602052604090206001810154831161062a5760018101546106099084610826565b6001820155600281015461061d908461086f565b600290910155508061049c565b600091505061049c565b6001546001600160a01b031681565b6001600160a01b0381166000908152600460205260408120548190819015610695575050506001600160a01b03811660009081526004602052604090208054600182015460029092015490919061069f565b5060009150819050805b9193909250565b6106ae610822565b6000546001600160a01b039081169116146106fe576040805162461bcd60e51b815260206004820181905260248201526000805160206109ab833981519152604482015290519081900360640190fd5b600355565b60035490565b610711610822565b6000546001600160a01b03908116911614610761576040805162461bcd60e51b815260206004820181905260248201526000805160206109ab833981519152604482015290519081900360640190fd5b6001600160a01b0381166107a65760405162461bcd60e51b81526004018080602001828103825260268152602001806109616026913960400191505060405180910390fd5b600080546040516001600160a01b03808516939216917f8be0079c531659141344cd1fd0a4f28419497f9722a3daafe3b4186f6b6457e091a3600080546001600160a01b0319166001600160a01b0392909216919091179055565b60046020526000908152604090208054600182015460029092015490919083565b3390565b600061086883836040518060400160405280601e81526020017f536166654d6174683a207375627472616374696f6e206f766572666c6f7700008152506108c9565b9392505050565b600082820183811015610868576040805162461bcd60e51b815260206004820152601b60248201527f536166654d6174683a206164646974696f6e206f766572666c6f770000000000604482015290519081900360640190fd5b600081848411156109585760405162461bcd60e51b81526004018080602001828103825283818151815260200191508051906020019080838360005b8381101561091d578181015183820152602001610905565b50505050905090810190601f16801561094a5780820380516001836020036101000a031916815260200191505b509250505060405180910390fd5b50505090039056fe4f776e61626c653a206e6577206f776e657220697320746865207a65726f206164647265737344414f41637469766974794665654d616e616765723a205661756c74206973207a65726f4f776e61626c653a2063616c6c6572206973206e6f7420746865206f776e6572a2646970667358221220338adbbb1d99fb71d987b64fa104c799d0db407f0cbc170dda59676d025ff50264736f6c63430007060033",
  "immutableReferences": {},
  "source": "// SPDX-License-Identifier: MIT\npragma solidity ^0.7.6;\n\nimport { SafeMath } from \"../../node_modules/@openzeppelin/contracts/math/SafeMath.sol\";\nimport { IERC20 } from  \"../../node_modules/@openzeppelin/contracts/token/ERC20/IERC20.sol\";\n//import \"../roles/DAOActivityFeeManagerRole.sol\";\nimport \"../../node_modules/@openzeppelin/contracts/access/Ownable.sol\";\n\ncontract DAOActivityRewardManager is Ownable/*, DAOActivityFeeManagerRole*/ {\n    using SafeMath for uint256;\n    address public ton;\n    address public daoVault;\n     \n    uint256 public activityfeePerVoting;\n    \n    mapping(address => ActivityFee) public activityfees;\n    mapping(uint256 => uint256) public agendaActivityfees; // agenda's activity fees\n    mapping(uint256 => mapping(address => bool)) public agendaVoters;\n    uint256 public totalActivityFees;\n    \n    struct ActivityFee {\n        uint256 total;\n        uint256 remain;\n        uint256 claim;\n    }\n     \n    constructor(address _ton, address _daoVault) public {\n        activityfeePerVoting = 0;\n        ton = _ton;\n        daoVault = _daoVault;\n    }\n            \n    function setActivityfeePerVoting(uint256 _activityfeePerVoting) onlyOwner public {\n        activityfeePerVoting = _activityfeePerVoting;\n    }\n     \n    function setDaoVault(address _daoVault) onlyOwner public {\n        require(_daoVault != address(0), \"DAOActivityFeeManager: Vault is zero\");\n        daoVault = _daoVault;\n    }\n     \n    //function getTON() public view returns (address) { return ton; }\n     \n    function getDaoVault() public view returns (address) { return daoVault; }\n    \n    \n    function getActivityfees(address user) public view returns (uint256 total, uint256 remain, uint256 claim) {\n        if (activityfees[user].total > 0) {\n            return (activityfees[user].total, activityfees[user].remain, activityfees[user].claim);\n        } else {\n            return(0, 0, 0);\n        }\n    }\n    \n    function payActivityFees(uint256 _AgendaID, uint256 fees) onlyOwner public returns (bool) {\n        if (fees > 0) {\n            agendaActivityfees[_AgendaID] = fees;\n        }\n        \n        return true;\n    }\n    \n    function claim(address user, uint256 amount) onlyOwner public returns (uint256) {\n       ActivityFee storage af = activityfees[user];\n       \n       if (af.remain >= amount) {\n           af.remain = af.remain.sub(amount);\n           af.claim = af.claim.add(amount);\n           return amount;\n       } else {\n           return 0;\n       }\n    }\n    \n    function getActivityfeePerVoting() public view returns (uint256) {\n        return activityfeePerVoting;\n    }\n\n    /*\n    function claim(uint256 amount) public returns (uint256) {\n        address dauvault = store.getDaoVault();\n        require(dauvault != address(0), \"dauvault is zreo\");\n        \n        address activityFeeManager = store.getActivityFeeManager();\n        require(activityFeeManager != address(0), \"activityFeeManager is zreo\");\n        \n        require(amount > 0, \"amount is zreo\");\n        (uint256 total, uint256 remain, ) = DAOActivityFeeManagerI(activityFeeManager).getActivityfees(msg.sender);\n        require(total >= amount && remain >= amount, \"lack of remain\");\n        \n        uint256 storeclaim = DAOActivityFeeManagerI(activityFeeManager).claim(msg.sender, amount);\n        require(amount == storeclaim, \"store claim fail\");\n         \n        // from daovault to sender\n        (bool success, bytes memory execresult) = address(dauvault).call(abi.encodeWithSignature(\"claimCommittee(address,uint256)\", msg.sender, amount));\n        require(success, \"fail to claimCommittee\");\n        uint256 callclaimamount = abi.decode(execresult, (uint256));\n        require(callclaimamount > 0, \"callclaimamount is zero\");\n        \n        emit ClaimActivityFees(msg.sender, amount, callclaimamount, storeclaim);\n        \n        return callclaimamount;\n    }\n    \n    function getActivityfees() public view returns (uint256 total, uint256 remain, uint256 claimdone) {\n        address activityFeeManager = store.getActivityFeeManager();\n        require(activityFeeManager != address(0), \"activityFeeManager is zreo\");\n        \n        return DAOActivityFeeManagerI(activityFeeManager).getActivityfees(msg.sender);\n    }\n    */\n    \n    function calculateActivityFees() public view returns (uint256) {\n        uint256 uintFees = getActivityfeePerVoting();\n        \n        if (uintFees > 0) {\n            return uintFees;\n        } else {\n            return 0;\n        }\n    }\n}\n",
  "sourcePath": "/Users/sgnoo/Workspace/tokamak-dao-contracts/contracts/dao/DAOActivityRewardManager.sol",
  "compiler": {
    "name": "solc",
    "version": "0.7.6+commit.7338295f.Emscripten.clang"
  },
  "schemaVersion": "3.3.1",
  "updatedAt": "2021-01-14T00:27:18.398Z",
  "devdoc": {
    "kind": "dev",
    "methods": {
      "owner()": {
        "details": "Returns the address of the current owner."
      },
      "renounceOwnership()": {
        "details": "Leaves the contract without owner. It will not be possible to call `onlyOwner` functions anymore. Can only be called by the current owner. NOTE: Renouncing ownership will leave the contract without an owner, thereby removing any functionality that is only available to the owner."
      },
      "transferOwnership(address)": {
        "details": "Transfers ownership of the contract to a new account (`newOwner`). Can only be called by the current owner."
      }
    },
    "version": 1
  },
  "userdoc": {
    "kind": "user",
    "methods": {},
    "version": 1
  }
}