{
  "contractName": "DAOAgendaManager",
  "abi": [
    {
      "inputs": [],
      "stateMutability": "nonpayable",
      "type": "constructor"
    },
    {
      "anonymous": false,
      "inputs": [
        {
          "indexed": true,
          "internalType": "uint256",
          "name": "agendaID",
          "type": "uint256"
        },
        {
          "indexed": false,
          "internalType": "uint256",
          "name": "result",
          "type": "uint256"
        }
      ],
      "name": "AgendaResultChanged",
      "type": "event"
    },
    {
      "anonymous": false,
      "inputs": [
        {
          "indexed": true,
          "internalType": "uint256",
          "name": "agendaID",
          "type": "uint256"
        },
        {
          "indexed": false,
          "internalType": "uint256",
          "name": "prevStatus",
          "type": "uint256"
        },
        {
          "indexed": false,
          "internalType": "uint256",
          "name": "newStatus",
          "type": "uint256"
        }
      ],
      "name": "AgendaStatusChanged",
      "type": "event"
    },
    {
      "anonymous": false,
      "inputs": [
        {
          "indexed": true,
          "internalType": "address",
          "name": "previousOwner",
          "type": "address"
        },
        {
          "indexed": true,
          "internalType": "address",
          "name": "newOwner",
          "type": "address"
        }
      ],
      "name": "OwnershipTransferred",
      "type": "event"
    },
    {
      "inputs": [
        {
          "internalType": "uint256",
          "name": "",
          "type": "uint256"
        }
      ],
      "name": "agendas",
      "outputs": [
        {
          "internalType": "uint256",
          "name": "createdTimestamp",
          "type": "uint256"
        },
        {
          "internalType": "uint256",
          "name": "noticeEndTimestamp",
          "type": "uint256"
        },
        {
          "internalType": "uint256",
          "name": "votingPeriodInSeconds",
          "type": "uint256"
        },
        {
          "internalType": "uint256",
          "name": "votingStartedTimestamp",
          "type": "uint256"
        },
        {
          "internalType": "uint256",
          "name": "votingEndTimestamp",
          "type": "uint256"
        },
        {
          "internalType": "uint256",
          "name": "executedTimestamp",
          "type": "uint256"
        },
        {
          "internalType": "uint256",
          "name": "countingYes",
          "type": "uint256"
        },
        {
          "internalType": "uint256",
          "name": "countingNo",
          "type": "uint256"
        },
        {
          "internalType": "uint256",
          "name": "countingAbstain",
          "type": "uint256"
        },
        {
          "internalType": "enum LibAgenda.AgendaStatus",
          "name": "status",
          "type": "uint8"
        },
        {
          "internalType": "enum LibAgenda.AgendaResult",
          "name": "result",
          "type": "uint8"
        },
        {
          "internalType": "bool",
          "name": "executed",
          "type": "bool"
        }
      ],
      "stateMutability": "view",
      "type": "function"
    },
    {
      "inputs": [],
      "name": "committee",
      "outputs": [
        {
          "internalType": "contract IDAOCommittee",
          "name": "",
          "type": "address"
        }
      ],
      "stateMutability": "view",
      "type": "function"
    },
    {
      "inputs": [],
      "name": "createAgendaFees",
      "outputs": [
        {
          "internalType": "uint256",
          "name": "",
          "type": "uint256"
        }
      ],
      "stateMutability": "view",
      "type": "function"
    },
    {
      "inputs": [],
      "name": "minimumNoticePeriodSeconds",
      "outputs": [
        {
          "internalType": "uint256",
          "name": "",
          "type": "uint256"
        }
      ],
      "stateMutability": "view",
      "type": "function"
    },
    {
      "inputs": [],
      "name": "minimumVotingPeriodSeconds",
      "outputs": [
        {
          "internalType": "uint256",
          "name": "",
          "type": "uint256"
        }
      ],
      "stateMutability": "view",
      "type": "function"
    },
    {
      "inputs": [],
      "name": "owner",
      "outputs": [
        {
          "internalType": "address",
          "name": "",
          "type": "address"
        }
      ],
      "stateMutability": "view",
      "type": "function"
    },
    {
      "inputs": [],
      "name": "renounceOwnership",
      "outputs": [],
      "stateMutability": "nonpayable",
      "type": "function"
    },
    {
      "inputs": [
        {
          "internalType": "address",
          "name": "newOwner",
          "type": "address"
        }
      ],
      "name": "transferOwnership",
      "outputs": [],
      "stateMutability": "nonpayable",
      "type": "function"
    },
    {
      "inputs": [
        {
          "internalType": "uint256",
          "name": "",
          "type": "uint256"
        },
        {
          "internalType": "address",
          "name": "",
          "type": "address"
        }
      ],
      "name": "voterInfos",
      "outputs": [
        {
          "internalType": "bool",
          "name": "isVoter",
          "type": "bool"
        },
        {
          "internalType": "bool",
          "name": "hasVoted",
          "type": "bool"
        },
        {
          "internalType": "uint256",
          "name": "vote",
          "type": "uint256"
        }
      ],
      "stateMutability": "view",
      "type": "function"
    },
    {
      "inputs": [
        {
          "internalType": "uint256",
          "name": "_status",
          "type": "uint256"
        }
      ],
      "name": "getStatus",
      "outputs": [
        {
          "internalType": "enum LibAgenda.AgendaStatus",
          "name": "emnustatus",
          "type": "uint8"
        }
      ],
      "stateMutability": "pure",
      "type": "function"
    },
    {
      "inputs": [
        {
          "internalType": "address",
          "name": "_committee",
          "type": "address"
        }
      ],
      "name": "setCommittee",
      "outputs": [],
      "stateMutability": "nonpayable",
      "type": "function"
    },
    {
      "inputs": [
        {
          "internalType": "uint256",
          "name": "_createAgendaFees",
          "type": "uint256"
        }
      ],
      "name": "setCreateAgendaFees",
      "outputs": [],
      "stateMutability": "nonpayable",
      "type": "function"
    },
    {
      "inputs": [
        {
          "internalType": "uint256",
          "name": "_minimumNoticePeriodSeconds",
          "type": "uint256"
        }
      ],
      "name": "setMinimumNoticePeriodSeconds",
      "outputs": [],
      "stateMutability": "nonpayable",
      "type": "function"
    },
    {
      "inputs": [
        {
          "internalType": "uint256",
          "name": "_minimumVotingPeriodSeconds",
          "type": "uint256"
        }
      ],
      "name": "setMinimumVotingPeriodSeconds",
      "outputs": [],
      "stateMutability": "nonpayable",
      "type": "function"
    },
    {
      "inputs": [
        {
          "internalType": "address[]",
          "name": "_targets",
          "type": "address[]"
        },
        {
          "internalType": "uint256",
          "name": "_noticePeriodSeconds",
          "type": "uint256"
        },
        {
          "internalType": "uint256",
          "name": "_votingPeriodSeconds",
          "type": "uint256"
        },
        {
          "internalType": "bytes[]",
          "name": "_functionBytecodes",
          "type": "bytes[]"
        }
      ],
      "name": "newAgenda",
      "outputs": [
        {
          "internalType": "uint256",
          "name": "agendaID",
          "type": "uint256"
        }
      ],
      "stateMutability": "nonpayable",
      "type": "function"
    },
    {
      "inputs": [
        {
          "internalType": "uint256",
          "name": "_agendaID",
          "type": "uint256"
        },
        {
          "internalType": "address",
          "name": "_voter",
          "type": "address"
        },
        {
          "internalType": "uint256",
          "name": "_vote",
          "type": "uint256"
        }
      ],
      "name": "castVote",
      "outputs": [
        {
          "internalType": "bool",
          "name": "",
          "type": "bool"
        }
      ],
      "stateMutability": "nonpayable",
      "type": "function"
    },
    {
      "inputs": [
        {
          "internalType": "uint256",
          "name": "_agendaID",
          "type": "uint256"
        }
      ],
      "name": "setExecutedAgenda",
      "outputs": [],
      "stateMutability": "nonpayable",
      "type": "function"
    },
    {
      "inputs": [
        {
          "internalType": "uint256",
          "name": "_agendaID",
          "type": "uint256"
        },
        {
          "internalType": "enum LibAgenda.AgendaResult",
          "name": "_result",
          "type": "uint8"
        }
      ],
      "name": "setResult",
      "outputs": [],
      "stateMutability": "nonpayable",
      "type": "function"
    },
    {
      "inputs": [
        {
          "internalType": "uint256",
          "name": "_agendaID",
          "type": "uint256"
        },
        {
          "internalType": "uint256",
          "name": "_status",
          "type": "uint256"
        }
      ],
      "name": "setStatus",
      "outputs": [],
      "stateMutability": "nonpayable",
      "type": "function"
    },
    {
      "inputs": [
        {
          "internalType": "uint256",
          "name": "_agendaID",
          "type": "uint256"
        },
        {
          "internalType": "enum LibAgenda.AgendaStatus",
          "name": "_status",
          "type": "uint8"
        }
      ],
      "name": "setStatus",
      "outputs": [],
      "stateMutability": "nonpayable",
      "type": "function"
    },
    {
      "inputs": [
        {
          "internalType": "uint256",
          "name": "_agendaID",
          "type": "uint256"
        }
      ],
      "name": "endAgendaVoting",
      "outputs": [],
      "stateMutability": "nonpayable",
      "type": "function"
    },
    {
      "inputs": [
        {
          "internalType": "uint256",
          "name": "_agendaID",
          "type": "uint256"
        },
        {
          "internalType": "address",
          "name": "_candidate",
          "type": "address"
        }
      ],
      "name": "isVoter",
      "outputs": [
        {
          "internalType": "bool",
          "name": "",
          "type": "bool"
        }
      ],
      "stateMutability": "view",
      "type": "function"
    },
    {
      "inputs": [
        {
          "internalType": "uint256",
          "name": "_agendaID",
          "type": "uint256"
        },
        {
          "internalType": "address",
          "name": "_user",
          "type": "address"
        }
      ],
      "name": "hasVoted",
      "outputs": [
        {
          "internalType": "bool",
          "name": "",
          "type": "bool"
        }
      ],
      "stateMutability": "view",
      "type": "function"
    },
    {
      "inputs": [
        {
          "internalType": "uint256",
          "name": "_agendaID",
          "type": "uint256"
        },
        {
          "internalType": "address",
          "name": "_user",
          "type": "address"
        }
      ],
      "name": "getVoteStatus",
      "outputs": [
        {
          "internalType": "bool",
          "name": "",
          "type": "bool"
        },
        {
          "internalType": "uint256",
          "name": "",
          "type": "uint256"
        }
      ],
      "stateMutability": "view",
      "type": "function"
    },
    {
      "inputs": [
        {
          "internalType": "uint256",
          "name": "_agendaID",
          "type": "uint256"
        }
      ],
      "name": "getAgendaNoticeEndTimeSeconds",
      "outputs": [
        {
          "internalType": "uint256",
          "name": "",
          "type": "uint256"
        }
      ],
      "stateMutability": "view",
      "type": "function"
    },
    {
      "inputs": [
        {
          "internalType": "uint256",
          "name": "_agendaID",
          "type": "uint256"
        }
      ],
      "name": "getAgendaVotingStartTimeSeconds",
      "outputs": [
        {
          "internalType": "uint256",
          "name": "",
          "type": "uint256"
        }
      ],
      "stateMutability": "view",
      "type": "function"
    },
    {
      "inputs": [
        {
          "internalType": "uint256",
          "name": "_agendaID",
          "type": "uint256"
        }
      ],
      "name": "getAgendaVotingEndTimeSeconds",
      "outputs": [
        {
          "internalType": "uint256",
          "name": "",
          "type": "uint256"
        }
      ],
      "stateMutability": "view",
      "type": "function"
    },
    {
      "inputs": [
        {
          "internalType": "uint256",
          "name": "_agendaID",
          "type": "uint256"
        }
      ],
      "name": "canExecuteAgenda",
      "outputs": [
        {
          "internalType": "bool",
          "name": "",
          "type": "bool"
        }
      ],
      "stateMutability": "view",
      "type": "function"
    },
    {
      "inputs": [
        {
          "internalType": "uint256",
          "name": "_agendaID",
          "type": "uint256"
        }
      ],
      "name": "getAgendaStatus",
      "outputs": [
        {
          "internalType": "uint256",
          "name": "status",
          "type": "uint256"
        }
      ],
      "stateMutability": "view",
      "type": "function"
    },
    {
      "inputs": [],
      "name": "totalAgendas",
      "outputs": [
        {
          "internalType": "uint256",
          "name": "",
          "type": "uint256"
        }
      ],
      "stateMutability": "view",
      "type": "function"
    },
    {
      "inputs": [
        {
          "internalType": "uint256",
          "name": "_agendaID",
          "type": "uint256"
        }
      ],
      "name": "getAgendaResult",
      "outputs": [
        {
          "internalType": "uint256",
          "name": "result",
          "type": "uint256"
        },
        {
          "internalType": "bool",
          "name": "executed",
          "type": "bool"
        }
      ],
      "stateMutability": "view",
      "type": "function"
    },
    {
      "inputs": [
        {
          "internalType": "uint256",
          "name": "_agendaID",
          "type": "uint256"
        }
      ],
      "name": "getExecutionInfo",
      "outputs": [
        {
          "internalType": "address[]",
          "name": "target",
          "type": "address[]"
        },
        {
          "internalType": "bytes[]",
          "name": "functionBytecode",
          "type": "bytes[]"
        }
      ],
      "stateMutability": "view",
      "type": "function"
    },
    {
      "inputs": [
        {
          "internalType": "uint256",
          "name": "_agendaID",
          "type": "uint256"
        }
      ],
      "name": "isVotableStatus",
      "outputs": [
        {
          "internalType": "bool",
          "name": "",
          "type": "bool"
        }
      ],
      "stateMutability": "view",
      "type": "function"
    },
    {
      "inputs": [
        {
          "internalType": "uint256",
          "name": "_agendaID",
          "type": "uint256"
        }
      ],
      "name": "getVotingCount",
      "outputs": [
        {
          "internalType": "uint256",
          "name": "countingYes",
          "type": "uint256"
        },
        {
          "internalType": "uint256",
          "name": "countingNo",
          "type": "uint256"
        },
        {
          "internalType": "uint256",
          "name": "countingAbstain",
          "type": "uint256"
        }
      ],
      "stateMutability": "view",
      "type": "function"
    },
    {
      "inputs": [
        {
          "internalType": "uint256",
          "name": "_agendaID",
          "type": "uint256"
        }
      ],
      "name": "getAgendaTimestamps",
      "outputs": [
        {
          "internalType": "uint256",
          "name": "createdTimestamp",
          "type": "uint256"
        },
        {
          "internalType": "uint256",
          "name": "noticeEndTimestamp",
          "type": "uint256"
        },
        {
          "internalType": "uint256",
          "name": "votingStartedTimestamp",
          "type": "uint256"
        },
        {
          "internalType": "uint256",
          "name": "votingEndTimestamp",
          "type": "uint256"
        },
        {
          "internalType": "uint256",
          "name": "executedTimestamp",
          "type": "uint256"
        }
      ],
      "stateMutability": "view",
      "type": "function"
    },
    {
      "inputs": [],
      "name": "numAgendas",
      "outputs": [
        {
          "internalType": "uint256",
          "name": "",
          "type": "uint256"
        }
      ],
      "stateMutability": "view",
      "type": "function"
    },
    {
      "inputs": [
        {
          "internalType": "uint256",
          "name": "_agendaID",
          "type": "uint256"
        }
      ],
      "name": "getVoters",
      "outputs": [
        {
          "internalType": "address[]",
          "name": "",
          "type": "address[]"
        }
      ],
      "stateMutability": "view",
      "type": "function"
    }
  ],
  "bytecode": "0x608060405234801561001057600080fd5b50600061001b610085565b600080546001600160a01b0319166001600160a01b0383169081178255604051929350917f8be0079c531659141344cd1fd0a4f28419497f9722a3daafe3b4186f6b6457e0908290a3506213c6806003556202a30060045568056bc75e2d63100000600255610089565b3390565b612730806100986000396000f3fe608060405234801561001057600080fd5b50600436106102265760003560e01c80637e77eb2311610130578063bddae40e116100b8578063d896dd641161007c578063d896dd6414610506578063de6bd38614610519578063e3bc145f14610365578063e3c361561461052c578063f2fde38b1461053457610226565b8063bddae40e146104a4578063c0bc5304146104b7578063cdeed605146104ca578063d30bbcbf146104eb578063d864e740146104fe57610226565b8063885b4696116100ff578063885b4696146104235780638da5cb5b146104365780638e3f5f831461044b578063aee4a42a1461046f578063b4f69b6a1461049157610226565b80637e77eb23146103ca57806382e40813146103dd5780638425a46d146103f057806386b646f21461040357610226565b806343859632116101b3578063699cc35811610182578063699cc358146103655780636bcaab5e1461036d578063715018a61461038e57806373ba37451461039657806377f28d5b146103b757610226565b806343859632146102fd5780634a47f59b1461031057806356150a36146103325780635c622a0e1461034557610226565b8063284d776e116101fa578063284d776e14610286578063334bbf351461029957806337184a32146102ac5780633c4a819c146102bf5780633da2371f146102ea57610226565b8062b74c451461022b5780630af5aa3c1461025457806323d09fdf146102695780632522a32f1461027e575b600080fd5b61023e610239366004611f24565b610547565b60405161024b9190612118565b60405180910390f35b61025c6105a6565b60405161024b9190612561565b61027c610277366004611ef4565b6105ac565b005b61025c610609565b61025c610294366004611ef4565b61060f565b61025c6102a7366004611ef4565b61066a565b61027c6102ba366004611ef4565b6106b4565b6102d26102cd366004611ef4565b6107c3565b60405161024b9c9b9a999897969594939291906125c1565b61025c6102f8366004611ef4565b61083d565b61023e61030b366004611f24565b610887565b61032361031e366004611f24565b6108dc565b60405161024b93929190612123565b61027c610340366004611f8a565b61090d565b610358610353366004611ef4565b6109f1565b60405161024b919061214b565b61025c610a3f565b61038061037b366004611ef4565b610a45565b60405161024b92919061256a565b61027c610ad0565b6103a96103a4366004611ef4565b610b72565b60405161024b929190612071565b61023e6103c5366004611ef4565b610cc1565b61023e6103d8366004611f53565b610d44565b61027c6103eb366004611fd8565b610f3f565b61023e6103fe366004611ef4565b61104b565b610416610411366004611ef4565b6110a3565b60405161024b919061205e565b61027c610431366004611ef4565b611123565b61043e61120c565b60405161024b919061204a565b61045e610459366004611ef4565b61121b565b60405161024b95949392919061259e565b61048261047d366004611ef4565b61126a565b60405161024b93929190612588565b61027c61049f366004611ef4565b6112aa565b61027c6104b2366004611e3c565b611307565b61027c6104c5366004611ef4565b6113a7565b6104dd6104d8366004611f24565b611404565b60405161024b92919061213b565b61025c6104f9366004611e74565b611468565b61043e61180b565b61027c610514366004611fb1565b61181a565b61025c610527366004611ef4565b611905565b61025c61194f565b61027c610542366004611e3c565b611955565b60006001600160a01b0382166105785760405162461bcd60e51b815260040161056f90612220565b60405180910390fd5b5060008281526006602090815260408083206001600160a01b038516845290915290205460ff165b92915050565b60035481565b6105b4611a4d565b6000546001600160a01b03908116911614610604576040805162461bcd60e51b815260206004820181905260248201526000805160206126bb833981519152604482015290519081900360640190fd5b600355565b60025481565b60055460009082106106335760405162461bcd60e51b815260040161056f9061241b565b6005828154811061064057fe5b600091825260209091206009600c90920201015460ff16600581111561066257fe5b90505b919050565b600554600090821061068e5760405162461bcd60e51b815260040161056f9061229d565b6005828154811061069b57fe5b90600052602060002090600c0201600401549050919050565b6106bc611a4d565b6000546001600160a01b0390811691161461070c576040805162461bcd60e51b815260206004820181905260248201526000805160206126bb833981519152604482015290519081900360640190fd5b600554811061072d5760405162461bcd60e51b815260040161056f90612159565b60006005828154811061073c57fe5b60009182526020909120600b600c90920201908101805460ff1916600117905542600580830191909155600982015491925083916000805160206126db8339815191529160ff919091169081111561079057fe5b60046040516107a092919061257a565b60405180910390a26009810180546004919060ff19166001835b02179055505050565b600581815481106107d357600080fd5b60009182526020909120600c9091020180546001820154600283015460038401546004850154600586015460068701546007880154600889015460098a0154600b909a0154989a509698959794969395929491939092909160ff808316926101009004811691168c565b60055460009082106108615760405162461bcd60e51b815260040161056f9061229d565b6005828154811061086e57fe5b90600052602060002090600c0201600301549050919050565b60055460009083106108ab5760405162461bcd60e51b815260040161056f906121a0565b5060009182526006602090815260408084206001600160a01b03939093168452919052902054610100900460ff1690565b60066020908152600092835260408084209091529082529020805460019091015460ff808316926101009004169083565b610915611a4d565b6000546001600160a01b03908116911614610965576040805162461bcd60e51b815260206004820181905260248201526000805160206126bb833981519152604482015290519081900360640190fd5b60006005838154811061097457fe5b90600052602060002090600c02019050818160090160016101000a81548160ff021916908360038111156109a457fe5b0217905550827ff874b3fe678e8c9f4bd9dd7051e2bd81708e378e98526f16586e7bf60b77effc8360038111156109d757fe5b6040516109e49190612561565b60405180910390a2505050565b60006001821415610a0457506001610665565b6002821415610a1557506002610665565b6004821415610a2657506004610665565b6005821415610a3757506005610665565b506000610665565b60055490565b60055460009081908310610a6b5760405162461bcd60e51b815260040161056f90612494565b60058381548110610a7857fe5b90600052602060002090600c020160090160019054906101000a900460ff166003811115610aa257fe5b60058481548110610aaf57fe5b60009182526020909120600b600c90920201015490925060ff169050915091565b610ad8611a4d565b6000546001600160a01b03908116911614610b28576040805162461bcd60e51b815260206004820181905260248201526000805160206126bb833981519152604482015290519081900360640190fd5b600080546040516001600160a01b03909116907f8be0079c531659141344cd1fd0a4f28419497f9722a3daafe3b4186f6b6457e0908390a3600080546001600160a01b0319169055565b600081815260076020908152604091829020805483518184028101840190945280845260609384938392600184019291849190830182828015610bde57602002820191906000526020600020905b81546001600160a01b03168152600190910190602001808311610bc0575b5050505050915080805480602002602001604051908101604052809291908181526020016000905b82821015610cb15760008481526020908190208301805460408051601f6002600019610100600187161502019094169390930492830185900485028101850190915281815292830182828015610c9d5780601f10610c7257610100808354040283529160200191610c9d565b820191906000526020600020905b815481529060010190602001808311610c8057829003601f168201915b505050505081526020019060010190610c06565b5050505090509250925050915091565b60008060058381548110610cd157fe5b60009182526020909120600c9091020190506003600982015460ff166005811115610cf857fe5b148015610d1c575060016009820154610100900460ff166003811115610d1a57fe5b145b8015610d2c575042816004015411155b8015610d3d5750600b81015460ff16155b9392505050565b6000610d4e611a4d565b6000546001600160a01b03908116911614610d9e576040805162461bcd60e51b815260206004820181905260248201526000805160206126bb833981519152604482015290519081900360640190fd5b60038210610dbe5760405162461bcd60e51b815260040161056f906121e9565b610dc78461104b565b610de35760405162461bcd60e51b815260040161056f9061252c565b600060058581548110610df257fe5b60009182526020909120600c9091020190506001600982015460ff166005811115610e1957fe5b1415610e2857610e2885611a51565b610e328585610547565b610e4e5760405162461bcd60e51b815260040161056f90612266565b610e588585610887565b15610e755760405162461bcd60e51b815260040161056f9061245d565b8060040154421115610e995760405162461bcd60e51b815260040161056f90612334565b60008581526006602090815260408083206001600160a01b03881684529091528120805461ff0019166101001781556001810185905590841415610ef1576008820154610ee7906001611c37565b6008830155610f33565b6001841415610f14576006820154610f0a906001611c37565b6006830155610f33565b6002841415610226576007820154610f2d906001611c37565b60078301555b50600195945050505050565b610f47611a4d565b6000546001600160a01b03908116911614610f97576040805162461bcd60e51b815260206004820181905260248201526000805160206126bb833981519152604482015290519081900360640190fd5b6005548210610fb85760405162461bcd60e51b815260040161056f906121a0565b816000805160206126db83398151915260058481548110610fd557fe5b600091825260209091206009600c90920201015460ff166005811115610ff757fe5b8360405161100692919061257a565b60405180910390a2611017816109f1565b6005838154811061102457fe5b600091825260209091206009600c9092020101805460ff191660018360058111156107ba57fe5b6000806005838154811061105b57fe5b90600052602060002090600c02019050806004015442111580610d3d57506001600982015460ff16600581111561108e57fe5b148015610d3d57506001015442101592915050565b6060600582815481106110b257fe5b90600052602060002090600c0201600a0180548060200260200160405190810160405280929190818152602001828054801561111757602002820191906000526020600020905b81546001600160a01b031681526001909101906020018083116110f9575b50505050509050919050565b61112b611a4d565b6000546001600160a01b0390811691161461117b576040805162461bcd60e51b815260206004820181905260248201526000805160206126bb833981519152604482015290519081900360640190fd5b60006005828154811061118a57fe5b60009182526020909120600c9091020190506002600982015460ff1660058111156111b157fe5b146111ce5760405162461bcd60e51b815260040161056f906122e4565b42816004015411156111f25760405162461bcd60e51b815260040161056f906123d2565b6111fd82600561181a565b61120882600361090d565b5050565b6000546001600160a01b031690565b6000806000806000806005878154811061123157fe5b60009182526020909120600c909102018054600182015460038301546004840154600590940154929b919a509850919650945092505050565b6000806000806005858154811061127d57fe5b90600052602060002090600c02019050806006015481600701548260080154935093509350509193909250565b6112b2611a4d565b6000546001600160a01b03908116911614611302576040805162461bcd60e51b815260206004820181905260248201526000805160206126bb833981519152604482015290519081900360640190fd5b600255565b61130f611a4d565b6000546001600160a01b0390811691161461135f576040805162461bcd60e51b815260206004820181905260248201526000805160206126bb833981519152604482015290519081900360640190fd5b6001600160a01b0381166113855760405162461bcd60e51b815260040161056f90612391565b600180546001600160a01b0319166001600160a01b0392909216919091179055565b6113af611a4d565b6000546001600160a01b039081169116146113ff576040805162461bcd60e51b815260206004820181905260248201526000805160206126bb833981519152604482015290519081900360640190fd5b600455565b6005546000908190841061142a5760405162461bcd60e51b815260040161056f906121a0565b505060008281526006602090815260408083206001600160a01b03851684529091529020805460019091015461010090910460ff16905b9250929050565b6000611472611a4d565b6000546001600160a01b039081169116146114c2576040805162461bcd60e51b815260206004820181905260248201526000805160206126bb833981519152604482015290519081900360640190fd5b6003548510156114e45760405162461bcd60e51b815260040161056f906124de565b506005546114f0611c91565b600161012082018181526000610140840181905261018084018190524280855289016020850190815260408501898152606086018381526080870184815260a0880185815260058054808a0182559681905289517f036b6384b5eca791c62761152d0c79bb0604c104a5fb6f4eb0703f3154bb3db0600c90980297880190815595517f036b6384b5eca791c62761152d0c79bb0604c104a5fb6f4eb0703f3154bb3db188015593517f036b6384b5eca791c62761152d0c79bb0604c104a5fb6f4eb0703f3154bb3db287015591517f036b6384b5eca791c62761152d0c79bb0604c104a5fb6f4eb0703f3154bb3db3860155517f036b6384b5eca791c62761152d0c79bb0604c104a5fb6f4eb0703f3154bb3db4850155517f036b6384b5eca791c62761152d0c79bb0604c104a5fb6f4eb0703f3154bb3db584015560c08601517f036b6384b5eca791c62761152d0c79bb0604c104a5fb6f4eb0703f3154bb3db684015560e08601517f036b6384b5eca791c62761152d0c79bb0604c104a5fb6f4eb0703f3154bb3db78401556101008601517f036b6384b5eca791c62761152d0c79bb0604c104a5fb6f4eb0703f3154bb3db884015592517f036b6384b5eca791c62761152d0c79bb0604c104a5fb6f4eb0703f3154bb3db9909201805486959294919260ff199091169184908111156116e857fe5b021790555061014082015160098201805461ff00191661010083600381111561170d57fe5b0217905550610160820151805161172e91600a840191602090910190611d04565b506101809190910151600b909101805460ff19169115159190911790556000828152600760205260408120905b888110156117fe57818a8a8381811061177057fe5b90506020020160208101906117859190611e3c565b815460018082018455600093845260209093200180546001600160a01b0319166001600160a01b039290921691909117905582018686838181106117c557fe5b90506020028101906117d79190612637565b8254600181018455600093845260209093206117f593019190611d69565b5060010161175b565b5050509695505050505050565b6001546001600160a01b031681565b611822611a4d565b6000546001600160a01b03908116911614611872576040805162461bcd60e51b815260206004820181905260248201526000805160206126bb833981519152604482015290519081900360640190fd5b60006005838154811061188157fe5b90600052602060002090600c02019050826000805160206126db8339815191528260090160009054906101000a900460ff1660058111156118be57fe5b8460058111156118ca57fe5b6040516118d892919061257a565b60405180910390a260098101805483919060ff191660018360058111156118fb57fe5b0217905550505050565b60055460009082106119295760405162461bcd60e51b815260040161056f9061229d565b6005828154811061193657fe5b90600052602060002090600c0201600101549050919050565b60045481565b61195d611a4d565b6000546001600160a01b039081169116146119ad576040805162461bcd60e51b815260206004820181905260248201526000805160206126bb833981519152604482015290519081900360640190fd5b6001600160a01b0381166119f25760405162461bcd60e51b81526004018080602001828103825260268152602001806126956026913960400191505060405180910390fd5b600080546040516001600160a01b03808516939216917f8be0079c531659141344cd1fd0a4f28419497f9722a3daafe3b4186f6b6457e091a3600080546001600160a01b0319166001600160a01b0392909216919091179055565b3390565b600060058281548110611a6057fe5b90600052602060002090600c02019050428160030181905550611a90816002015442611c3790919063ffffffff16565b60048281019190915560098201805460ff191660021790556001546040805162f8f26b60e21b815290516000936001600160a01b03909316926303e3c9ac92808201926020929091829003018186803b158015611aec57600080fd5b505afa158015611b00573d6000803e3d6000fd5b505050506040513d601f19601f82011682018060405250810190611b249190611f0c565b905060005b81811015611c1457600154604051632ed7846560e11b81526000916001600160a01b031690635daf08ca90611b62908590600401612561565b60206040518083038186803b158015611b7a57600080fd5b505afa158015611b8e573d6000803e3d6000fd5b505050506040513d601f19601f82011682018060405250810190611bb29190611e58565b600a85018054600181810183556000928352602080842090920180546001600160a01b039095166001600160a01b03199095168517905588835260068252604080842094845293909152919020805460ff191682179055919091019050611b29565b50826000805160206126db833981519152600160026040516109e492919061257a565b600082820183811015610d3d576040805162461bcd60e51b815260206004820152601b60248201527f536166654d6174683a206164646974696f6e206f766572666c6f770000000000604482015290519081900360640190fd5b604051806101a0016040528060008152602001600081526020016000815260200160008152602001600081526020016000815260200160008152602001600081526020016000815260200160006005811115611ce957fe5b81526020016000815260606020820152600060409091015290565b828054828255906000526020600020908101928215611d59579160200282015b82811115611d5957825182546001600160a01b0319166001600160a01b03909116178255602090920191600190910190611d24565b50611d65929150611de5565b5090565b828054600181600116156101000203166002900490600052602060002090601f016020900481019282611d9f5760008555611d59565b82601f10611db85782800160ff19823516178555611d59565b82800160010185558215611d59579182015b82811115611d59578235825591602001919060010190611dca565b5b80821115611d655760008155600101611de6565b60008083601f840112611e0b578182fd5b50813567ffffffffffffffff811115611e22578182fd5b602083019150836020808302850101111561146157600080fd5b600060208284031215611e4d578081fd5b8135610d3d8161267c565b600060208284031215611e69578081fd5b8151610d3d8161267c565b60008060008060008060808789031215611e8c578182fd5b863567ffffffffffffffff80821115611ea3578384fd5b611eaf8a838b01611dfa565b909850965060208901359550604089013594506060890135915080821115611ed5578384fd5b50611ee289828a01611dfa565b979a9699509497509295939492505050565b600060208284031215611f05578081fd5b5035919050565b600060208284031215611f1d578081fd5b5051919050565b60008060408385031215611f36578182fd5b823591506020830135611f488161267c565b809150509250929050565b600080600060608486031215611f67578283fd5b833592506020840135611f798161267c565b929592945050506040919091013590565b60008060408385031215611f9c578182fd5b82359150602083013560048110611f48578182fd5b60008060408385031215611fc3578182fd5b82359150602083013560068110611f48578182fd5b60008060408385031215611fea578182fd5b50508035926020909101359150565b6000815180845260208085019450808401835b838110156120315781516001600160a01b03168752958201959082019060010161200c565b509495945050505050565b6006811061204657fe5b9052565b6001600160a01b0391909116815260200190565b600060208252610d3d6020830184611ff9565b6000604082526120846040830185611ff9565b602083820381850152818551808452828401915082838202850101838801865b8381101561210957601f1980888503018652825180518086528a5b818110156120da578281018a01518782018b015289016120bf565b818111156120ea578b8a83890101525b5096880196601f019091169390930186019250908501906001016120a4565b50909998505050505050505050565b901515815260200190565b92151583529015156020830152604082015260600190565b9115158252602082015260400190565b602081016105a0828461203c565b60208082526027908201527f44414f4167656e64614d616e616765723a205f6167656e646149442069732069604082015266373b30b634b21760c91b606082015260800190565b60208082526029908201527f44414f4167656e64614d616e616765723a204e6f7420612076616c69642050726040820152681bdc1bdcd85b08125960ba1b606082015260800190565b6020808252601e908201527f44414f4167656e64614d616e616765723a20696e76616c696420766f74650000604082015260600190565b60208082526026908201527f44414f4167656e64614d616e616765723a20757365722061646472657373206960408201526573207a65726f60d01b606082015260800190565b6020808252601d908201527f44414f4167656e64614d616e616765723a206e6f74206120766f746572000000604082015260600190565b60208082526027908201527f44414f4167656e64614d616e616765723a204e6f7420612076616c6964204167604082015266195b991848125960ca1b606082015260800190565b60208082526030908201527f44414f4167656e64614d616e616765723a206167656e6461207374617475732060408201526f6973206e6f74206368616e6761626c6560801b606082015260800190565b6020808252603a908201527f44414f4167656e64614d616e616765723a20666f722074686973206167656e6460408201527f612c2074686520766f74696e672074696d652065787069726564000000000000606082015260800190565b60208082526021908201527f44414f4167656e64614d616e616765723a2061646472657373206973207a65726040820152606f60f81b606082015260800190565b60208082526029908201527f44414f4167656e64614d616e616765723a20766f74696e67206973206e6f7420604082015268195b991959081e595d60ba1b606082015260800190565b60208082526022908201527f44414f4167656e64614d616e616765723a20696e76616c6964206167656e64206040820152611a5960f21b606082015260800190565b6020808252601f908201527f44414f4167656e64614d616e616765723a20616c726561647920766f74656400604082015260600190565b6020808252602a908201527f44414f4167656e64614d616e616765723a204e6f7420612076616c6964205f6160408201526919d95b9918525108125960b21b606082015260800190565b6020808252602e908201527f44414f4167656e64614d616e616765723a206d696e696d756d4e6f746963655060408201526d195c9a5bd9081a5cc81cda1bdc9d60921b606082015260800190565b6020808252818101527f44414f4167656e64614d616e616765723a20696e76616c696420737461747573604082015260600190565b90815260200190565b9182521515602082015260400190565b918252602082015260400190565b9283526020830191909152604082015260600190565b948552602085019390935260408401919091526060830152608082015260a00190565b6000610180820190508d82528c60208301528b60408301528a60608301528960808301528860a08301528760c08301528660e08301528561010083015261260c61012083018661203c565b6004841061261657fe5b836101408301528215156101608301529d9c50505050505050505050505050565b6000808335601e1984360301811261264d578283fd5b83018035915067ffffffffffffffff821115612667578283fd5b60200191503681900382131561146157600080fd5b6001600160a01b038116811461269157600080fd5b5056fe4f776e61626c653a206e6577206f776e657220697320746865207a65726f20616464726573734f776e61626c653a2063616c6c6572206973206e6f7420746865206f776e657227e1508d1d92ba0e1e406fad0138e0f3dd44688f5018dbe7f5718da02931eb7ca26469706673582212207b46d3ab46f781704b86ac112dbec553a111c0f5654b71b0249c674c4bb4ff0064736f6c63430007060033",
  "immutableReferences": {},
  "source": "// SPDX-License-Identifier: MIT\npragma solidity ^0.7.6;\npragma abicoder v2;\n\nimport { SafeMath } from \"../../node_modules/@openzeppelin/contracts/math/SafeMath.sol\";\nimport { IERC20 } from  \"../../node_modules/@openzeppelin/contracts/token/ERC20/IERC20.sol\";\nimport { IDAOCommittee } from \"../interfaces/IDAOCommittee.sol\";\nimport { ICandidate } from \"../interfaces/ICandidate.sol\";\nimport { LibAgenda } from \"../lib/Agenda.sol\";\nimport \"../../node_modules/@openzeppelin/contracts/access/Ownable.sol\";\n\ncontract DAOAgendaManager is Ownable {\n    using SafeMath for uint256;\n    using LibAgenda for *;\n\n    enum VoteChoice { ABSTAIN, YES, NO, MAX }\n\n    IDAOCommittee public committee;\n    \n    uint256 public createAgendaFees; // (TON)\n    \n    uint256 public minimumNoticePeriodSeconds;\n    uint256 public minimumVotingPeriodSeconds;\n    \n    LibAgenda.Agenda[] public agendas;\n    mapping(uint256 => mapping(address => LibAgenda.Voter)) public voterInfos;\n    mapping(uint256 => LibAgenda.AgendaExecutionInfo) internal executionInfos;\n    \n    event AgendaStatusChanged(\n        uint256 indexed agendaID,\n        uint256 prevStatus,\n        uint256 newStatus\n    );\n\n    event AgendaResultChanged(\n        uint256 indexed agendaID,\n        uint256 result\n    );\n\n    modifier validAgenda(uint256 _agendaID) {\n        require(_agendaID < agendas.length, \"DAOAgendaManager: invalid agenda id\");\n        _;\n    }\n    \n    constructor() {\n        minimumNoticePeriodSeconds = 60 * 60 * 24 * 15; //  15 days , on seconds\n        minimumVotingPeriodSeconds = 60 * 60 * 24 * 2; //  2 days , on seconds\n        \n        createAgendaFees = 100000000000000000000; // 100 TON\n    }\n\n    function getStatus(uint _status) public pure returns (LibAgenda.AgendaStatus emnustatus) {\n        if (_status == uint(LibAgenda.AgendaStatus.NOTICE))\n            return LibAgenda.AgendaStatus.NOTICE;\n        else if (_status == uint(LibAgenda.AgendaStatus.VOTING))\n            return LibAgenda.AgendaStatus.VOTING;\n        else if (_status == uint(LibAgenda.AgendaStatus.EXECUTED))\n            return LibAgenda.AgendaStatus.EXECUTED;\n        else if (_status == uint(LibAgenda.AgendaStatus.ENDED))\n            return LibAgenda.AgendaStatus.ENDED;\n        else\n            return LibAgenda.AgendaStatus.NONE;\n    }\n\n    /// @notice Set DAOCommitteeProxy contract address\n    /// @param _committee New DAOCommitteeProxy contract address\n    function setCommittee(address _committee) public onlyOwner {\n        require(_committee != address(0), \"DAOAgendaManager: address is zero\");\n        committee = IDAOCommittee(_committee);\n    }\n\n    /// @notice Set status of the agenda\n    /// @param _agendaID agenda ID\n    /// @param _status New status of the agenda\n    function setStatus(uint256 _agendaID, uint _status) public onlyOwner {\n        require(_agendaID < agendas.length, \"DAOAgendaManager: Not a valid Proposal Id\");\n\n        emit AgendaStatusChanged(_agendaID, uint(agendas[_agendaID].status), _status);\n        agendas[_agendaID].status = getStatus(_status);\n    }\n\n    /// @notice Set the fee(TON) of creating an agenda\n    /// @param _createAgendaFees New fee(TON)\n    function setCreateAgendaFees(uint256 _createAgendaFees) public onlyOwner {\n        createAgendaFees = _createAgendaFees;\n    }\n\n    /// @notice Set the minimum notice period in seconds\n    /// @param _minimumNoticePeriodSeconds New minimum notice period in seconds\n    function setMinimumNoticePeriodSeconds(uint256 _minimumNoticePeriodSeconds) public onlyOwner {\n        minimumNoticePeriodSeconds = _minimumNoticePeriodSeconds;\n    }\n\n    /// @notice Set the minimum voting period in seconds\n    /// @param _minimumVotingPeriodSeconds New minimum voting period in seconds\n    function setMinimumVotingPeriodSeconds(uint256 _minimumVotingPeriodSeconds) public onlyOwner {\n        minimumVotingPeriodSeconds = _minimumVotingPeriodSeconds;\n    }\n      \n    /// @notice Creates an agenda\n    /// @param _targets Target addresses for executions of the agenda\n    /// @param _noticePeriodSeconds Notice period in seconds\n    /// @param _votingPeriodSeconds Voting period in seconds\n    /// @param _functionBytecodes RLP-Encoded parameters for executions of the agenda\n    /// @return agendaID Created agenda ID\n    function newAgenda(\n        address[] calldata _targets,\n        uint256 _noticePeriodSeconds,\n        uint256 _votingPeriodSeconds,\n        bytes[] calldata _functionBytecodes\n    )\n        onlyOwner\n        public\n        returns (uint256 agendaID)\n    {\n        require(\n            _noticePeriodSeconds >= minimumNoticePeriodSeconds,\n            \"DAOAgendaManager: minimumNoticePeriod is short\"\n        );\n\n        agendaID = agendas.length;\n         \n        LibAgenda.Agenda memory p;\n        p.status = LibAgenda.AgendaStatus.NOTICE;\n        p.result = LibAgenda.AgendaResult.PENDING;\n        p.executed = false;\n        p.createdTimestamp = block.timestamp;\n        p.noticeEndTimestamp = block.timestamp + _noticePeriodSeconds;\n        p.votingPeriodInSeconds = _votingPeriodSeconds;\n        p.votingStartedTimestamp = 0;\n        p.votingEndTimestamp = 0;\n        p.executedTimestamp = 0;\n        \n        agendas.push(p);\n\n        LibAgenda.AgendaExecutionInfo storage executionInfo = executionInfos[agendaID];\n        for (uint256 i = 0; i < _targets.length; i++) {\n            executionInfo.targets.push(_targets[i]);\n            executionInfo.functionBytecodes.push(_functionBytecodes[i]);\n        }\n\n        //numAgendas = agendas.length;\n        //agendaID = numAgendas.sub(1);\n    }\n\n    /// @notice Casts vote for an agenda\n    /// @param _agendaID Agenda ID\n    /// @param _voter Voter\n    /// @param _vote Voting type\n    /// @return Whether or not the execution succeeded\n    function castVote(\n        uint256 _agendaID,\n        address _voter,\n        uint _vote\n    )\n        public\n        onlyOwner\n        returns (bool)\n    {\n        require(_vote < uint(VoteChoice.MAX), \"DAOAgendaManager: invalid vote\");\n\n        require(\n            isVotableStatus(_agendaID),\n            \"DAOAgendaManager: invalid status\"\n        );\n\n        LibAgenda.Agenda storage agenda = agendas[_agendaID];\n\n        if (agenda.status == LibAgenda.AgendaStatus.NOTICE) {\n            _startVoting(_agendaID);\n        }\n\n        require(isVoter(_agendaID, _voter), \"DAOAgendaManager: not a voter\");\n        require(!hasVoted(_agendaID, _voter), \"DAOAgendaManager: already voted\");\n\n        require(\n            block.timestamp <= agenda.votingEndTimestamp,\n            \"DAOAgendaManager: for this agenda, the voting time expired\"\n        );\n        \n        LibAgenda.Voter storage voter = voterInfos[_agendaID][_voter];\n        voter.hasVoted = true;\n        voter.vote = _vote;\n             \n        // counting 0:abstainVotes 1:yesVotes 2:noVotes\n        if (_vote == uint(VoteChoice.ABSTAIN))\n            agenda.countingAbstain = agenda.countingAbstain.add(1);\n        else if (_vote == uint(VoteChoice.YES))\n            agenda.countingYes = agenda.countingYes.add(1);\n        else if (_vote == uint(VoteChoice.NO))\n            agenda.countingNo = agenda.countingNo.add(1);\n        else\n            revert();\n        \n        return true;\n    }\n    \n    /// @notice Set the agenda status as executed\n    /// @param _agendaID Agenda ID\n    function setExecutedAgenda(uint256 _agendaID)\n        public\n        onlyOwner\n    {\n        require(_agendaID < agendas.length, \"DAOAgendaManager: _agendaID is invalid.\");\n\n        LibAgenda.Agenda storage agenda = agendas[_agendaID];\n        agenda.executed = true;\n        agenda.executedTimestamp = block.timestamp;\n\n        emit AgendaStatusChanged(_agendaID, uint(agenda.status), uint(LibAgenda.AgendaStatus.EXECUTED));\n\n        agenda.status = LibAgenda.AgendaStatus.EXECUTED;\n    }\n\n    /// @notice Set the agenda result\n    /// @param _agendaID Agenda ID\n    /// @param _result New result\n    function setResult(uint256 _agendaID, LibAgenda.AgendaResult _result)\n        public\n        onlyOwner\n    {\n        LibAgenda.Agenda storage agenda = agendas[_agendaID];\n        agenda.result = _result;\n\n        emit AgendaResultChanged(_agendaID, uint256(_result));\n    }\n     \n    /// @notice Set the agenda status\n    /// @param _agendaID Agenda ID\n    /// @param _status New status\n    function setStatus(uint256 _agendaID, LibAgenda.AgendaStatus _status)\n        public\n        onlyOwner\n    {\n        LibAgenda.Agenda storage agenda = agendas[_agendaID];\n\n        emit AgendaStatusChanged(_agendaID, uint256(agenda.status), uint256(_status));\n        agenda.status = _status;\n    }\n\n    /// @notice Set the agenda status as ended(denied or dismissed)\n    /// @param _agendaID Agenda ID\n    function endAgendaVoting(uint256 _agendaID)\n        public\n        onlyOwner\n    {\n        LibAgenda.Agenda storage agenda = agendas[_agendaID];\n\n        require(\n            agenda.status == LibAgenda.AgendaStatus.VOTING,\n            \"DAOAgendaManager: agenda status is not changable\"\n        );\n\n        require(\n            agenda.votingEndTimestamp <= block.timestamp,\n            \"DAOAgendaManager: voting is not ended yet\"\n        );\n\n        setStatus(_agendaID, LibAgenda.AgendaStatus.ENDED);\n        setResult(_agendaID, LibAgenda.AgendaResult.DISMISS);\n    }\n     \n    function _startVoting(uint256 _agendaID) internal {\n        LibAgenda.Agenda storage agenda = agendas[_agendaID];\n\n        agenda.votingStartedTimestamp = block.timestamp;\n        agenda.votingEndTimestamp = block.timestamp.add(agenda.votingPeriodInSeconds);\n        agenda.status = LibAgenda.AgendaStatus.VOTING;\n\n        uint256 memberCount = committee.maxMember();\n        for (uint256 i = 0; i < memberCount; i++) {\n            address voter = committee.members(i);\n            agenda.voters.push(voter);\n            voterInfos[_agendaID][voter].isVoter = true;\n        }\n\n        emit AgendaStatusChanged(_agendaID, uint(LibAgenda.AgendaStatus.NOTICE), uint(LibAgenda.AgendaStatus.VOTING));\n    }\n    \n    function checkAndEndVoting(uint256 _agendaID) internal {\n        LibAgenda.Agenda storage agenda = agendas[_agendaID];\n\n        require(\n            agenda.status == LibAgenda.AgendaStatus.VOTING,\n            \"DAOAgendaManager: status is not voting.\"\n        );\n    }\n\n    function isVoter(uint256 _agendaID, address _candidate) public view returns (bool) {\n        require(_candidate != address(0), \"DAOAgendaManager: user address is zero\");\n        return voterInfos[_agendaID][_candidate].isVoter;\n    }\n    \n    function hasVoted(uint256 _agendaID, address _user) public view returns (bool) {\n        require(_agendaID < agendas.length, \"DAOAgendaManager: Not a valid Proposal Id\");\n        return voterInfos[_agendaID][_user].hasVoted;\n    }\n\n    function getVoteStatus(uint256 _agendaID, address _user) public view returns (bool, uint256) {\n        require(_agendaID < agendas.length, \"DAOAgendaManager: Not a valid Proposal Id\");\n        \n        LibAgenda.Voter storage voter = voterInfos[_agendaID][_user];\n\n        return (\n            voter.hasVoted,\n            voter.vote\n        );\n    }\n    \n    function getAgendaNoticeEndTimeSeconds(uint256 _agendaID) public view returns (uint) {\n        require(_agendaID < agendas.length, \"DAOAgendaManager: Not a valid Agenda Id\");\n        return agendas[_agendaID].noticeEndTimestamp;\n    }\n    \n    function getAgendaVotingStartTimeSeconds(uint256 _agendaID) public view returns (uint) {\n        require(_agendaID < agendas.length, \"DAOAgendaManager: Not a valid Agenda Id\");\n        return agendas[_agendaID].votingStartedTimestamp;\n    }\n\n    function getAgendaVotingEndTimeSeconds(uint256 _agendaID) public view returns (uint) {\n        require(_agendaID < agendas.length, \"DAOAgendaManager: Not a valid Agenda Id\");\n        return agendas[_agendaID].votingEndTimestamp;\n    }\n\n    function canExecuteAgenda(uint256 _agendaID) public view returns (bool) {\n        LibAgenda.Agenda storage agenda = agendas[_agendaID];\n\n        return agenda.status == LibAgenda.AgendaStatus.WAITING_EXEC &&\n            agenda.result == LibAgenda.AgendaResult.ACCEPT &&\n            agenda.votingEndTimestamp <= block.timestamp &&\n            agenda.executed == false;\n    }\n    \n    function getAgendaStatus(uint256 _agendaID) public view returns (uint status) {\n        require(_agendaID < agendas.length, \"DAOAgendaManager: invalid agend id\");\n        return uint(agendas[_agendaID].status);\n    }\n\n    function totalAgendas() public view returns (uint256) {\n        return agendas.length;\n    }\n\n    function getAgendaResult(uint256 _agendaID) public view returns (uint result, bool executed) {\n        require(_agendaID < agendas.length, \"DAOAgendaManager: Not a valid _agendaID Id\");\n        return (uint(agendas[_agendaID].result), agendas[_agendaID].executed);\n    }\n   \n    function getExecutionInfo(uint256 _agendaID)\n        public\n        view\n        returns(\n            address[] memory target,\n            bytes[] memory functionBytecode\n        )\n    {\n        LibAgenda.AgendaExecutionInfo storage agenda = executionInfos[_agendaID];\n        return (\n            agenda.targets,\n            agenda.functionBytecodes\n        );\n    }\n\n    function isVotableStatus(uint256 _agendaID) public view returns (bool) {\n        LibAgenda.Agenda storage agenda = agendas[_agendaID];\n\n        return block.timestamp <= agenda.votingEndTimestamp ||\n            (agenda.status == LibAgenda.AgendaStatus.NOTICE &&\n                agenda.noticeEndTimestamp <= block.timestamp);\n    }\n\n    function getVotingCount(uint256 _agendaID)\n        public\n        view\n        returns (\n            uint256 countingYes,\n            uint256 countingNo,\n            uint256 countingAbstain\n        )\n    {\n        LibAgenda.Agenda storage agenda = agendas[_agendaID];\n        return (\n            agenda.countingYes,\n            agenda.countingNo,\n            agenda.countingAbstain\n        );\n    }\n\n    function getAgendaTimestamps(uint256 _agendaID)\n        public\n        view\n        returns (\n            uint256 createdTimestamp,\n            uint256 noticeEndTimestamp,\n            uint256 votingStartedTimestamp,\n            uint256 votingEndTimestamp,\n            uint256 executedTimestamp\n        )\n    {\n        LibAgenda.Agenda storage agenda = agendas[_agendaID];\n        return (\n            agenda.createdTimestamp,\n            agenda.noticeEndTimestamp,\n            agenda.votingStartedTimestamp,\n            agenda.votingEndTimestamp,\n            agenda.executedTimestamp\n        );\n    }\n\n    function numAgendas() public view returns (uint256) {\n        return agendas.length;\n    }\n\n    function getVoters(uint256 _agendaID) public view returns (address[] memory) {\n        return agendas[_agendaID].voters;\n    }\n}\n",
  "sourcePath": "/Users/sgnoo/Workspace/tokamak-dao-contracts/contracts/dao/DAOAgendaManager.sol",
  "compiler": {
    "name": "solc",
    "version": "0.7.6+commit.7338295f.Emscripten.clang"
  },
  "schemaVersion": "3.3.1",
  "updatedAt": "2021-01-26T09:02:06.523Z",
  "devdoc": {
    "kind": "dev",
    "methods": {
      "castVote(uint256,address,uint256)": {
        "params": {
          "_agendaID": "Agenda ID",
          "_vote": "Voting type",
          "_voter": "Voter"
        },
        "returns": {
          "_0": "Whether or not the execution succeeded"
        }
      },
      "endAgendaVoting(uint256)": {
        "params": {
          "_agendaID": "Agenda ID"
        }
      },
      "newAgenda(address[],uint256,uint256,bytes[])": {
        "params": {
          "_functionBytecodes": "RLP-Encoded parameters for executions of the agenda",
          "_noticePeriodSeconds": "Notice period in seconds",
          "_targets": "Target addresses for executions of the agenda",
          "_votingPeriodSeconds": "Voting period in seconds"
        },
        "returns": {
          "agendaID": "Created agenda ID"
        }
      },
      "owner()": {
        "details": "Returns the address of the current owner."
      },
      "renounceOwnership()": {
        "details": "Leaves the contract without owner. It will not be possible to call `onlyOwner` functions anymore. Can only be called by the current owner. NOTE: Renouncing ownership will leave the contract without an owner, thereby removing any functionality that is only available to the owner."
      },
      "setCommittee(address)": {
        "params": {
          "_committee": "New DAOCommitteeProxy contract address"
        }
      },
      "setCreateAgendaFees(uint256)": {
        "params": {
          "_createAgendaFees": "New fee(TON)"
        }
      },
      "setExecutedAgenda(uint256)": {
        "params": {
          "_agendaID": "Agenda ID"
        }
      },
      "setMinimumNoticePeriodSeconds(uint256)": {
        "params": {
          "_minimumNoticePeriodSeconds": "New minimum notice period in seconds"
        }
      },
      "setMinimumVotingPeriodSeconds(uint256)": {
        "params": {
          "_minimumVotingPeriodSeconds": "New minimum voting period in seconds"
        }
      },
      "setResult(uint256,uint8)": {
        "params": {
          "_agendaID": "Agenda ID",
          "_result": "New result"
        }
      },
      "setStatus(uint256,uint256)": {
        "params": {
          "_agendaID": "agenda ID",
          "_status": "New status of the agenda"
        }
      },
      "setStatus(uint256,uint8)": {
        "params": {
          "_agendaID": "Agenda ID",
          "_status": "New status"
        }
      },
      "transferOwnership(address)": {
        "details": "Transfers ownership of the contract to a new account (`newOwner`). Can only be called by the current owner."
      }
    },
    "version": 1
  },
  "userdoc": {
    "kind": "user",
    "methods": {
      "castVote(uint256,address,uint256)": {
        "notice": "Casts vote for an agenda"
      },
      "endAgendaVoting(uint256)": {
        "notice": "Set the agenda status as ended(denied or dismissed)"
      },
      "newAgenda(address[],uint256,uint256,bytes[])": {
        "notice": "Creates an agenda"
      },
      "setCommittee(address)": {
        "notice": "Set DAOCommitteeProxy contract address"
      },
      "setCreateAgendaFees(uint256)": {
        "notice": "Set the fee(TON) of creating an agenda"
      },
      "setExecutedAgenda(uint256)": {
        "notice": "Set the agenda status as executed"
      },
      "setMinimumNoticePeriodSeconds(uint256)": {
        "notice": "Set the minimum notice period in seconds"
      },
      "setMinimumVotingPeriodSeconds(uint256)": {
        "notice": "Set the minimum voting period in seconds"
      },
      "setResult(uint256,uint8)": {
        "notice": "Set the agenda result"
      },
      "setStatus(uint256,uint256)": {
        "notice": "Set status of the agenda"
      },
      "setStatus(uint256,uint8)": {
        "notice": "Set the agenda status"
      }
    },
    "version": 1
  }
}