{
  "contractName": "DAOActivityFeeManagerRole",
  "abi": [
    {
      "inputs": [],
      "stateMutability": "nonpayable",
      "type": "constructor"
    },
    {
      "anonymous": false,
      "inputs": [
        {
          "indexed": true,
          "internalType": "address",
          "name": "account",
          "type": "address"
        }
      ],
      "name": "ActivityFeeManagerAdded",
      "type": "event"
    },
    {
      "anonymous": false,
      "inputs": [
        {
          "indexed": true,
          "internalType": "address",
          "name": "account",
          "type": "address"
        }
      ],
      "name": "ActivityFeeManagerRemoved",
      "type": "event"
    },
    {
      "inputs": [
        {
          "internalType": "address",
          "name": "account",
          "type": "address"
        }
      ],
      "name": "isActivityFeeManager",
      "outputs": [
        {
          "internalType": "bool",
          "name": "",
          "type": "bool"
        }
      ],
      "stateMutability": "view",
      "type": "function"
    },
    {
      "inputs": [
        {
          "internalType": "address",
          "name": "account",
          "type": "address"
        }
      ],
      "name": "addActivityFeeManager",
      "outputs": [],
      "stateMutability": "nonpayable",
      "type": "function"
    },
    {
      "inputs": [],
      "name": "renounceActivityFeeManager",
      "outputs": [],
      "stateMutability": "nonpayable",
      "type": "function"
    }
  ],
  "bytecode": "0x608060405234801561001057600080fd5b5061001a3361001f565b6100dc565b61003781600061006e60201b6100eb1790919060201c565b6040516001600160a01b038216907f6d00d7329fca18060945e6b9277a7fc76f60d132f47793d89a9df6f30465817390600090a250565b61007882826100a7565b1561008257600080fd5b6001600160a01b0316600090815260209190915260409020805460ff19166001179055565b60006001600160a01b0382166100bc57600080fd5b506001600160a01b03166000908152602091909152604090205460ff1690565b610248806100eb6000396000f3fe608060405234801561001057600080fd5b50600436106100415760003560e01c80632a43be2c14610046578063613a3fd914610050578063de0760fc1461008a575b600080fd5b61004e6100b0565b005b6100766004803603602081101561006657600080fd5b50356001600160a01b03166100bb565b604080519115158252519081900360200190f35b61004e600480360360208110156100a057600080fd5b50356001600160a01b03166100cd565b6100b933610124565b565b60006100c78183610166565b92915050565b6100d6336100bb565b6100df57600080fd5b6100e88161019b565b50565b6100f58282610166565b156100ff57600080fd5b6001600160a01b0316600090815260209190915260409020805460ff19166001179055565b61012f6000826101dd565b6040516001600160a01b038216907fc138ce239545bd7a4e0b8d62475f61a98bed0b8be12d4c7a5446cb674297250090600090a250565b60006001600160a01b03821661017b57600080fd5b506001600160a01b03166000908152602091909152604090205460ff1690565b6101a66000826100eb565b6040516001600160a01b038216907f6d00d7329fca18060945e6b9277a7fc76f60d132f47793d89a9df6f30465817390600090a250565b6101e78282610166565b6101f057600080fd5b6001600160a01b0316600090815260209190915260409020805460ff1916905556fea26469706673582212204b59cf2eacfd3a7de0830456a6aaa52cd02e65f9723b0418d079ad42e92c2f1a64736f6c63430007060033",
  "immutableReferences": {},
  "source": "// SPDX-License-Identifier: MIT\npragma solidity ^0.7.6;\n\nimport \"../lib/Roles.sol\";\n\ncontract DAOActivityFeeManagerRole {\n    using Roles for Roles.Role;\n\n    event ActivityFeeManagerAdded(address indexed account);\n    event ActivityFeeManagerRemoved(address indexed account);\n\n    Roles.Role private _activityFeeManagers;\n\n    constructor () {\n        _addActivityFeeManager(msg.sender);\n    }\n\n    modifier onlyActivityFeeManager() {\n        require(isActivityFeeManager(msg.sender));\n        _;\n    }\n\n    function isActivityFeeManager(address account) public view returns (bool) {\n        return _activityFeeManagers.has(account);\n    }\n\n    function addActivityFeeManager(address account) public onlyActivityFeeManager {\n        _addActivityFeeManager(account);\n    }\n\n    function renounceActivityFeeManager() public {\n        _removeActivityFeeManager(msg.sender);\n    }\n\n    function _addActivityFeeManager(address account) internal {\n        _activityFeeManagers.add(account);\n        emit ActivityFeeManagerAdded(account);\n    }\n\n    function _removeActivityFeeManager(address account) internal {\n        _activityFeeManagers.remove(account);\n        emit ActivityFeeManagerRemoved(account);\n    }\n}\n",
  "sourcePath": "/Users/sgnoo/Workspace/tokamak-dao-contracts/contracts/roles/DAOActivityFeeManagerRole.sol",
  "compiler": {
    "name": "solc",
    "version": "0.7.6+commit.7338295f.Emscripten.clang"
  },
  "schemaVersion": "3.3.1",
  "updatedAt": "2021-01-06T08:41:25.558Z",
  "devdoc": {
    "kind": "dev",
    "methods": {},
    "version": 1
  },
  "userdoc": {
    "kind": "user",
    "methods": {},
    "version": 1
  }
}