{
  "contractName": "DAOCommittee",
  "abi": [
    {
      "anonymous": false,
      "inputs": [
        {
          "indexed": true,
          "internalType": "address",
          "name": "from",
          "type": "address"
        },
        {
          "indexed": true,
          "internalType": "uint256",
          "name": "id",
          "type": "uint256"
        },
        {
          "indexed": true,
          "internalType": "address",
          "name": "target",
          "type": "address"
        },
        {
          "indexed": false,
          "internalType": "uint256",
          "name": "noticeEndTimestamp",
          "type": "uint256"
        }
      ],
      "name": "AgendaCreated",
      "type": "event"
    },
    {
      "anonymous": false,
      "inputs": [
        {
          "indexed": true,
          "internalType": "address",
          "name": "from",
          "type": "address"
        },
        {
          "indexed": true,
          "internalType": "uint256",
          "name": "id",
          "type": "uint256"
        },
        {
          "indexed": false,
          "internalType": "address",
          "name": "target",
          "type": "address"
        },
        {
          "indexed": false,
          "internalType": "bytes",
          "name": "functionBytecode",
          "type": "bytes"
        }
      ],
      "name": "AgendaExecuted",
      "type": "event"
    },
    {
      "anonymous": false,
      "inputs": [
        {
          "indexed": true,
          "internalType": "address",
          "name": "from",
          "type": "address"
        },
        {
          "indexed": true,
          "internalType": "uint256",
          "name": "id",
          "type": "uint256"
        },
        {
          "indexed": false,
          "internalType": "uint256",
          "name": "voting",
          "type": "uint256"
        },
        {
          "indexed": false,
          "internalType": "string",
          "name": "comment",
          "type": "string"
        }
      ],
      "name": "AgendaVoteCasted",
      "type": "event"
    },
    {
      "anonymous": false,
      "inputs": [
        {
          "indexed": true,
          "internalType": "address",
          "name": "from",
          "type": "address"
        },
        {
          "indexed": false,
          "internalType": "address",
          "name": "member",
          "type": "address"
        },
        {
          "indexed": false,
          "internalType": "uint256",
          "name": "totalbalance",
          "type": "uint256"
        },
        {
          "indexed": false,
          "internalType": "uint256",
          "name": "memberIndex",
          "type": "uint256"
        }
      ],
      "name": "ApplyMemberSuccess",
      "type": "event"
    },
    {
      "anonymous": false,
      "inputs": [
        {
          "indexed": true,
          "internalType": "address",
          "name": "candidate",
          "type": "address"
        },
        {
          "indexed": false,
          "internalType": "address",
          "name": "candidateContract",
          "type": "address"
        },
        {
          "indexed": false,
          "internalType": "string",
          "name": "memo",
          "type": "string"
        }
      ],
      "name": "CandidateContractCreated",
      "type": "event"
    },
    {
      "anonymous": false,
      "inputs": [
        {
          "indexed": true,
          "internalType": "uint256",
          "name": "slotIndex",
          "type": "uint256"
        },
        {
          "indexed": true,
          "internalType": "address",
          "name": "prevMember",
          "type": "address"
        },
        {
          "indexed": true,
          "internalType": "address",
          "name": "newMember",
          "type": "address"
        }
      ],
      "name": "ChangedMember",
      "type": "event"
    },
    {
      "anonymous": false,
      "inputs": [
        {
          "indexed": true,
          "internalType": "uint256",
          "name": "prevSlotMax",
          "type": "uint256"
        },
        {
          "indexed": true,
          "internalType": "uint256",
          "name": "slotMax",
          "type": "uint256"
        }
      ],
      "name": "ChangedSlotMaximum",
      "type": "event"
    },
    {
      "anonymous": false,
      "inputs": [
        {
          "indexed": true,
          "internalType": "address",
          "name": "previousOwner",
          "type": "address"
        },
        {
          "indexed": true,
          "internalType": "address",
          "name": "newOwner",
          "type": "address"
        }
      ],
      "name": "OwnershipTransferred",
      "type": "event"
    },
    {
      "inputs": [],
      "name": "agendaManager",
      "outputs": [
        {
          "internalType": "contract IDAOAgendaManager",
          "name": "",
          "type": "address"
        }
      ],
      "stateMutability": "view",
      "type": "function"
    },
    {
      "inputs": [
        {
          "internalType": "address",
          "name": "_candidate",
          "type": "address"
        }
      ],
      "name": "candidateContract",
      "outputs": [
        {
          "internalType": "address",
          "name": "",
          "type": "address"
        }
      ],
      "stateMutability": "view",
      "type": "function"
    },
    {
      "inputs": [],
      "name": "candidateFactory",
      "outputs": [
        {
          "internalType": "contract ICandidateFactory",
          "name": "",
          "type": "address"
        }
      ],
      "stateMutability": "view",
      "type": "function"
    },
    {
      "inputs": [
        {
          "internalType": "address",
          "name": "",
          "type": "address"
        }
      ],
      "name": "candidateInfos",
      "outputs": [
        {
          "internalType": "address",
          "name": "candidateContract",
          "type": "address"
        },
        {
          "internalType": "uint256",
          "name": "memberJoinedTime",
          "type": "uint256"
        },
        {
          "internalType": "uint256",
          "name": "indexMembers",
          "type": "uint256"
        }
      ],
      "stateMutability": "view",
      "type": "function"
    },
    {
      "inputs": [
        {
          "internalType": "uint256",
          "name": "",
          "type": "uint256"
        }
      ],
      "name": "candidates",
      "outputs": [
        {
          "internalType": "address",
          "name": "",
          "type": "address"
        }
      ],
      "stateMutability": "view",
      "type": "function"
    },
    {
      "inputs": [],
      "name": "daoVault",
      "outputs": [
        {
          "internalType": "address",
          "name": "",
          "type": "address"
        }
      ],
      "stateMutability": "view",
      "type": "function"
    },
    {
      "inputs": [
        {
          "internalType": "address",
          "name": "_candidate",
          "type": "address"
        }
      ],
      "name": "isMember",
      "outputs": [
        {
          "internalType": "bool",
          "name": "",
          "type": "bool"
        }
      ],
      "stateMutability": "view",
      "type": "function"
    },
    {
      "inputs": [],
      "name": "layer2Registry",
      "outputs": [
        {
          "internalType": "contract ILayer2Registry",
          "name": "",
          "type": "address"
        }
      ],
      "stateMutability": "view",
      "type": "function"
    },
    {
      "inputs": [],
      "name": "maxMember",
      "outputs": [
        {
          "internalType": "uint256",
          "name": "",
          "type": "uint256"
        }
      ],
      "stateMutability": "view",
      "type": "function"
    },
    {
      "inputs": [
        {
          "internalType": "uint256",
          "name": "",
          "type": "uint256"
        }
      ],
      "name": "members",
      "outputs": [
        {
          "internalType": "address",
          "name": "",
          "type": "address"
        }
      ],
      "stateMutability": "view",
      "type": "function"
    },
    {
      "inputs": [],
      "name": "owner",
      "outputs": [
        {
          "internalType": "address",
          "name": "",
          "type": "address"
        }
      ],
      "stateMutability": "view",
      "type": "function"
    },
    {
      "inputs": [],
      "name": "renounceOwnership",
      "outputs": [],
      "stateMutability": "nonpayable",
      "type": "function"
    },
    {
      "inputs": [],
      "name": "seigManager",
      "outputs": [
        {
          "internalType": "contract ISeigManager",
          "name": "",
          "type": "address"
        }
      ],
      "stateMutability": "view",
      "type": "function"
    },
    {
      "inputs": [],
      "name": "ton",
      "outputs": [
        {
          "internalType": "address",
          "name": "",
          "type": "address"
        }
      ],
      "stateMutability": "view",
      "type": "function"
    },
    {
      "inputs": [
        {
          "internalType": "address",
          "name": "newOwner",
          "type": "address"
        }
      ],
      "name": "transferOwnership",
      "outputs": [],
      "stateMutability": "nonpayable",
      "type": "function"
    },
    {
      "inputs": [
        {
          "internalType": "address",
          "name": "_agendaManager",
          "type": "address"
        }
      ],
      "name": "setSeigManager",
      "outputs": [],
      "stateMutability": "nonpayable",
      "type": "function"
    },
    {
      "inputs": [
        {
          "internalType": "address",
          "name": "_daoVault",
          "type": "address"
        }
      ],
      "name": "setDaoVault",
      "outputs": [],
      "stateMutability": "nonpayable",
      "type": "function"
    },
    {
      "inputs": [
        {
          "internalType": "address",
          "name": "_layer2Registry",
          "type": "address"
        }
      ],
      "name": "setLayer2Registry",
      "outputs": [],
      "stateMutability": "nonpayable",
      "type": "function"
    },
    {
      "inputs": [
        {
          "internalType": "address",
          "name": "_agendaManager",
          "type": "address"
        }
      ],
      "name": "setAgendaManager",
      "outputs": [],
      "stateMutability": "nonpayable",
      "type": "function"
    },
    {
      "inputs": [
        {
          "internalType": "address",
          "name": "_candidateFactory",
          "type": "address"
        }
      ],
      "name": "setCandidateFactory",
      "outputs": [],
      "stateMutability": "nonpayable",
      "type": "function"
    },
    {
      "inputs": [
        {
          "internalType": "address",
          "name": "_ton",
          "type": "address"
        }
      ],
      "name": "setTon",
      "outputs": [],
      "stateMutability": "nonpayable",
      "type": "function"
    },
    {
      "inputs": [
        {
          "internalType": "uint256",
          "name": "_maxMember",
          "type": "uint256"
        }
      ],
      "name": "setMaxMember",
      "outputs": [],
      "stateMutability": "nonpayable",
      "type": "function"
    },
    {
      "inputs": [
        {
          "internalType": "string",
          "name": "_memo",
          "type": "string"
        }
      ],
      "name": "createCandidate",
      "outputs": [],
      "stateMutability": "nonpayable",
      "type": "function"
    },
    {
      "inputs": [
        {
          "internalType": "uint256",
          "name": "_memberIndex",
          "type": "uint256"
        }
      ],
      "name": "changeMember",
      "outputs": [
        {
          "internalType": "bool",
          "name": "",
          "type": "bool"
        }
      ],
      "stateMutability": "nonpayable",
      "type": "function"
    },
    {
      "inputs": [],
      "name": "retireMember",
      "outputs": [
        {
          "internalType": "bool",
          "name": "",
          "type": "bool"
        }
      ],
      "stateMutability": "nonpayable",
      "type": "function"
    },
    {
      "inputs": [
        {
          "internalType": "uint256",
          "name": "_reducingMemberIndex",
          "type": "uint256"
        }
      ],
      "name": "reduceMemberSlot",
      "outputs": [],
      "stateMutability": "nonpayable",
      "type": "function"
    },
    {
      "inputs": [
        {
          "internalType": "uint256",
          "name": "_minimunNoticePeriod",
          "type": "uint256"
        }
      ],
      "name": "setMinimunNoticePeriodSeconds",
      "outputs": [],
      "stateMutability": "nonpayable",
      "type": "function"
    },
    {
      "inputs": [
        {
          "internalType": "uint256",
          "name": "_minimunVotingPeriod",
          "type": "uint256"
        }
      ],
      "name": "setMinimunVotingPeriodSeconds",
      "outputs": [],
      "stateMutability": "nonpayable",
      "type": "function"
    },
    {
      "inputs": [
        {
          "internalType": "uint256",
          "name": "_quorumNumerator",
          "type": "uint256"
        },
        {
          "internalType": "uint256",
          "name": "_quorumDenominator",
          "type": "uint256"
        }
      ],
      "name": "setQuorum",
      "outputs": [],
      "stateMutability": "nonpayable",
      "type": "function"
    },
    {
      "inputs": [
        {
          "internalType": "uint256",
          "name": "_fees",
          "type": "uint256"
        }
      ],
      "name": "setCreateAgendaFees",
      "outputs": [],
      "stateMutability": "nonpayable",
      "type": "function"
    },
    {
      "inputs": [
        {
          "internalType": "address",
          "name": "_target",
          "type": "address"
        },
        {
          "internalType": "uint256",
          "name": "_noticePeriodSeconds",
          "type": "uint256"
        },
        {
          "internalType": "uint256",
          "name": "_votingPeriodSeconds",
          "type": "uint256"
        },
        {
          "internalType": "bytes",
          "name": "_functionBytecode",
          "type": "bytes"
        }
      ],
      "name": "createAgenda",
      "outputs": [
        {
          "internalType": "uint256",
          "name": "",
          "type": "uint256"
        }
      ],
      "stateMutability": "nonpayable",
      "type": "function"
    },
    {
      "inputs": [
        {
          "internalType": "uint256",
          "name": "_agendaID",
          "type": "uint256"
        },
        {
          "internalType": "uint256",
          "name": "_vote",
          "type": "uint256"
        },
        {
          "internalType": "string",
          "name": "_comment",
          "type": "string"
        }
      ],
      "name": "castVote",
      "outputs": [],
      "stateMutability": "nonpayable",
      "type": "function"
    },
    {
      "inputs": [
        {
          "internalType": "uint256",
          "name": "_agendaID",
          "type": "uint256"
        }
      ],
      "name": "executeAgenda",
      "outputs": [],
      "stateMutability": "nonpayable",
      "type": "function"
    },
    {
      "inputs": [
        {
          "internalType": "address",
          "name": "_candidate",
          "type": "address"
        }
      ],
      "name": "updateSeigniorage",
      "outputs": [
        {
          "internalType": "bool",
          "name": "",
          "type": "bool"
        }
      ],
      "stateMutability": "nonpayable",
      "type": "function"
    },
    {
      "inputs": [
        {
          "internalType": "address[]",
          "name": "_candidates",
          "type": "address[]"
        }
      ],
      "name": "updateSeigniorages",
      "outputs": [
        {
          "internalType": "bool",
          "name": "",
          "type": "bool"
        }
      ],
      "stateMutability": "nonpayable",
      "type": "function"
    },
    {
      "inputs": [],
      "name": "requiredVotesToPass",
      "outputs": [
        {
          "internalType": "uint256",
          "name": "requiredVotes",
          "type": "uint256"
        }
      ],
      "stateMutability": "view",
      "type": "function"
    },
    {
      "inputs": [
        {
          "internalType": "address",
          "name": "_candidate",
          "type": "address"
        }
      ],
      "name": "totalSupplyOnCandidate",
      "outputs": [
        {
          "internalType": "uint256",
          "name": "totalsupply",
          "type": "uint256"
        }
      ],
      "stateMutability": "view",
      "type": "function"
    },
    {
      "inputs": [
        {
          "internalType": "address",
          "name": "_candidate",
          "type": "address"
        },
        {
          "internalType": "address",
          "name": "account",
          "type": "address"
        }
      ],
      "name": "balanceOfOnCandidate",
      "outputs": [
        {
          "internalType": "uint256",
          "name": "amount",
          "type": "uint256"
        }
      ],
      "stateMutability": "view",
      "type": "function"
    },
    {
      "inputs": [],
      "name": "candidatesLength",
      "outputs": [
        {
          "internalType": "uint256",
          "name": "",
          "type": "uint256"
        }
      ],
      "stateMutability": "view",
      "type": "function"
    },
    {
      "inputs": [
        {
          "internalType": "address",
          "name": "_candidate",
          "type": "address"
        }
      ],
      "name": "isExistCandidate",
      "outputs": [
        {
          "internalType": "bool",
          "name": "isExist",
          "type": "bool"
        }
      ],
      "stateMutability": "view",
      "type": "function"
    }
  ],
  "bytecode": "0x608060405234801561001057600080fd5b50600061001b61006e565b600a80546001600160a01b0319166001600160a01b038316908117909155604051919250906000907f8be0079c531659141344cd1fd0a4f28419497f9722a3daafe3b4186f6b6457e0908290a350610072565b3390565b61314280620000826000396000f3fe608060405234801561001057600080fd5b50600436106102485760003560e01c8063715018a61161013b578063ad6675dc116100b8578063cf2a239c1161007c578063cf2a239c146104ae578063d10d2b50146104b6578063d1f0473f146104c9578063d525f04f146104dc578063f2fde38b146104ef57610248565b8063ad6675dc14610470578063b4f69b6a14610483578063b5dd115814610496578063c4ef9c001461049e578063cc48b947146104a657610248565b806389ea4300116100ff57806389ea4300146104275780638a2214e41461043a5780638da5cb5b1461044d5780639a62f61514610455578063a230c5241461045d57610248565b8063715018a6146103de5780637657f20a146103e6578063773b7f65146103f95780637a3d5468146104015780638287cc521461041457610248565b80634b799db1116101c95780635903bd6c1161018d5780635903bd6c146103955780635daf08ca1461039d5780635fba7a56146103b0578063651d08cd146103c35780636fb7f558146103d657610248565b80634b799db1146103365780634d288fec1461034957806355d1fe161461035c578063561a1dab1461036f57806357f0a8671461038257610248565b806327fd92fd1161021057806327fd92fd146102c65780632af60ff4146102db5780632e011c1e146102ee5780633477ee2e1461031057806349c39f141461032357610248565b806303e3c9ac1461024d578063047f52f21461026b57806311f19e0414610280578063216f486b146102a057806324f99b1e146102b3575b600080fd5b610255610502565b6040516102629190612ecb565b60405180910390f35b61027e61027936600461259e565b610508565b005b61029361028e36600461284f565b6105b1565b6040516102629190612a7e565b61027e6102ae36600461284f565b610735565b61027e6102c13660046128a0565b6109ce565b6102ce610cc7565b6040516102629190612990565b61027e6102e936600461259e565b610cd6565b6103016102fc36600461259e565b610d76565b60405161026293929190612a1d565b6102ce61031e36600461284f565b610da1565b61027e61033136600461259e565b610dcb565b61027e61034436600461259e565b610e6b565b61027e61035736600461259e565b610f0b565b61027e61036a36600461284f565b610fab565b61029361037d36600461259e565b611034565b610293610390366004612704565b611054565b6102ce611094565b6102ce6103ab36600461284f565b6110a3565b61027e6103be366004612793565b6110b3565b6102ce6103d136600461259e565b6113db565b6102ce6113f9565b61027e611408565b61027e6103f436600461259e565b6114aa565b61025561154a565b61027e61040f36600461287f565b611550565b61027e61042236600461284f565b611657565b61029361043536600461259e565b61183b565b61025561044836600461269c565b6118ef565b6102ce611a91565b610255611aa0565b61029361046b36600461259e565b611b49565b61025561047e36600461259e565b611b69565b61027e61049136600461284f565b611cbf565b6102ce611dc3565b610293611dd2565b6102ce611eab565b6102ce611eba565b61027e6104c436600461284f565b611ec9565b61027e6104d736600461284f565b611f98565b6102556104ea3660046125d6565b612067565b61027e6104fd36600461259e565b6121cb565b60085481565b6105106122c4565b600a546001600160a01b03908116911614610560576040805162461bcd60e51b81526020600482018190526024820152600080516020613065833981519152604482015290519081900360640190fd5b6001600160a01b03811661058f5760405162461bcd60e51b815260040161058690612d47565b60405180910390fd5b600380546001600160a01b0319166001600160a01b0392909216919091179055565b33600090815260096020526040812060085483106105e15760405162461bcd60e51b815260040161058690612aeb565b80546001600160a01b03166106085760405162461bcd60e51b815260040161058690612d6d565b60018101541561062a5760405162461bcd60e51b815260040161058690612d06565b60006007848154811061063957fe5b60009182526020909120015442600184015560028301859055600780546001600160a01b03909216925033918690811061066f57fe5b600091825260209091200180546001600160a01b0319166001600160a01b0392831617905581166106a557600192505050610730565b6106ae81611b69565b6106b733611b69565b116106d45760405162461bcd60e51b815260040161058690612a89565b6001600160a01b0381166000818152600960205260408082206001810183905560028101839055905190923392909188917f663b98adf1afa777e36528b3293a057803f87ed00d2d2518dccfe5d7a6e99ccf91a4600193505050505b919050565b6002546001600160a01b031661077c5760405162461bcd60e51b815260040180806020018281038252602c815260200180613085602c913960400191505060405180910390fd5b6002546040516377f28d5b60e01b81526001600160a01b03909116906377f28d5b906107ac908490600401612ecb565b60206040518083038186803b1580156107c457600080fd5b505afa1580156107d8573d6000803e3d6000fd5b505050506040513d601f19601f820116820180604052508101906107fc9190612773565b6108185760405162461bcd60e51b815260040161058690612c6e565b6002546040516373ba374560e01b815260009182916001600160a01b03909116906373ba37459061084d908690600401612ecb565b60006040518083038186803b15801561086557600080fd5b505afa158015610879573d6000803e3d6000fd5b505050506040513d6000823e601f3d908101601f191682016040526108a1919081019061260e565b915091506000826001600160a01b0316826040516108bf9190612974565b6000604051808303816000865af19150503d80600081146108fc576040519150601f19603f3d011682016040523d82523d6000602084013e610901565b606091505b50509050806109225760405162461bcd60e51b815260040161058690612e3e565b600254604051631b8c251960e11b81526001600160a01b03909116906337184a3290610952908790600401612ecb565b600060405180830381600087803b15801561096c57600080fd5b505af1158015610980573d6000803e3d6000fd5b5050505083336001600160a01b03167ffc605ddbe39f66ff9ccc194683bba02fc90a55799302672a9c5db17da2487bdc85856040516109c09291906129f9565b60405180910390a350505050565b6002546001600160a01b0316610a155760405162461bcd60e51b815260040180806020018281038252602c815260200180613085602c913960400191505060405180910390fd5b6000610a1f611aa0565b905060008111610a415760405162461bcd60e51b815260040161058690612e88565b600254604051637e77eb2360e01b81526001600160a01b0390911690637e77eb2390610a7590889033908990600401612ed4565b602060405180830381600087803b158015610a8f57600080fd5b505af1158015610aa3573d6000803e3d6000fd5b505050506040513d601f19601f82011682018060405250810190610ac79190612773565b50600254604051635772521560e11b8152600091829182916001600160a01b03169063aee4a42a90610afd908b90600401612ecb565b60606040518083038186803b158015610b1557600080fd5b505afa158015610b29573d6000803e3d6000fd5b505050506040513d601f19601f82011682018060405250810190610b4d91906128f1565b925092509250600081851015610bcb57600254604051632b0a851b60e11b81526001600160a01b03909116906356150a3690610b90908c90600390600401612ef3565b600060405180830381600087803b158015610baa57600080fd5b505af1158015610bbe573d6000803e3d6000fd5b5050505060019050610c76565b83851015610c0657600254604051632b0a851b60e11b81526001600160a01b03909116906356150a3690610b90908c90600190600401612ef3565b82851015610c765760028054604051632b0a851b60e11b81526001600160a01b03909116916356150a3691610c3f918d91600401612ef3565b600060405180830381600087803b158015610c5957600080fd5b505af1158015610c6d573d6000803e3d6000fd5b50505050600190505b88336001600160a01b03167ffa0761008653bc7bf9fa040fb7e07672ad3e17a976eb452c44e81dd782a6214b8a8a8a604051610cb493929190612f11565b60405180910390a3505050505050505050565b6002546001600160a01b031681565b610cde6122c4565b600a546001600160a01b03908116911614610d2e576040805162461bcd60e51b81526020600482018190526024820152600080516020613065833981519152604482015290519081900360640190fd5b6001600160a01b038116610d545760405162461bcd60e51b815260040161058690612d47565b600480546001600160a01b0319166001600160a01b0392909216919091179055565b6009602052600090815260409020805460018201546002909201546001600160a01b03909116919083565b60068181548110610db157600080fd5b6000918252602090912001546001600160a01b0316905081565b610dd36122c4565b600a546001600160a01b03908116911614610e23576040805162461bcd60e51b81526020600482018190526024820152600080516020613065833981519152604482015290519081900360640190fd5b6001600160a01b038116610e495760405162461bcd60e51b815260040161058690612d47565b600280546001600160a01b0319166001600160a01b0392909216919091179055565b610e736122c4565b600a546001600160a01b03908116911614610ec3576040805162461bcd60e51b81526020600482018190526024820152600080516020613065833981519152604482015290519081900360640190fd5b6001600160a01b038116610ee95760405162461bcd60e51b815260040161058690612d47565b600180546001600160a01b0319166001600160a01b0392909216919091179055565b610f136122c4565b600a546001600160a01b03908116911614610f63576040805162461bcd60e51b81526020600482018190526024820152600080516020613065833981519152604482015290519081900360640190fd5b6001600160a01b038116610f895760405162461bcd60e51b815260040161058690612d47565b600080546001600160a01b0319166001600160a01b0392909216919091179055565b610fb36122c4565b600a546001600160a01b03908116911614611003576040805162461bcd60e51b81526020600482018190526024820152600080516020613065833981519152604482015290519081900360640190fd5b80600854106110245760405162461bcd60e51b815260040161058690612b34565b60088190556110316122c8565b50565b6001600160a01b0390811660009081526009602052604090205416151590565b6000805b8281101561108d5761108484848381811061106f57fe5b9050602002016020810190610435919061259e565b50600101611058565b5092915050565b6001546001600160a01b031681565b60078181548110610db157600080fd5b6005546001600160a01b03166110fa5760405162461bcd60e51b815260040180806020018281038252602b8152602001806130e2602b913960400191505060405180910390fd5b6004546001600160a01b03166111415760405162461bcd60e51b815260040180806020018281038252602d815260200180613017602d913960400191505060405180910390fd5b6003546001600160a01b03166111885760405162461bcd60e51b81526004018080602001828103825260318152602001806130b16031913960400191505060405180910390fd5b61119133611034565b156111ae5760405162461bcd60e51b815260040161058690612dbe565b600354600554600480546040516337d5af5f60e01b81526000946001600160a01b03908116946337d5af5f946111f09433948a949384169390911691016129a4565b602060405180830381600087803b15801561120a57600080fd5b505af115801561121e573d6000803e3d6000fd5b505050506040513d601f19601f8201168201806040525081019061124291906125ba565b90506001600160a01b03811661126a5760405162461bcd60e51b815260040161058690612c1e565b60048054600554604051635e58d38f60e11b81526001600160a01b039283169363bcb1a71e9361129f938793911691016129df565b602060405180830381600087803b1580156112b957600080fd5b505af11580156112cd573d6000803e3d6000fd5b505050506040513d601f19601f820116820180604052508101906112f19190612773565b61130d5760405162461bcd60e51b815260040161058690612cb6565b336000908152600960205260409020546001600160a01b0316156113435760405162461bcd60e51b815260040161058690612b92565b604080516060810182526001600160a01b0383811682526000602080840182815284860183815233808552600990935292869020945185546001600160a01b0319169416939093178455915160018401555160029092019190915590517f7cf8db18d9a5c7f44156bfabdbb59ac982a8a004e461ca1b87ee71a5cdfbc5ef906113cf90849086906129f9565b60405180910390a25050565b6001600160a01b039081166000908152600960205260409020541690565b6005546001600160a01b031681565b6114106122c4565b600a546001600160a01b03908116911614611460576040805162461bcd60e51b81526020600482018190526024820152600080516020613065833981519152604482015290519081900360640190fd5b600a546040516000916001600160a01b0316907f8be0079c531659141344cd1fd0a4f28419497f9722a3daafe3b4186f6b6457e0908390a3600a80546001600160a01b0319169055565b6114b26122c4565b600a546001600160a01b03908116911614611502576040805162461bcd60e51b81526020600482018190526024820152600080516020613065833981519152604482015290519081900360640190fd5b6001600160a01b0381166115285760405162461bcd60e51b815260040161058690612d47565b600580546001600160a01b0319166001600160a01b0392909216919091179055565b60065490565b6115586122c4565b600a546001600160a01b039081169116146115a8576040805162461bcd60e51b81526020600482018190526024820152600080516020613065833981519152604482015290519081900360640190fd5b6002546001600160a01b03166115ef5760405162461bcd60e51b815260040180806020018281038252602c815260200180613085602c913960400191505060405180910390fd5b600254604051630f47aa8d60e31b81526001600160a01b0390911690637a3d5468906116219085908590600401612f34565b600060405180830381600087803b15801561163b57600080fd5b505af115801561164f573d6000803e3d6000fd5b505050505050565b61165f6122c4565b600a546001600160a01b039081169116146116af576040805162461bcd60e51b81526020600482018190526024820152600080516020613065833981519152604482015290519081900360640190fd5b6000600782815481106116be57fe5b60009182526020808320909101546001600160a01b0316808352600990915260409091206007549192509060001901831461177b576007805460009190600019810190811061170957fe5b60009182526020808320909101546001600160a01b031680835260099091526040909120600281018690556007805492935090918391908790811061174a57fe5b9060005260206000200160006101000a8154816001600160a01b0302191690836001600160a01b0316021790555050505b6000600182018190556002820155600780548061179457fe5b600082815260209020810160001990810180546001600160a01b03191690550190556008546117c490600161231d565b6008556040516000906001600160a01b0384169085907f663b98adf1afa777e36528b3293a057803f87ed00d2d2518dccfe5d7a6e99ccf908490a460085461180d816001612366565b6040517f8c0366d1e3a335a312d012257ee764723c38ec2dd5e74cbfad372513521f977190600090a3505050565b6001600160a01b03808216600090815260096020526040812054909116806118755760405162461bcd60e51b815260040161058690612be7565b806001600160a01b031663764a78566040518163ffffffff1660e01b8152600401602060405180830381600087803b1580156118b057600080fd5b505af11580156118c4573d6000803e3d6000fd5b505050506040513d601f19601f820116820180604052508101906118e89190612773565b5050919050565b6002546000906001600160a01b03166119395760405162461bcd60e51b815260040180806020018281038252602c815260200180613085602c913960400191505060405180910390fd5b600254604051630f07905160e31b81526000916001600160a01b03169063783c828890611974908a908a908a9087908b908b90600401612a3e565b602060405180830381600087803b15801561198e57600080fd5b505af11580156119a2573d6000803e3d6000fd5b505050506040513d601f19601f820116820180604052508101906119c69190612867565b600254604051636f35e9c360e11b81529192506001600160a01b03808a1692849233927f16f81ca4f9dcc6a3a1746a2e245187cfe4272a7a4ae5feb74d661eea65a11e319291169063de6bd38690611a22908690600401612ecb565b60206040518083038186803b158015611a3a57600080fd5b505afa158015611a4e573d6000803e3d6000fd5b505050506040513d601f19601f82011682018060405250810190611a729190612867565b604051611a7f9190612ecb565b60405180910390a49695505050505050565b600a546001600160a01b031690565b600254604080516302e0740360e31b8152815160009384936001600160a01b0390911692631703a0189260048083019392829003018186803b158015611ae557600080fd5b505afa158015611af9573d6000803e3d6000fd5b505050506040513d601f19601f82011682018060405250810190611b1d9190612807565b600754602082015182519293509091611b429190611b3c9084906123c0565b90612419565b9250505090565b6001600160a01b0316600090815260096020526040902060010154151590565b600080611b75836113db565b90506001600160a01b038116611b9d5760405162461bcd60e51b815260040161058690612ab4565b600554604051634c063c1960e01b81526000916001600160a01b031690634c063c1990611bce908590600401612990565b60206040518083038186803b158015611be657600080fd5b505afa158015611bfa573d6000803e3d6000fd5b505050506040513d601f19601f82011682018060405250810190611c1e91906125ba565b90506001600160a01b038116611c465760405162461bcd60e51b815260040161058690612e07565b806001600160a01b03166318160ddd6040518163ffffffff1660e01b815260040160206040518083038186803b158015611c7f57600080fd5b505afa158015611c93573d6000803e3d6000fd5b505050506040513d601f19601f82011682018060405250810190611cb79190612867565b949350505050565b611cc76122c4565b600a546001600160a01b03908116911614611d17576040805162461bcd60e51b81526020600482018190526024820152600080516020613065833981519152604482015290519081900360640190fd5b6002546001600160a01b0316611d5e5760405162461bcd60e51b815260040180806020018281038252602c815260200180613085602c913960400191505060405180910390fd5b600254604051635a7b4db560e11b81526001600160a01b039091169063b4f69b6a90611d8e908490600401612ecb565b600060405180830381600087803b158015611da857600080fd5b505af1158015611dbc573d6000803e3d6000fd5b5050505050565b6003546001600160a01b031681565b600033611dde81611b49565b611e195760405162461bcd60e51b8152600401808060200182810382526023815260200180612ff46023913960400191505060405180910390fd5b3360009081526009602052604081206002810154600780549293929091908110611e3f57fe5b6000918252602082200180546001600160a01b0319166001600160a01b0393909316929092179091556001820181905560028201546040513391907f663b98adf1afa777e36528b3293a057803f87ed00d2d2518dccfe5d7a6e99ccf908490a460006002909101555090565b6000546001600160a01b031681565b6004546001600160a01b031681565b611ed16122c4565b600a546001600160a01b03908116911614611f21576040805162461bcd60e51b81526020600482018190526024820152600080516020613065833981519152604482015290519081900360640190fd5b6002546001600160a01b0316611f685760405162461bcd60e51b815260040180806020018281038252602c815260200180613085602c913960400191505060405180910390fd5b600254604051630d10d2b560e41b81526001600160a01b039091169063d10d2b5090611d8e908490600401612ecb565b611fa06122c4565b600a546001600160a01b03908116911614611ff0576040805162461bcd60e51b81526020600482018190526024820152600080516020613065833981519152604482015290519081900360640190fd5b6002546001600160a01b03166120375760405162461bcd60e51b815260040180806020018281038252602c815260200180613085602c913960400191505060405180910390fd5b60025460405163d1f0473f60e01b81526001600160a01b039091169063d1f0473f90611d8e908490600401612ecb565b600080612073846113db565b90506001600160a01b03811661209b5760405162461bcd60e51b815260040161058690612ab4565b600554604051634c063c1960e01b81526000916001600160a01b031690634c063c19906120cc908590600401612990565b60206040518083038186803b1580156120e457600080fd5b505afa1580156120f8573d6000803e3d6000fd5b505050506040513d601f19601f8201168201806040525081019061211c91906125ba565b90506001600160a01b0381166121445760405162461bcd60e51b815260040161058690612e07565b6040516370a0823160e01b81526001600160a01b038216906370a0823190612170908790600401612990565b60206040518083038186803b15801561218857600080fd5b505afa15801561219c573d6000803e3d6000fd5b505050506040513d601f19601f820116820180604052508101906121c09190612867565b925050505b92915050565b6121d36122c4565b600a546001600160a01b03908116911614612223576040805162461bcd60e51b81526020600482018190526024820152600080516020613065833981519152604482015290519081900360640190fd5b6001600160a01b0381166122685760405162461bcd60e51b8152600401808060200182810382526026815260200180612fce6026913960400191505060405180910390fd5b600a546040516001600160a01b038084169216907f8be0079c531659141344cd1fd0a4f28419497f9722a3daafe3b4186f6b6457e090600090a3600a80546001600160a01b0319166001600160a01b0392909216919091179055565b3390565b6007545b6008548110156110315760078054600181810183556000929092527fa66cc928b5edb82af9bd49922954155ab7b0942694bea4ce44661d9a8736c6880180546001600160a01b0319169055016122cc565b600061235f83836040518060400160405280601e81526020017f536166654d6174683a207375627472616374696f6e206f766572666c6f77000081525061245b565b9392505050565b60008282018381101561235f576040805162461bcd60e51b815260206004820152601b60248201527f536166654d6174683a206164646974696f6e206f766572666c6f770000000000604482015290519081900360640190fd5b6000826123cf575060006121c5565b828202828482816123dc57fe5b041461235f5760405162461bcd60e51b81526004018080602001828103825260218152602001806130446021913960400191505060405180910390fd5b600061235f83836040518060400160405280601a81526020017f536166654d6174683a206469766973696f6e206279207a65726f0000000000008152506124f2565b600081848411156124ea5760405162461bcd60e51b81526004018080602001828103825283818151815260200191508051906020019080838360005b838110156124af578181015183820152602001612497565b50505050905090810190601f1680156124dc5780820380516001836020036101000a031916815260200191505b509250505060405180910390fd5b505050900390565b600081836125415760405162461bcd60e51b81526020600482018181528351602484015283519092839260449091019190850190808383600083156124af578181015183820152602001612497565b50600083858161254d57fe5b0495945050505050565b60008083601f840112612568578182fd5b50813567ffffffffffffffff81111561257f578182fd5b60208301915083602082850101111561259757600080fd5b9250929050565b6000602082840312156125af578081fd5b813561235f81612fb8565b6000602082840312156125cb578081fd5b815161235f81612fb8565b600080604083850312156125e8578081fd5b82356125f381612fb8565b9150602083013561260381612fb8565b809150509250929050565b60008060408385031215612620578182fd5b825161262b81612fb8565b602084015190925067ffffffffffffffff811115612647578182fd5b8301601f81018513612657578182fd5b805161266a61266582612f66565b612f42565b81815286602083850101111561267e578384fd5b61268f826020830160208601612f88565b8093505050509250929050565b6000806000806000608086880312156126b3578081fd5b85356126be81612fb8565b94506020860135935060408601359250606086013567ffffffffffffffff8111156126e7578182fd5b6126f388828901612557565b969995985093965092949392505050565b60008060208385031215612716578182fd5b823567ffffffffffffffff8082111561272d578384fd5b818501915085601f830112612740578384fd5b81358181111561274e578485fd5b8660208083028501011115612761578485fd5b60209290920196919550909350505050565b600060208284031215612784578081fd5b8151801515811461235f578182fd5b6000602082840312156127a4578081fd5b813567ffffffffffffffff8111156127ba578182fd5b8201601f810184136127ca578182fd5b80356127d861266582612f66565b8181528560208385010111156127ec578384fd5b81602084016020830137908101602001929092525092915050565b600060408284031215612818578081fd5b6040516040810181811067ffffffffffffffff8211171561283557fe5b604052825181526020928301519281019290925250919050565b600060208284031215612860578081fd5b5035919050565b600060208284031215612878578081fd5b5051919050565b60008060408385031215612891578182fd5b50508035926020909101359150565b600080600080606085870312156128b5578182fd5b8435935060208501359250604085013567ffffffffffffffff8111156128d9578283fd5b6128e587828801612557565b95989497509550505050565b600080600060608486031215612905578081fd5b8351925060208401519150604084015190509250925092565b60008284528282602086013780602084860101526020601f19601f85011685010190509392505050565b60008151808452612960816020860160208601612f88565b601f01601f19169290920160200192915050565b60008251612986818460208701612f88565b9190910192915050565b6001600160a01b0391909116815260200190565b600060018060a01b038087168352608060208401526129c66080840187612948565b9481166040840152929092166060909101525092915050565b6001600160a01b0392831681529116602082015260400190565b6001600160a01b0383168152604060208201819052600090611cb790830184612948565b6001600160a01b039390931683526020830191909152604082015260600190565b600060018060a01b038816825286602083015285604083015284606083015260a06080830152612a7260a08301848661291e565b98975050505050505050565b901515815260200190565b6020808252601190820152701b9bdd08195b9bdd59da08185b5bdd5b9d607a1b604082015260600190565b6020808252601f908201527f54686973206163636f756e74206973206e6f7420612063616e64696461746500604082015260600190565b60208082526029908201527f44414f436f6d6d697474656553746f72653a20696e646578206973206e6f7420604082015268617661696c61626c6560b81b606082015260800190565b602080825260409082018190527f44414f436f6d6d697474656553746f72653a20596f75206861766520746f2063908201527f616c6c207265647563654d656d626572536c6f7420746f206465637265617365606082015260800190565b60208082526035908201527f44414f436f6d6d697474656553746f72653a205468652063616e64696461746560408201527408185b1c9958591e481a185cc818dbdb9d1c9858dd605a1b606082015260800190565b6020808252601d908201527f44414f436f6d6d69747465653a206e6f7420612063616e646964617465000000604082015260600190565b60208082526030908201527f44414f436f6d6d69747465653a206465706c6f7965642063616e64696461746560408201526f436f6e7472616374206973207a65726f60801b606082015260800190565b60208082526028908201527f44414f436f6d6d69747465653a2063616e206e6f74206578656375746520746860408201526765206167656e646160c01b606082015260800190565b60208082526030908201527f44414f436f6d6d69747465653a206661696c656420746f20726567697374657260408201526f416e644465706c6f79436f696e61676560801b606082015260800190565b60208082526021908201527f44414f436f6d6d697474656553746f72653a20616c7265616479206d656d62656040820152603960f91b606082015260800190565b6020808252600c908201526b7a65726f206164647265737360a01b604082015260600190565b60208082526031908201527f44414f436f6d6d697474656553746f72653a205468652061646472657373206960408201527073206e6f7420612063616e64696461746560781b606082015260800190565b60208082526029908201527f44414f436f6d6d69747465653a2063616e64696461746520616c7265616479206040820152681c9959da5cdd195c9960ba1b606082015260800190565b6020808252601d908201527f44414f436f6d6d69747465653a20636f696e616765206973207a65726f000000604082015260600190565b6020808252602a908201527f44414f436f6d6d69747465653a204661696c656420746f206578656375746520604082015269746865206167656e646160b01b606082015260800190565b60208082526023908201527f44414f436f6d6d69747465653a207265717569726564566f746573206973207a60408201526265726f60e81b606082015260800190565b90815260200190565b9283526001600160a01b03919091166020830152604082015260600190565b8281526040810160048310612f0457fe5b8260208301529392505050565b600084825260406020830152612f2b60408301848661291e565b95945050505050565b918252602082015260400190565b60405181810167ffffffffffffffff81118282101715612f5e57fe5b604052919050565b600067ffffffffffffffff821115612f7a57fe5b50601f01601f191660200190565b60005b83811015612fa3578181015183820152602001612f8b565b83811115612fb2576000848401525b50505050565b6001600160a01b038116811461103157600080fdfe4f776e61626c653a206e6577206f776e657220697320746865207a65726f206164647265737353746f726167655374617465436f6d6d69747465653a206e6f742061206d656d62657253746f726167655374617465436f6d6d69747465653a20756e76616c6964204c61796572325265676973747279536166654d6174683a206d756c7469706c69636174696f6e206f766572666c6f774f776e61626c653a2063616c6c6572206973206e6f7420746865206f776e657253746f726167655374617465436f6d6d69747465653a204167656e64614d616e61676572206973207a65726f53746f726167655374617465436f6d6d69747465653a20756e76616c696420436f6d6d69747465654c32466163746f727953746f726167655374617465436f6d6d69747465653a20756e76616c696420536569674d616e6167657265a2646970667358221220350b56addbda62fe1f83e3b62c1d5db09c863c157515d0cc43db2f9640f2dccb64736f6c63430007060033",
  "immutableReferences": {},
  "source": "// SPDX-License-Identifier: MIT\npragma solidity ^0.7.6;\npragma abicoder v2;\n\nimport \"../../node_modules/@openzeppelin/contracts/access/Ownable.sol\";\nimport \"./StorageStateCommittee.sol\";\n\nimport { SafeMath } from \"../../node_modules/@openzeppelin/contracts/math/SafeMath.sol\";\nimport { IERC20 } from  \"../../node_modules/@openzeppelin/contracts/token/ERC20/IERC20.sol\";\nimport { ICandidate } from \"../interfaces/ICandidate.sol\";\nimport { IDAOAgendaManager } from \"../interfaces/IDAOAgendaManager.sol\";\nimport { LibAgenda } from \"../lib/Agenda.sol\";\n\ncontract DAOCommittee is StorageStateCommittee, Ownable {\n    using SafeMath for uint256;\n    using LibAgenda for *;\n     \n    enum ApplyResult { NONE, SUCCESS, NOT_ELECTION, ALREADY_COMMITTEE, SLOT_INVALID, ADDMEMBER_FAIL, LOW_BALANCE }\n\n    //////////////////////////////\n    // Events\n    //////////////////////////////\n\n    event AgendaCreated(\n        address indexed from,\n        uint256 indexed id,\n        address indexed target,\n        uint256 noticeEndTimestamp\n    );\n\n    event AgendaVoteCasted(\n        address indexed from,\n        uint256 indexed id,\n        uint voting,\n        string comment\n    );\n\n    event AgendaExecuted(\n        address indexed from,\n        uint256 indexed id,\n        address target,\n        bytes functionBytecode\n    );\n\n    event CandidateContractCreated(\n        address indexed candidate,\n        address candidateContract,\n        string memo\n    );\n\n    event ChangedMember(\n        uint256 indexed slotIndex,\n        address indexed prevMember,\n        address indexed newMember\n    );\n\n    event ChangedSlotMaximum(\n        uint256 indexed prevSlotMax,\n        uint256 indexed slotMax\n    );\n\n    //////////////////////////////////////////////////////////////////////\n    // setters\n\n    function setSeigManager(address _agendaManager) public onlyOwner {\n        require(_agendaManager != address(0), \"zero address\");\n        seigManager = ISeigManager(_agendaManager);\n    }\n     \n    function setDaoVault(address _daoVault) public onlyOwner {\n        require(_daoVault != address(0), \"zero address\");\n        daoVault = _daoVault;\n    }\n\n    /*function setActivityRewardManager(address _activityRewardManager) public onlyOwner {\n        require(_activityRewardManager != address(0), \"zero address\");\n        activityRewardManager = IDAOActivityRewardManager(_activityRewardManager);\n    }*/\n\n    function setLayer2Registry(address _layer2Registry) public onlyOwner {\n        require(_layer2Registry != address(0), \"zero address\");\n        layer2Registry = ILayer2Registry(_layer2Registry);\n    }\n\n    function setAgendaManager(address _agendaManager) public onlyOwner {\n        require(_agendaManager != address(0), \"zero address\");\n        agendaManager = IDAOAgendaManager(_agendaManager);\n    }\n\n    function setCandidateFactory(address _candidateFactory) public onlyOwner {\n        require(_candidateFactory != address(0), \"zero address\");\n        candidateFactory = ICandidateFactory(_candidateFactory);\n    }\n\n    function setTon(address _ton) public onlyOwner {\n        require(_ton != address(0), \"zero address\");\n        ton = _ton;\n    }\n\n    //////////////////////////////////////////////////////////////////////\n    // Managing members\n\n    function setMaxMember(uint256 _maxMember) onlyOwner public {\n        require(maxMember < _maxMember, \"DAOCommitteeStore: You have to call reduceMemberSlot to decrease\");\n        maxMember = _maxMember;\n        fillMemberSlot();\n    }\n\n    function createCandidate(string memory _memo)\n        public\n        validSeigManager\n        validLayer2Registry\n        validCommitteeL2Factory\n    {\n        require(!isExistCandidate(msg.sender), \"DAOCommittee: candidate already registerd\");\n          \n        // Candidate\n        address candidateContract = candidateFactory.deploy(msg.sender, _memo, address(seigManager), address(layer2Registry));\n        require(\n            candidateContract != address(0),\n            \"DAOCommittee: deployed candidateContract is zero\"\n        );\n        require(\n            layer2Registry.registerAndDeployCoinage(candidateContract, address(seigManager)),\n            \"DAOCommittee: failed to registerAndDeployCoinage\"\n        );\n        require(\n            candidateInfos[msg.sender].candidateContract == address(0),\n            \"DAOCommitteeStore: The candidate already has contract\"\n        );\n\n        candidateInfos[msg.sender] = CandidateInfo({\n            candidateContract: candidateContract,\n            memberJoinedTime: 0,\n            indexMembers: 0\n        });\n       \n        emit CandidateContractCreated(msg.sender, candidateContract, _memo);\n    }\n\n    function changeMember(uint256 _memberIndex)\n        public\n        returns (bool)\n    {\n        CandidateInfo storage candidateInfo = candidateInfos[msg.sender];\n        require(\n            _memberIndex < maxMember,\n            \"DAOCommitteeStore: index is not available\"\n        );\n        require(\n            candidateInfo.candidateContract != address(0),\n            \"DAOCommitteeStore: The address is not a candidate\"\n        );\n        require(\n            candidateInfo.memberJoinedTime == 0,\n            \"DAOCommitteeStore: already member\"\n        );\n        \n        address prevMember = members[_memberIndex];\n\n        candidateInfo.memberJoinedTime = block.timestamp;\n        candidateInfo.indexMembers = _memberIndex;\n\n        members[_memberIndex] = msg.sender;\n\n        if (prevMember == address(0)) {\n            return true;\n        }\n\n        require(\n            totalSupplyOnCandidate(msg.sender) > totalSupplyOnCandidate(prevMember),\n            \"not enough amount\"\n        );\n\n        CandidateInfo storage prevCandidate = candidateInfos[prevMember];\n        prevCandidate.memberJoinedTime = 0;\n        prevCandidate.indexMembers = 0;\n\n        emit ChangedMember(_memberIndex, prevMember, msg.sender);\n\n        return true;\n    }\n    \n    function retireMember() onlyMember(msg.sender) public returns (bool) {\n        CandidateInfo storage candidateInfo = candidateInfos[msg.sender];\n        members[candidateInfo.indexMembers] = address(0);\n        candidateInfo.memberJoinedTime = 0;\n\n        emit ChangedMember(candidateInfo.indexMembers, msg.sender, address(0));\n\n        candidateInfo.indexMembers = 0;\n    }\n\n    function reduceMemberSlot(uint256 _reducingMemberIndex) public onlyOwner {\n        address reducingMember = members[_reducingMemberIndex];\n        CandidateInfo storage reducingCandidate = candidateInfos[reducingMember];\n\n        if (_reducingMemberIndex != members.length - 1) {\n            address tailmember = members[members.length - 1];\n            CandidateInfo storage tailCandidate = candidateInfos[tailmember];\n\n            tailCandidate.indexMembers = _reducingMemberIndex;\n            members[_reducingMemberIndex] = tailmember;\n        }\n        reducingCandidate.memberJoinedTime = 0;\n        reducingCandidate.indexMembers = 0;\n\n        members.pop();\n        maxMember = maxMember.sub(1);\n\n        emit ChangedMember(_reducingMemberIndex, reducingMember, address(0));\n        emit ChangedSlotMaximum(maxMember.add(1), maxMember);\n    }\n\n    //////////////////////////////////////////////////////////////////////\n    // Managing agenda\n\n    function setMinimunNoticePeriodSeconds(\n        uint256 _minimunNoticePeriod\n    )\n        public\n        onlyOwner\n        validAgendaManager\n    {\n        agendaManager.setMinimunNoticePeriodSeconds(_minimunNoticePeriod);\n    }\n\n    function setMinimunVotingPeriodSeconds(\n        uint256 _minimunVotingPeriod\n    )\n        public\n        onlyOwner\n        validAgendaManager\n    {\n        agendaManager.setMinimunVotingPeriodSeconds(_minimunVotingPeriod);\n    }\n\n    function setQuorum(\n        uint256 _quorumNumerator,\n        uint256 _quorumDenominator\n    )\n        public\n        onlyOwner\n        validAgendaManager\n    {\n        agendaManager.setQuorum(_quorumNumerator, _quorumDenominator);\n    }\n\n    function setCreateAgendaFees(\n        uint256 _fees\n    )\n        public\n        onlyOwner\n        validAgendaManager\n    {\n        agendaManager.setCreateAgendaFees(_fees);\n    }\n   \n    function createAgenda(\n        address _target,\n        uint256 _noticePeriodSeconds,\n        uint256 _votingPeriodSeconds,\n        bytes calldata _functionBytecode\n    )\n        public\n        validAgendaManager\n        //validActivityRewardManager\n        returns (uint256)\n    {\n        // TODO: pay ton\n        // pay to create agenda, burn ton.\n         \n        //uint256 reward = activityRewardManager.calculateActivityFees();\n        uint256 agendaID = agendaManager.newAgenda(\n            _target,\n            _noticePeriodSeconds,\n            _votingPeriodSeconds,\n            0,\n            _functionBytecode\n        );\n          \n        emit AgendaCreated(\n            msg.sender,\n            agendaID,\n            _target,\n            agendaManager.getAgendaNoticeEndTimeSeconds(agendaID)\n        );\n\n        return agendaID;\n    }\n    \n    function castVote(\n        uint256 _agendaID,\n        uint _vote,\n        string calldata _comment\n    )\n        public \n        validAgendaManager\n    {\n        uint256 requiredVotes = requiredVotesToPass();\n        require(requiredVotes > 0, \"DAOCommittee: requiredVotes is zero\");\n        \n        agendaManager.castVote(\n            _agendaID,\n            msg.sender,\n            _vote\n        );\n\n        (uint256 yes, uint256 no, uint256 abstain) = agendaManager.getVotingCount(_agendaID);\n\n        // TODO: combine no and abstain\n        bool changedResult = false;\n        if (requiredVotes < abstain) {\n            agendaManager.setResult(_agendaID, LibAgenda.AgendaResult.DISMISS);\n            changedResult = true;\n        } else if (requiredVotes < yes) {\n            agendaManager.setResult(_agendaID, LibAgenda.AgendaResult.ACCEPT);\n            changedResult = true;\n        } else if (requiredVotes < no) {\n            agendaManager.setResult(_agendaID, LibAgenda.AgendaResult.REJECT);\n            changedResult = true;\n        }\n\n        if (changedResult) {\n            // TODO:\n            //agendaManager.agendaStepNext(_agendaID);\n        }\n        \n        emit AgendaVoteCasted(msg.sender, _agendaID, _vote, _comment);\n    }\n\n    function executeAgenda(uint256 _agendaID) public validAgendaManager {\n        require(\n            agendaManager.canExecuteAgenda(_agendaID),\n            \"DAOCommittee: can not execute the agenda\"\n        );\n        \n        (address target, bytes memory functionBytecode) = agendaManager.getExecutionInfo(_agendaID);\n       \n        (bool success, ) = address(target).call(functionBytecode);\n        require(success, \"DAOCommittee: Failed to execute the agenda\");\n         \n        agendaManager.setExecutedAgenda(_agendaID);\n\n        emit AgendaExecuted(msg.sender, _agendaID, target, functionBytecode);\n    }\n     \n    function updateSeigniorage(address _candidate) public returns (bool) {\n        address candidateContract = candidateInfos[_candidate].candidateContract;\n        require(candidateContract != address(0), \"DAOCommittee: not a candidate\");\n        ICandidate(candidateContract).updateSeigniorage();\n\n        //emit CommitteeUpdateSeigniorage(msg.sender);\n    }\n\n    function updateSeigniorages(address[] calldata _candidates) public returns (bool) {\n        for (uint256 i = 0; i < _candidates.length; i++) {\n            updateSeigniorage(_candidates[i]);\n        }\n    }\n\n    function fillMemberSlot() internal {\n        for (uint256 i = members.length; i < maxMember; i++) {\n            members.push(address(0));\n        }\n    }\n\n    function requiredVotesToPass()\n        public\n        view\n        returns (uint256 requiredVotes)\n    {\n        IDAOAgendaManager.Ratio memory quorum = agendaManager.quorum();\n        uint256 total = members.length;\n        requiredVotes = total.mul(quorum.numerator).div(quorum.denominator);\n    }\n    \n    function totalSupplyOnCandidate(\n        address _candidate\n    )\n        public\n        view\n        returns (uint256 totalsupply)\n    {\n        address candidateContract = candidateContract(_candidate);\n        require(candidateContract != address(0), \"This account is not a candidate\");\n\n        address coinage = seigManager.coinages(candidateContract);\n        require(coinage != address(0), \"DAOCommittee: coinage is zero\");\n        return IERC20(coinage).totalSupply();\n    }\n\n    function balanceOfOnCandidate(\n        address _candidate,\n        address account\n    )\n        public\n        view\n        returns (uint256 amount)\n    {\n        address candidateContract = candidateContract(_candidate);\n        require(candidateContract != address(0), \"This account is not a candidate\");\n\n        address coinage = seigManager.coinages(candidateContract);\n        require(coinage != address(0), \"DAOCommittee: coinage is zero\");\n        return IERC20(coinage).balanceOf(account);\n    }\n    \n    function candidatesLength() public view returns (uint256) {\n        return candidates.length;\n    }\n\n    function isExistCandidate(address _candidate) public view returns (bool isExist) {\n        return candidateInfos[_candidate].candidateContract != address(0);\n    }\n\n    /*function candidateContract(address _candidate) public view returns (address) {\n        return candidateInfos[_candidate].candidateContract;\n    }*/\n\n}\n",
  "sourcePath": "/Users/sgnoo/Workspace/tokamak-dao-contracts/contracts/dao/DAOCommittee.sol",
  "compiler": {
    "name": "solc",
    "version": "0.7.6+commit.7338295f.Emscripten.clang"
  },
  "schemaVersion": "3.3.1",
  "updatedAt": "2021-01-06T08:41:25.512Z",
  "devdoc": {
    "kind": "dev",
    "methods": {
      "owner()": {
        "details": "Returns the address of the current owner."
      },
      "renounceOwnership()": {
        "details": "Leaves the contract without owner. It will not be possible to call `onlyOwner` functions anymore. Can only be called by the current owner. NOTE: Renouncing ownership will leave the contract without an owner, thereby removing any functionality that is only available to the owner."
      },
      "transferOwnership(address)": {
        "details": "Transfers ownership of the contract to a new account (`newOwner`). Can only be called by the current owner."
      }
    },
    "version": 1
  },
  "userdoc": {
    "kind": "user",
    "methods": {},
    "version": 1
  }
}