{
  "contractName": "DAOVault2",
  "abi": [
    {
      "inputs": [
        {
          "internalType": "address",
          "name": "_ton",
          "type": "address"
        }
      ],
      "stateMutability": "nonpayable",
      "type": "constructor"
    },
    {
      "anonymous": false,
      "inputs": [
        {
          "indexed": true,
          "internalType": "address",
          "name": "previousOwner",
          "type": "address"
        },
        {
          "indexed": true,
          "internalType": "address",
          "name": "newOwner",
          "type": "address"
        }
      ],
      "name": "OwnershipTransferred",
      "type": "event"
    },
    {
      "anonymous": false,
      "inputs": [
        {
          "indexed": false,
          "internalType": "address",
          "name": "from",
          "type": "address"
        },
        {
          "indexed": false,
          "internalType": "uint256",
          "name": "amount",
          "type": "uint256"
        },
        {
          "indexed": false,
          "internalType": "bool",
          "name": "result",
          "type": "bool"
        }
      ],
      "name": "TransferActivityFeeManager",
      "type": "event"
    },
    {
      "anonymous": false,
      "inputs": [
        {
          "indexed": false,
          "internalType": "address",
          "name": "from",
          "type": "address"
        },
        {
          "indexed": false,
          "internalType": "uint256",
          "name": "amount",
          "type": "uint256"
        }
      ],
      "name": "TransferCommittee",
      "type": "event"
    },
    {
      "anonymous": false,
      "inputs": [
        {
          "indexed": false,
          "internalType": "address",
          "name": "token",
          "type": "address"
        },
        {
          "indexed": false,
          "internalType": "address",
          "name": "from",
          "type": "address"
        },
        {
          "indexed": false,
          "internalType": "uint256",
          "name": "amount",
          "type": "uint256"
        }
      ],
      "name": "TransferErc20",
      "type": "event"
    },
    {
      "inputs": [],
      "name": "daoActivityRewardManager",
      "outputs": [
        {
          "internalType": "address",
          "name": "",
          "type": "address"
        }
      ],
      "stateMutability": "view",
      "type": "function"
    },
    {
      "inputs": [],
      "name": "daoCommittee",
      "outputs": [
        {
          "internalType": "address",
          "name": "",
          "type": "address"
        }
      ],
      "stateMutability": "view",
      "type": "function"
    },
    {
      "inputs": [],
      "name": "owner",
      "outputs": [
        {
          "internalType": "address",
          "name": "",
          "type": "address"
        }
      ],
      "stateMutability": "view",
      "type": "function"
    },
    {
      "inputs": [],
      "name": "renounceOwnership",
      "outputs": [],
      "stateMutability": "nonpayable",
      "type": "function"
    },
    {
      "inputs": [],
      "name": "ton",
      "outputs": [
        {
          "internalType": "address",
          "name": "",
          "type": "address"
        }
      ],
      "stateMutability": "view",
      "type": "function"
    },
    {
      "inputs": [
        {
          "internalType": "address",
          "name": "newOwner",
          "type": "address"
        }
      ],
      "name": "transferOwnership",
      "outputs": [],
      "stateMutability": "nonpayable",
      "type": "function"
    },
    {
      "inputs": [
        {
          "internalType": "address",
          "name": "_ton",
          "type": "address"
        }
      ],
      "name": "setTON",
      "outputs": [],
      "stateMutability": "nonpayable",
      "type": "function"
    },
    {
      "inputs": [
        {
          "internalType": "address",
          "name": "_addr",
          "type": "address"
        }
      ],
      "name": "setDaoCommittee",
      "outputs": [],
      "stateMutability": "nonpayable",
      "type": "function"
    },
    {
      "inputs": [
        {
          "internalType": "address",
          "name": "_addr",
          "type": "address"
        }
      ],
      "name": "setDAOActivityFeeManager",
      "outputs": [],
      "stateMutability": "nonpayable",
      "type": "function"
    },
    {
      "inputs": [
        {
          "internalType": "uint256",
          "name": "amount",
          "type": "uint256"
        }
      ],
      "name": "approveTonDao",
      "outputs": [],
      "stateMutability": "nonpayable",
      "type": "function"
    },
    {
      "inputs": [
        {
          "internalType": "uint256",
          "name": "amount",
          "type": "uint256"
        }
      ],
      "name": "approveTonDaoCommittee",
      "outputs": [],
      "stateMutability": "nonpayable",
      "type": "function"
    },
    {
      "inputs": [
        {
          "internalType": "uint256",
          "name": "amount",
          "type": "uint256"
        }
      ],
      "name": "approveTonDAOActivityFeeManager",
      "outputs": [],
      "stateMutability": "nonpayable",
      "type": "function"
    },
    {
      "inputs": [
        {
          "internalType": "address",
          "name": "to",
          "type": "address"
        },
        {
          "internalType": "uint256",
          "name": "amount",
          "type": "uint256"
        }
      ],
      "name": "approveTon",
      "outputs": [],
      "stateMutability": "nonpayable",
      "type": "function"
    },
    {
      "inputs": [
        {
          "internalType": "address",
          "name": "committee",
          "type": "address"
        },
        {
          "internalType": "uint256",
          "name": "amount",
          "type": "uint256"
        }
      ],
      "name": "claimCommittee",
      "outputs": [
        {
          "internalType": "uint256",
          "name": "",
          "type": "uint256"
        }
      ],
      "stateMutability": "nonpayable",
      "type": "function"
    },
    {
      "inputs": [
        {
          "internalType": "address",
          "name": "user",
          "type": "address"
        },
        {
          "internalType": "uint256",
          "name": "amount",
          "type": "uint256"
        }
      ],
      "name": "claimActivityFeeManager",
      "outputs": [
        {
          "internalType": "bool",
          "name": "",
          "type": "bool"
        }
      ],
      "stateMutability": "nonpayable",
      "type": "function"
    },
    {
      "inputs": [
        {
          "internalType": "address",
          "name": "erc20token",
          "type": "address"
        },
        {
          "internalType": "address",
          "name": "to",
          "type": "address"
        },
        {
          "internalType": "uint256",
          "name": "amount",
          "type": "uint256"
        }
      ],
      "name": "transfer",
      "outputs": [],
      "stateMutability": "nonpayable",
      "type": "function"
    }
  ],
  "bytecode": "0x608060405234801561001057600080fd5b5060405161118b38038061118b8339818101604052602081101561003357600080fd5b5051600061003f6100ae565b600080546001600160a01b0319166001600160a01b0383169081178255604051929350917f8be0079c531659141344cd1fd0a4f28419497f9722a3daafe3b4186f6b6457e0908290a350600180546001600160a01b0319166001600160a01b03929092169190911790556100b2565b3390565b6110ca806100c16000396000f3fe608060405234801561001057600080fd5b50600436106101005760003560e01c8063beabacc811610097578063ee3cad8111610066578063ee3cad81146102b2578063eeac9431146102cf578063efd05417146102d7578063f2fde38b146102f457610100565b8063beabacc8146101f6578063c66ac07e1461022c578063ca6594ff1461026a578063cc48b947146102aa57610100565b806353239660116100d3578063532396601461019c578063715018a6146101c0578063834abb61146101c85780638da5cb5b146101ee57610100565b80630f56810b14610105578063230da4f214610124578063302bfa871461014a5780633d71678d14610176575b600080fd5b6101226004803603602081101561011b57600080fd5b503561031a565b005b6101226004803603602081101561013a57600080fd5b50356001600160a01b03166103d6565b6101226004803603604081101561016057600080fd5b506001600160a01b038135169060200135610450565b6101226004803603602081101561018c57600080fd5b50356001600160a01b0316610579565b6101a46105f3565b604080516001600160a01b039092168252519081900360200190f35b610122610602565b610122600480360360208110156101de57600080fd5b50356001600160a01b03166106a4565b6101a461071e565b6101226004803603606081101561020c57600080fd5b506001600160a01b0381358116916020810135909116906040013561072d565b6102586004803603604081101561024257600080fd5b506001600160a01b038135169060200135610911565b60408051918252519081900360200190f35b6102966004803603604081101561028057600080fd5b506001600160a01b038135169060200135610b72565b604080519115158252519081900360200190f35b6101a4610d7b565b610122600480360360208110156102c857600080fd5b5035610d8a565b6101a4610e59565b610122600480360360208110156102ed57600080fd5b5035610e68565b6101226004803603602081101561030a57600080fd5b50356001600160a01b0316610f0b565b610322611003565b6000546001600160a01b03908116911614610372576040805162461bcd60e51b8152602060048201819052602482015260008051602061102e833981519152604482015290519081900360640190fd5b6001546001600160a01b03166103bd576040805162461bcd60e51b815260206004820152601e602482015260008051602061104e833981519152604482015290519081900360640190fd5b6002546103d3906001600160a01b031682610450565b50565b6103de611003565b6000546001600160a01b0390811691161461042e576040805162461bcd60e51b8152602060048201819052602482015260008051602061102e833981519152604482015290519081900360640190fd5b600180546001600160a01b0319166001600160a01b0392909216919091179055565b610458611003565b6000546001600160a01b039081169116146104a8576040805162461bcd60e51b8152602060048201819052602482015260008051602061102e833981519152604482015290519081900360640190fd5b6001546001600160a01b03166104f3576040805162461bcd60e51b815260206004820152601e602482015260008051602061104e833981519152604482015290519081900360640190fd5b6001546040805163095ea7b360e01b81526001600160a01b038581166004830152602482018590529151919092169163095ea7b39160448083019260209291908290030181600087803b15801561054957600080fd5b505af115801561055d573d6000803e3d6000fd5b505050506040513d602081101561057357600080fd5b50505050565b610581611003565b6000546001600160a01b039081169116146105d1576040805162461bcd60e51b8152602060048201819052602482015260008051602061102e833981519152604482015290519081900360640190fd5b600280546001600160a01b0319166001600160a01b0392909216919091179055565b6003546001600160a01b031681565b61060a611003565b6000546001600160a01b0390811691161461065a576040805162461bcd60e51b8152602060048201819052602482015260008051602061102e833981519152604482015290519081900360640190fd5b600080546040516001600160a01b03909116907f8be0079c531659141344cd1fd0a4f28419497f9722a3daafe3b4186f6b6457e0908390a3600080546001600160a01b0319169055565b6106ac611003565b6000546001600160a01b039081169116146106fc576040805162461bcd60e51b8152602060048201819052602482015260008051602061102e833981519152604482015290519081900360640190fd5b600380546001600160a01b0319166001600160a01b0392909216919091179055565b6000546001600160a01b031690565b610735611003565b6000546001600160a01b03908116911614610785576040805162461bcd60e51b8152602060048201819052602482015260008051602061102e833981519152604482015290519081900360640190fd5b6001600160a01b0383161580159061079d5750600081115b6107ee576040805162461bcd60e51b815260206004820152601c60248201527f44414f5661756c74323a20696e76616c696420706172616d6574657200000000604482015290519081900360640190fd5b826001600160a01b031663a9059cbb83836040518363ffffffff1660e01b815260040180836001600160a01b0316815260200182815260200192505050602060405180830381600087803b15801561084557600080fd5b505af1158015610859573d6000803e3d6000fd5b505050506040513d602081101561086f57600080fd5b50516108c2576040805162461bcd60e51b815260206004820152601d60248201527f44414f5661756c74323a206661696c656420746f207472616e73666572000000604482015290519081900360640190fd5b604080516001600160a01b0380861682528416602082015280820183905290517f885659fe89289ab9fe52ee4e1395c6853ca1eb6746529e4a00f980f1eec07bd99181900360600190a1505050565b6002546000906001600160a01b03161580159061093857506002546001600160a01b031633145b610989576040805162461bcd60e51b815260206004820152601b60248201527f44414f5661756c74323a206e6f742064616f436f6d6d69747465650000000000604482015290519081900360640190fd5b600154604080516370a0823160e01b8152306004820152905184926001600160a01b0316916370a08231916024808301926020929190829003018186803b1580156109d357600080fd5b505afa1580156109e7573d6000803e3d6000fd5b505050506040513d60208110156109fd57600080fd5b50511015610a52576040805162461bcd60e51b815260206004820152601d60248201527f44414f5661756c74323a206e6f7420656e6f7567682062616c616e6365000000604482015290519081900360640190fd5b6001546040805163a9059cbb60e01b81526001600160a01b038681166004830152602482018690529151919092169163a9059cbb9160448083019260209291908290030181600087803b158015610aa857600080fd5b505af1158015610abc573d6000803e3d6000fd5b505050506040513d6020811015610ad257600080fd5b5051610b25576040805162461bcd60e51b815260206004820152601d60248201527f44414f5661756c74323a206661696c656420746f207472616e73666572000000604482015290519081900360640190fd5b604080516001600160a01b03851681526020810184905281517fd589dbe7f38312ab18d5605a2757796a92ef0e0f82ea955f158cb4464fdd760a929181900390910190a150805b92915050565b6003546000906001600160a01b031615801590610b9957506003546001600160a01b031633145b610bd45760405162461bcd60e51b815260040180806020018281038252602781526020018061106e6027913960400191505060405180910390fd5b600154604080516370a0823160e01b8152306004820152905184926001600160a01b0316916370a08231916024808301926020929190829003018186803b158015610c1e57600080fd5b505afa158015610c32573d6000803e3d6000fd5b505050506040513d6020811015610c4857600080fd5b50511115610d2a576001546040805163a9059cbb60e01b81526001600160a01b038681166004830152602482018690529151600093929092169163a9059cbb9160448082019260209290919082900301818787803b158015610ca957600080fd5b505af1158015610cbd573d6000803e3d6000fd5b505050506040513d6020811015610cd357600080fd5b5051604080516001600160a01b0387168152602081018690528215158183015290519192507f54e08871fd6291b3325c6d12f7a90666d58cac16035caf6969e6c57b14b5844c919081900360600190a19050610b6c565b604080516001600160a01b03851681526020810184905260008183015290517f54e08871fd6291b3325c6d12f7a90666d58cac16035caf6969e6c57b14b5844c9181900360600190a1506000610b6c565b6001546001600160a01b031681565b610d92611003565b6000546001600160a01b03908116911614610de2576040805162461bcd60e51b8152602060048201819052602482015260008051602061102e833981519152604482015290519081900360640190fd5b6001546001600160a01b0316610e2d576040805162461bcd60e51b815260206004820152601e602482015260008051602061104e833981519152604482015290519081900360640190fd5b600254610e43906001600160a01b031682610450565b6003546103d3906001600160a01b031682610450565b6002546001600160a01b031681565b610e70611003565b6000546001600160a01b03908116911614610ec0576040805162461bcd60e51b8152602060048201819052602482015260008051602061102e833981519152604482015290519081900360640190fd5b6001546001600160a01b0316610e43576040805162461bcd60e51b815260206004820152601e602482015260008051602061104e833981519152604482015290519081900360640190fd5b610f13611003565b6000546001600160a01b03908116911614610f63576040805162461bcd60e51b8152602060048201819052602482015260008051602061102e833981519152604482015290519081900360640190fd5b6001600160a01b038116610fa85760405162461bcd60e51b81526004018080602001828103825260268152602001806110086026913960400191505060405180910390fd5b600080546040516001600160a01b03808516939216917f8be0079c531659141344cd1fd0a4f28419497f9722a3daafe3b4186f6b6457e091a3600080546001600160a01b0319166001600160a01b0392909216919091179055565b339056fe4f776e61626c653a206e6577206f776e657220697320746865207a65726f20616464726573734f776e61626c653a2063616c6c6572206973206e6f7420746865206f776e657244414f5661756c74323a20746f6e2061646472657373206973207a65726f000044414f5661756c74323a206e6f742064616f41637469766974795265776172644d616e61676572a2646970667358221220f915d988f2aaa127434bc3f296ebfcbaae01c7b360018dde2c038f719e304af164736f6c63430007060033",
  "immutableReferences": {},
  "source": "// SPDX-License-Identifier: MIT\npragma solidity ^0.7.6;\n\nimport \"../../node_modules/@openzeppelin/contracts/access/Ownable.sol\";\nimport { IERC20 } from  \"../../node_modules/@openzeppelin/contracts/token/ERC20/IERC20.sol\";\nimport { SafeMath } from \"../../node_modules/@openzeppelin/contracts/math/SafeMath.sol\";\n\ncontract DAOVault2 is Ownable {\n    using SafeMath for uint256;\n    \n    address public ton;\n    address public daoCommittee;\n    address public daoActivityRewardManager;\n    \n    //////////////////////////////\n    // Modifiers\n    //////////////////////////////\n    \n    modifier onlyDAOCommittee() {\n        require(\n            daoCommittee != address(0) &&\n            msg.sender == daoCommittee,\n            \"DAOVault2: not daoCommittee\"\n        );\n        _;\n    }\n    \n    modifier onlyDAOActivityRewardManager() {\n        require(\n            daoActivityRewardManager != address(0) &&\n            msg.sender == daoActivityRewardManager,\n            \"DAOVault2: not daoActivityRewardManager\"\n        );\n        _;\n    }\n    \n    //////////////////////////////\n    // Events\n    //////////////////////////////\n    \n    event TransferCommittee(address from, uint256 amount);\n    event TransferActivityFeeManager(address from, uint256 amount, bool result);\n    event TransferErc20(address token, address from, uint256 amount);\n\n    constructor(address _ton) public {\n        ton = _ton;\n    }\n\n    function setTON(address _ton) external onlyOwner {\n        ton = _ton;\n    }\n\n    function setDaoCommittee(address _addr) public onlyOwner {\n        daoCommittee = _addr;\n    }\n     \n    function setDAOActivityFeeManager(address _addr) public onlyOwner {\n        daoActivityRewardManager = _addr;\n    }\n\n    function approveTonDao(uint256 amount) public onlyOwner {\n        require(ton != address(0), \"DAOVault2: ton address is zero\");\n        approveTon(daoCommittee, amount);\n        approveTon(daoActivityRewardManager, amount);\n    }\n    \n    function approveTonDaoCommittee(uint256 amount) public onlyOwner {\n        require(ton != address(0), \"DAOVault2: ton address is zero\");\n        approveTon(daoCommittee, amount);\n    }\n    \n    function approveTonDAOActivityFeeManager(uint256 amount) public onlyOwner {\n        require(ton != address(0), \"DAOVault2: ton address is zero\");\n        approveTon(daoActivityRewardManager, amount);\n    }\n    \n    function approveTon(address to, uint256 amount) public onlyOwner {\n        require(ton != address(0), \"DAOVault2: ton address is zero\");\n        IERC20(ton).approve(to , amount);\n    }\n    \n    function claimCommittee(address committee, uint256 amount) external onlyDAOCommittee returns (uint256) {\n        require(IERC20(ton).balanceOf(address(this)) >= amount, \"DAOVault2: not enough balance\");\n        require(IERC20(ton).transfer(committee,amount), \"DAOVault2: failed to transfer\");\n        emit TransferCommittee(committee, amount);\n        return amount;\n    }\n    \n    function claimActivityFeeManager(address user, uint256 amount) external onlyDAOActivityRewardManager returns (bool) {\n        if (IERC20(ton).balanceOf(address(this)) > amount) {\n            bool res = IERC20(ton).transfer(user,amount);\n            emit TransferActivityFeeManager(user, amount, res);\n            return res;\n        } else {\n            emit TransferActivityFeeManager(user, amount, false);\n            return false;\n        }\n    }\n    \n    function transfer(address erc20token, address to, uint256 amount) external onlyOwner {\n        require(erc20token != address(0) && amount > 0, \"DAOVault2: invalid parameter\");\n        require(IERC20(erc20token).transfer(to,amount), \"DAOVault2: failed to transfer\");\n        emit TransferErc20(erc20token, to, amount);\n    }\n}\n",
  "sourcePath": "/Users/sgnoo/Workspace/tokamak-dao-contracts/contracts/dao/DAOVault2.sol",
  "compiler": {
    "name": "solc",
    "version": "0.7.6+commit.7338295f.Emscripten.clang"
  },
  "schemaVersion": "3.3.1",
  "updatedAt": "2021-01-06T08:41:25.532Z",
  "devdoc": {
    "kind": "dev",
    "methods": {
      "owner()": {
        "details": "Returns the address of the current owner."
      },
      "renounceOwnership()": {
        "details": "Leaves the contract without owner. It will not be possible to call `onlyOwner` functions anymore. Can only be called by the current owner. NOTE: Renouncing ownership will leave the contract without an owner, thereby removing any functionality that is only available to the owner."
      },
      "transferOwnership(address)": {
        "details": "Transfers ownership of the contract to a new account (`newOwner`). Can only be called by the current owner."
      }
    },
    "version": 1
  },
  "userdoc": {
    "kind": "user",
    "methods": {},
    "version": 1
  }
}