{
  "contractName": "Ownabled",
  "abi": [
    {
      "inputs": [],
      "stateMutability": "nonpayable",
      "type": "constructor"
    },
    {
      "inputs": [],
      "name": "owner",
      "outputs": [
        {
          "internalType": "address",
          "name": "",
          "type": "address"
        }
      ],
      "stateMutability": "view",
      "type": "function"
    },
    {
      "inputs": [
        {
          "internalType": "address",
          "name": "newOwner",
          "type": "address"
        }
      ],
      "name": "transferOwnership",
      "outputs": [],
      "stateMutability": "nonpayable",
      "type": "function"
    }
  ],
  "bytecode": "0x608060405234801561001057600080fd5b50600080546001600160a01b03191633179055610106806100326000396000f3fe6080604052348015600f57600080fd5b506004361060325760003560e01c80638da5cb5b146037578063f2fde38b146059575b600080fd5b603d607e565b604080516001600160a01b039092168252519081900360200190f35b607c60048036036020811015606d57600080fd5b50356001600160a01b0316608d565b005b6000546001600160a01b031681565b6000546001600160a01b0316331460a357600080fd5b6001600160a01b0381161560cd57600080546001600160a01b0319166001600160a01b0383161790555b5056fea264697066735822122082b1bf184d751d544ed65e2789bb1ef93d284f2bb3cf30d5fcd98b0256e9b06164736f6c63430007060033",
  "immutableReferences": {},
  "source": "// SPDX-License-Identifier: MIT\npragma solidity ^0.7.6;\n\n/*\n * Ownable\n *\n * Base contract with an owner.\n * Provides onlyOwner modifier, which prevents function from running if it is called by anyone other than the owner.\n */\n \n\ncontract Ownabled {\n    address public owner;\n\n    constructor() {\n        owner = msg.sender;\n    }\n\n    modifier onlyOwner() {\n        require(msg.sender == owner);\n        _;\n    }\n\n    function transferOwnership(address newOwner) public onlyOwner {\n        if (newOwner != address(0)) {\n            owner = newOwner;\n        }\n    }\n    \n}\n",
  "sourcePath": "/Users/sgnoo/Workspace/tokamak-dao-contracts/contracts/shared/Ownabled.sol",
  "compiler": {
    "name": "solc",
    "version": "0.7.6+commit.7338295f.Emscripten.clang"
  },
  "schemaVersion": "3.3.1",
  "updatedAt": "2021-01-14T00:27:18.466Z",
  "devdoc": {
    "kind": "dev",
    "methods": {},
    "version": 1
  },
  "userdoc": {
    "kind": "user",
    "methods": {},
    "version": 1
  }
}