{
  "contractName": "StorageStateCommittee",
  "abi": [
    {
      "anonymous": false,
      "inputs": [
        {
          "indexed": true,
          "internalType": "address",
          "name": "from",
          "type": "address"
        },
        {
          "indexed": false,
          "internalType": "address",
          "name": "member",
          "type": "address"
        },
        {
          "indexed": false,
          "internalType": "uint256",
          "name": "totalbalance",
          "type": "uint256"
        },
        {
          "indexed": false,
          "internalType": "uint256",
          "name": "memberIndex",
          "type": "uint256"
        }
      ],
      "name": "ApplyMemberSuccess",
      "type": "event"
    },
    {
      "inputs": [],
      "name": "agendaManager",
      "outputs": [
        {
          "internalType": "contract IDAOAgendaManager",
          "name": "",
          "type": "address"
        }
      ],
      "stateMutability": "view",
      "type": "function"
    },
    {
      "inputs": [],
      "name": "candidateFactory",
      "outputs": [
        {
          "internalType": "contract ICandidateFactory",
          "name": "",
          "type": "address"
        }
      ],
      "stateMutability": "view",
      "type": "function"
    },
    {
      "inputs": [
        {
          "internalType": "address",
          "name": "",
          "type": "address"
        }
      ],
      "name": "candidateInfos",
      "outputs": [
        {
          "internalType": "address",
          "name": "candidateContract",
          "type": "address"
        },
        {
          "internalType": "uint256",
          "name": "memberJoinedTime",
          "type": "uint256"
        },
        {
          "internalType": "uint256",
          "name": "indexMembers",
          "type": "uint256"
        }
      ],
      "stateMutability": "view",
      "type": "function"
    },
    {
      "inputs": [
        {
          "internalType": "uint256",
          "name": "",
          "type": "uint256"
        }
      ],
      "name": "candidates",
      "outputs": [
        {
          "internalType": "address",
          "name": "",
          "type": "address"
        }
      ],
      "stateMutability": "view",
      "type": "function"
    },
    {
      "inputs": [],
      "name": "daoVault",
      "outputs": [
        {
          "internalType": "address",
          "name": "",
          "type": "address"
        }
      ],
      "stateMutability": "view",
      "type": "function"
    },
    {
      "inputs": [],
      "name": "layer2Registry",
      "outputs": [
        {
          "internalType": "contract ILayer2Registry",
          "name": "",
          "type": "address"
        }
      ],
      "stateMutability": "view",
      "type": "function"
    },
    {
      "inputs": [],
      "name": "maxMember",
      "outputs": [
        {
          "internalType": "uint256",
          "name": "",
          "type": "uint256"
        }
      ],
      "stateMutability": "view",
      "type": "function"
    },
    {
      "inputs": [
        {
          "internalType": "uint256",
          "name": "",
          "type": "uint256"
        }
      ],
      "name": "members",
      "outputs": [
        {
          "internalType": "address",
          "name": "",
          "type": "address"
        }
      ],
      "stateMutability": "view",
      "type": "function"
    },
    {
      "inputs": [],
      "name": "seigManager",
      "outputs": [
        {
          "internalType": "contract ISeigManager",
          "name": "",
          "type": "address"
        }
      ],
      "stateMutability": "view",
      "type": "function"
    },
    {
      "inputs": [],
      "name": "ton",
      "outputs": [
        {
          "internalType": "address",
          "name": "",
          "type": "address"
        }
      ],
      "stateMutability": "view",
      "type": "function"
    },
    {
      "inputs": [
        {
          "internalType": "address",
          "name": "_candidate",
          "type": "address"
        }
      ],
      "name": "isMember",
      "outputs": [
        {
          "internalType": "bool",
          "name": "",
          "type": "bool"
        }
      ],
      "stateMutability": "view",
      "type": "function"
    },
    {
      "inputs": [
        {
          "internalType": "address",
          "name": "_candidate",
          "type": "address"
        }
      ],
      "name": "candidateContract",
      "outputs": [
        {
          "internalType": "address",
          "name": "",
          "type": "address"
        }
      ],
      "stateMutability": "view",
      "type": "function"
    }
  ],
  "bytecode": "0x608060405234801561001057600080fd5b50610340806100206000396000f3fe608060405234801561001057600080fd5b50600436106100b45760003560e01c8063651d08cd11610071578063651d08cd146101875780636fb7f558146101ad578063a230c524146101b5578063b5dd1158146101ef578063cc48b947146101f7578063cf2a239c146101ff576100b4565b806303e3c9ac146100b957806327fd92fd146100d35780632e011c1e146100f75780633477ee2e146101455780635903bd6c146101625780635daf08ca1461016a575b600080fd5b6100c1610207565b60408051918252519081900360200190f35b6100db61020d565b604080516001600160a01b039092168252519081900360200190f35b61011d6004803603602081101561010d57600080fd5b50356001600160a01b031661021c565b604080516001600160a01b039094168452602084019290925282820152519081900360600190f35b6100db6004803603602081101561015b57600080fd5b5035610247565b6100db610271565b6100db6004803603602081101561018057600080fd5b5035610280565b6100db6004803603602081101561019d57600080fd5b50356001600160a01b0316610290565b6100db6102ae565b6101db600480360360208110156101cb57600080fd5b50356001600160a01b03166102bd565b604080519115158252519081900360200190f35b6100db6102dd565b6100db6102ec565b6100db6102fb565b60085481565b6002546001600160a01b031681565b6009602052600090815260409020805460018201546002909201546001600160a01b03909116919083565b6006818154811061025757600080fd5b6000918252602090912001546001600160a01b0316905081565b6001546001600160a01b031681565b6007818154811061025757600080fd5b6001600160a01b039081166000908152600960205260409020541690565b6005546001600160a01b031681565b6001600160a01b0316600090815260096020526040902060010154151590565b6003546001600160a01b031681565b6000546001600160a01b031681565b6004546001600160a01b03168156fea2646970667358221220819082f3a35186e2c4de20cf0b0c379fb9d9008ad90d76da7bbdc3d854bbf6d564736f6c63430007060033",
  "immutableReferences": {},
  "source": "// SPDX-License-Identifier: MIT\npragma solidity ^0.7.6;\n\nimport \"./DAOAgendaManager.sol\";\n//import \"./DAOActivityRewardManager.sol\";\n\nimport { ICandidateFactory } from \"../interfaces/ICandidateFactory.sol\";\nimport { ILayer2Registry } from \"../interfaces/ILayer2Registry.sol\";\nimport { ISeigManager } from \"../interfaces/ISeigManager.sol\";\n//import { IDAOActivityRewardManager } from \"../interfaces/IDAOActivityRewardManager.sol\";\nimport { IDAOAgendaManager } from \"../interfaces/IDAOAgendaManager.sol\";\n\ncontract StorageStateCommittee {\n    enum AgendaStatus { NONE, NOTICE, VOTING, EXEC, ENDED, PENDING, RISK }\n    enum AgendaResult { UNDEFINED, ACCEPT, REJECT, DISMISS }\n\n    struct CandidateInfo {\n        address candidateContract;\n        uint memberJoinedTime;\n        uint indexMembers;\n    }\n    \n    address public ton;\n    address public daoVault;\n    IDAOAgendaManager public agendaManager;\n    //IDAOActivityRewardManager public activityRewardManager;\n    ICandidateFactory public candidateFactory;\n    ILayer2Registry public layer2Registry;\n    ISeigManager public seigManager;\n\n    address[] public candidates;\n    address[] public members;\n    uint256 public maxMember;\n\n    // candidate EOA => candidate information\n    mapping(address => CandidateInfo) public candidateInfos;\n\n    event ApplyMemberSuccess(\n        address indexed from,\n        address member,\n        uint256 totalbalance,\n        uint256 memberIndex\n    );\n\n    modifier validAgendaManager() {\n        require(address(agendaManager) != address(0), \"StorageStateCommittee: AgendaManager is zero\");\n        _;\n    }\n    \n    /*modifier validActivityRewardManager() {\n        require(address(activityRewardManager) != address(0), \"StorageStateCommittee: ActivityRewardManager is zero\");\n        _;\n    }*/\n\n    modifier validCommitteeL2Factory() {\n        require(address(candidateFactory) != address(0), \"StorageStateCommittee: unvalid CommitteeL2Factory\");\n        _;\n    }\n\n    modifier validLayer2Registry() {\n        require(address(layer2Registry) != address(0), \"StorageStateCommittee: unvalid Layer2Registry\");\n        _;\n    }\n\n    modifier validSeigManager() {\n        require(address(seigManager) != address(0), \"StorageStateCommittee: unvalid SeigManagere\");\n        _;\n    }\n\n    modifier onlyMember(address _candidate) {\n        require(isMember(_candidate), \"StorageStateCommittee: not a member\");\n        _;\n    }\n    \n    function isMember(address _candidate) public view returns (bool) {\n        return candidateInfos[_candidate].memberJoinedTime > 0;\n    }\n\n    function candidateContract(address _candidate) public view returns (address) {\n        return candidateInfos[_candidate].candidateContract;\n    }\n}\n",
  "sourcePath": "/Users/sgnoo/Workspace/tokamak-dao-contracts/contracts/dao/StorageStateCommittee.sol",
  "compiler": {
    "name": "solc",
    "version": "0.7.6+commit.7338295f.Emscripten.clang"
  },
  "schemaVersion": "3.3.1",
  "updatedAt": "2021-01-06T08:41:25.536Z",
  "devdoc": {
    "kind": "dev",
    "methods": {},
    "version": 1
  },
  "userdoc": {
    "kind": "user",
    "methods": {},
    "version": 1
  }
}