{
  "contractName": "StorageStateCommittee",
  "abi": [
    {
      "anonymous": false,
      "inputs": [
        {
          "indexed": true,
          "internalType": "address",
          "name": "from",
          "type": "address"
        },
        {
          "indexed": false,
          "internalType": "address",
          "name": "member",
          "type": "address"
        },
        {
          "indexed": false,
          "internalType": "uint256",
          "name": "totalbalance",
          "type": "uint256"
        },
        {
          "indexed": false,
          "internalType": "uint256",
          "name": "memberIndex",
          "type": "uint256"
        }
      ],
      "name": "ApplyMemberSuccess",
      "type": "event"
    },
    {
      "inputs": [],
      "name": "activityRewardPerSecond",
      "outputs": [
        {
          "internalType": "uint256",
          "name": "",
          "type": "uint256"
        }
      ],
      "stateMutability": "view",
      "type": "function"
    },
    {
      "inputs": [],
      "name": "agendaManager",
      "outputs": [
        {
          "internalType": "contract IDAOAgendaManager",
          "name": "",
          "type": "address"
        }
      ],
      "stateMutability": "view",
      "type": "function"
    },
    {
      "inputs": [],
      "name": "candidateFactory",
      "outputs": [
        {
          "internalType": "contract ICandidateFactory",
          "name": "",
          "type": "address"
        }
      ],
      "stateMutability": "view",
      "type": "function"
    },
    {
      "inputs": [
        {
          "internalType": "address",
          "name": "",
          "type": "address"
        }
      ],
      "name": "candidateInfos",
      "outputs": [
        {
          "internalType": "address",
          "name": "candidateContract",
          "type": "address"
        },
        {
          "internalType": "uint256",
          "name": "memberJoinedTime",
          "type": "uint256"
        },
        {
          "internalType": "uint256",
          "name": "indexMembers",
          "type": "uint256"
        },
        {
          "internalType": "uint256",
          "name": "rewardPeriod",
          "type": "uint256"
        },
        {
          "internalType": "uint256",
          "name": "claimedTimestamp",
          "type": "uint256"
        }
      ],
      "stateMutability": "view",
      "type": "function"
    },
    {
      "inputs": [
        {
          "internalType": "uint256",
          "name": "",
          "type": "uint256"
        }
      ],
      "name": "candidates",
      "outputs": [
        {
          "internalType": "address",
          "name": "",
          "type": "address"
        }
      ],
      "stateMutability": "view",
      "type": "function"
    },
    {
      "inputs": [],
      "name": "daoVault",
      "outputs": [
        {
          "internalType": "contract IDAOVault2",
          "name": "",
          "type": "address"
        }
      ],
      "stateMutability": "view",
      "type": "function"
    },
    {
      "inputs": [],
      "name": "layer2Registry",
      "outputs": [
        {
          "internalType": "contract ILayer2Registry",
          "name": "",
          "type": "address"
        }
      ],
      "stateMutability": "view",
      "type": "function"
    },
    {
      "inputs": [],
      "name": "maxMember",
      "outputs": [
        {
          "internalType": "uint256",
          "name": "",
          "type": "uint256"
        }
      ],
      "stateMutability": "view",
      "type": "function"
    },
    {
      "inputs": [
        {
          "internalType": "uint256",
          "name": "",
          "type": "uint256"
        }
      ],
      "name": "members",
      "outputs": [
        {
          "internalType": "address",
          "name": "",
          "type": "address"
        }
      ],
      "stateMutability": "view",
      "type": "function"
    },
    {
      "inputs": [],
      "name": "seigManager",
      "outputs": [
        {
          "internalType": "contract ISeigManager",
          "name": "",
          "type": "address"
        }
      ],
      "stateMutability": "view",
      "type": "function"
    },
    {
      "inputs": [],
      "name": "ton",
      "outputs": [
        {
          "internalType": "address",
          "name": "",
          "type": "address"
        }
      ],
      "stateMutability": "view",
      "type": "function"
    },
    {
      "inputs": [
        {
          "internalType": "address",
          "name": "_candidate",
          "type": "address"
        }
      ],
      "name": "isMember",
      "outputs": [
        {
          "internalType": "bool",
          "name": "",
          "type": "bool"
        }
      ],
      "stateMutability": "view",
      "type": "function"
    },
    {
      "inputs": [
        {
          "internalType": "address",
          "name": "_candidate",
          "type": "address"
        }
      ],
      "name": "candidateContract",
      "outputs": [
        {
          "internalType": "address",
          "name": "",
          "type": "address"
        }
      ],
      "stateMutability": "view",
      "type": "function"
    }
  ],
  "bytecode": "0x608060405234801561001057600080fd5b50610384806100206000396000f3fe608060405234801561001057600080fd5b50600436106100cf5760003560e01c8063651d08cd1161008c578063a230c52411610066578063a230c524146101e5578063b5dd11581461021f578063cc48b94714610227578063cf2a239c1461022f576100cf565b8063651d08cd146101af5780636fb7f558146101d55780637f331636146101dd576100cf565b806303e3c9ac146100d457806327fd92fd146100ee5780632e011c1e146101125780633477ee2e1461016d5780635903bd6c1461018a5780635daf08ca14610192575b600080fd5b6100dc610237565b60408051918252519081900360200190f35b6100f661023d565b604080516001600160a01b039092168252519081900360200190f35b6101386004803603602081101561012857600080fd5b50356001600160a01b031661024c565b604080516001600160a01b03909616865260208601949094528484019290925260608401526080830152519081900360a00190f35b6100f66004803603602081101561018357600080fd5b5035610285565b6100f66102af565b6100f6600480360360208110156101a857600080fd5b50356102be565b6100f6600480360360208110156101c557600080fd5b50356001600160a01b03166102ce565b6100f66102ec565b6100dc6102fb565b61020b600480360360208110156101fb57600080fd5b50356001600160a01b0316610301565b604080519115158252519081900360200190f35b6100f6610321565b6100f6610330565b6100f661033f565b60085481565b6002546001600160a01b031681565b600960205260009081526040902080546001820154600283015460038401546004909401546001600160a01b0390931693919290919085565b6006818154811061029557600080fd5b6000918252602090912001546001600160a01b0316905081565b6001546001600160a01b031681565b6007818154811061029557600080fd5b6001600160a01b039081166000908152600960205260409020541690565b6005546001600160a01b031681565b600a5481565b6001600160a01b0316600090815260096020526040902060010154151590565b6003546001600160a01b031681565b6000546001600160a01b031681565b6004546001600160a01b03168156fea264697066735822122014060e935405c6fe3a9ec22e0f6e10911a000426e325a0a5e83311d6a6c6d60864736f6c63430007060033",
  "immutableReferences": {},
  "source": "// SPDX-License-Identifier: MIT\npragma solidity ^0.7.6;\n\nimport \"./DAOAgendaManager.sol\";\n//import \"./DAOActivityRewardManager.sol\";\n\nimport { ICandidateFactory } from \"../interfaces/ICandidateFactory.sol\";\nimport { ILayer2Registry } from \"../interfaces/ILayer2Registry.sol\";\nimport { ISeigManager } from \"../interfaces/ISeigManager.sol\";\n//import { IDAOActivityRewardManager } from \"../interfaces/IDAOActivityRewardManager.sol\";\nimport { IDAOAgendaManager } from \"../interfaces/IDAOAgendaManager.sol\";\nimport { IDAOVault2 } from \"../interfaces/IDAOVault2.sol\";\n\ncontract StorageStateCommittee {\n    enum AgendaStatus { NONE, NOTICE, VOTING, EXEC, ENDED, PENDING, RISK }\n    enum AgendaResult { UNDEFINED, ACCEPT, REJECT, DISMISS }\n\n    struct CandidateInfo {\n        address candidateContract;\n        uint memberJoinedTime;\n        uint indexMembers;\n        uint256 rewardPeriod;\n        uint256 claimedTimestamp;\n    }\n    \n    address public ton;\n    IDAOVault2 public daoVault;\n    IDAOAgendaManager public agendaManager;\n    //IDAOActivityRewardManager public activityRewardManager;\n    ICandidateFactory public candidateFactory;\n    ILayer2Registry public layer2Registry;\n    ISeigManager public seigManager;\n\n    address[] public candidates;\n    address[] public members;\n    uint256 public maxMember;\n\n    // candidate EOA => candidate information\n    mapping(address => CandidateInfo) public candidateInfos;\n\n    uint256 public activityRewardPerSecond;\n\n    event ApplyMemberSuccess(\n        address indexed from,\n        address member,\n        uint256 totalbalance,\n        uint256 memberIndex\n    );\n\n    modifier validAgendaManager() {\n        require(address(agendaManager) != address(0), \"StorageStateCommittee: AgendaManager is zero\");\n        _;\n    }\n    \n    /*modifier validActivityRewardManager() {\n        require(address(activityRewardManager) != address(0), \"StorageStateCommittee: ActivityRewardManager is zero\");\n        _;\n    }*/\n\n    modifier validCommitteeL2Factory() {\n        require(address(candidateFactory) != address(0), \"StorageStateCommittee: unvalid CommitteeL2Factory\");\n        _;\n    }\n\n    modifier validLayer2Registry() {\n        require(address(layer2Registry) != address(0), \"StorageStateCommittee: unvalid Layer2Registry\");\n        _;\n    }\n\n    modifier validSeigManager() {\n        require(address(seigManager) != address(0), \"StorageStateCommittee: unvalid SeigManagere\");\n        _;\n    }\n\n    modifier onlyMember(address _candidate) {\n        require(isMember(_candidate), \"StorageStateCommittee: not a member\");\n        _;\n    }\n    \n    function isMember(address _candidate) public view returns (bool) {\n        return candidateInfos[_candidate].memberJoinedTime > 0;\n    }\n\n    function candidateContract(address _candidate) public view returns (address) {\n        return candidateInfos[_candidate].candidateContract;\n    }\n}\n",
  "sourcePath": "/Users/sgnoo/Workspace/tokamak-dao-contracts/contracts/dao/StorageStateCommittee.sol",
  "compiler": {
    "name": "solc",
    "version": "0.7.6+commit.7338295f.Emscripten.clang"
  },
  "schemaVersion": "3.3.1",
  "updatedAt": "2021-01-14T00:27:18.450Z",
  "devdoc": {
    "kind": "dev",
    "methods": {},
    "version": 1
  },
  "userdoc": {
    "kind": "user",
    "methods": {},
    "version": 1
  }
}