{
  "contractName": "StorageStateCommittee",
  "abi": [
    {
      "anonymous": false,
      "inputs": [
        {
          "indexed": true,
          "internalType": "address",
          "name": "from",
          "type": "address"
        },
        {
          "indexed": false,
          "internalType": "address",
          "name": "member",
          "type": "address"
        },
        {
          "indexed": false,
          "internalType": "uint256",
          "name": "totalbalance",
          "type": "uint256"
        },
        {
          "indexed": false,
          "internalType": "uint256",
          "name": "memberIndex",
          "type": "uint256"
        }
      ],
      "name": "ApplyMemberSuccess",
      "type": "event"
    },
    {
      "inputs": [],
      "name": "activityRewardPerSecond",
      "outputs": [
        {
          "internalType": "uint256",
          "name": "",
          "type": "uint256"
        }
      ],
      "stateMutability": "view",
      "type": "function"
    },
    {
      "inputs": [],
      "name": "agendaManager",
      "outputs": [
        {
          "internalType": "contract IDAOAgendaManager",
          "name": "",
          "type": "address"
        }
      ],
      "stateMutability": "view",
      "type": "function"
    },
    {
      "inputs": [],
      "name": "candidateFactory",
      "outputs": [
        {
          "internalType": "contract ICandidateFactory",
          "name": "",
          "type": "address"
        }
      ],
      "stateMutability": "view",
      "type": "function"
    },
    {
      "inputs": [
        {
          "internalType": "address",
          "name": "",
          "type": "address"
        }
      ],
      "name": "candidateInfos",
      "outputs": [
        {
          "internalType": "address",
          "name": "candidateContract",
          "type": "address"
        },
        {
          "internalType": "uint256",
          "name": "memberJoinedTime",
          "type": "uint256"
        },
        {
          "internalType": "uint256",
          "name": "indexMembers",
          "type": "uint256"
        },
        {
          "internalType": "uint256",
          "name": "rewardPeriod",
          "type": "uint256"
        },
        {
          "internalType": "uint256",
          "name": "claimedTimestamp",
          "type": "uint256"
        }
      ],
      "stateMutability": "view",
      "type": "function"
    },
    {
      "inputs": [
        {
          "internalType": "uint256",
          "name": "",
          "type": "uint256"
        }
      ],
      "name": "candidates",
      "outputs": [
        {
          "internalType": "address",
          "name": "",
          "type": "address"
        }
      ],
      "stateMutability": "view",
      "type": "function"
    },
    {
      "inputs": [],
      "name": "daoVault",
      "outputs": [
        {
          "internalType": "contract IDAOVault2",
          "name": "",
          "type": "address"
        }
      ],
      "stateMutability": "view",
      "type": "function"
    },
    {
      "inputs": [],
      "name": "layer2Registry",
      "outputs": [
        {
          "internalType": "contract ILayer2Registry",
          "name": "",
          "type": "address"
        }
      ],
      "stateMutability": "view",
      "type": "function"
    },
    {
      "inputs": [],
      "name": "maxMember",
      "outputs": [
        {
          "internalType": "uint256",
          "name": "",
          "type": "uint256"
        }
      ],
      "stateMutability": "view",
      "type": "function"
    },
    {
      "inputs": [
        {
          "internalType": "uint256",
          "name": "",
          "type": "uint256"
        }
      ],
      "name": "members",
      "outputs": [
        {
          "internalType": "address",
          "name": "",
          "type": "address"
        }
      ],
      "stateMutability": "view",
      "type": "function"
    },
    {
      "inputs": [],
      "name": "quorum",
      "outputs": [
        {
          "internalType": "uint256",
          "name": "",
          "type": "uint256"
        }
      ],
      "stateMutability": "view",
      "type": "function"
    },
    {
      "inputs": [],
      "name": "seigManager",
      "outputs": [
        {
          "internalType": "contract ISeigManager",
          "name": "",
          "type": "address"
        }
      ],
      "stateMutability": "view",
      "type": "function"
    },
    {
      "inputs": [],
      "name": "ton",
      "outputs": [
        {
          "internalType": "address",
          "name": "",
          "type": "address"
        }
      ],
      "stateMutability": "view",
      "type": "function"
    },
    {
      "inputs": [
        {
          "internalType": "address",
          "name": "_candidate",
          "type": "address"
        }
      ],
      "name": "isMember",
      "outputs": [
        {
          "internalType": "bool",
          "name": "",
          "type": "bool"
        }
      ],
      "stateMutability": "view",
      "type": "function"
    },
    {
      "inputs": [
        {
          "internalType": "address",
          "name": "_candidate",
          "type": "address"
        }
      ],
      "name": "candidateContract",
      "outputs": [
        {
          "internalType": "address",
          "name": "",
          "type": "address"
        }
      ],
      "stateMutability": "view",
      "type": "function"
    }
  ],
  "bytecode": "0x608060405234801561001057600080fd5b506103ad806100206000396000f3fe608060405234801561001057600080fd5b50600436106100ea5760003560e01c8063651d08cd1161008c578063a230c52411610066578063a230c52414610208578063b5dd115814610242578063cc48b9471461024a578063cf2a239c14610252576100ea565b8063651d08cd146101d25780636fb7f558146101f85780637f33163614610200576100ea565b80632e011c1e116100c85780632e011c1e146101355780633477ee2e146101905780635903bd6c146101ad5780635daf08ca146101b5576100ea565b806303e3c9ac146100ef5780631703a0181461010957806327fd92fd14610111575b600080fd5b6100f761025a565b60408051918252519081900360200190f35b6100f7610260565b610119610266565b604080516001600160a01b039092168252519081900360200190f35b61015b6004803603602081101561014b57600080fd5b50356001600160a01b0316610275565b604080516001600160a01b03909616865260208601949094528484019290925260608401526080830152519081900360a00190f35b610119600480360360208110156101a657600080fd5b50356102ae565b6101196102d8565b610119600480360360208110156101cb57600080fd5b50356102e7565b610119600480360360208110156101e857600080fd5b50356001600160a01b03166102f7565b610119610315565b6100f7610324565b61022e6004803603602081101561021e57600080fd5b50356001600160a01b031661032a565b604080519115158252519081900360200190f35b61011961034a565b610119610359565b610119610368565b60085481565b600a5481565b6002546001600160a01b031681565b600960205260009081526040902080546001820154600283015460038401546004909401546001600160a01b0390931693919290919085565b600681815481106102be57600080fd5b6000918252602090912001546001600160a01b0316905081565b6001546001600160a01b031681565b600781815481106102be57600080fd5b6001600160a01b039081166000908152600960205260409020541690565b6005546001600160a01b031681565b600b5481565b6001600160a01b0316600090815260096020526040902060010154151590565b6003546001600160a01b031681565b6000546001600160a01b031681565b6004546001600160a01b03168156fea26469706673582212208f40ae9f777ceed09e5a1c7b4de1da90052f022f5db771192f17dbc83546531d64736f6c63430007060033",
  "immutableReferences": {},
  "source": "// SPDX-License-Identifier: MIT\npragma solidity ^0.7.6;\n\nimport \"./DAOAgendaManager.sol\";\n//import \"./DAOActivityRewardManager.sol\";\n\nimport { ICandidateFactory } from \"../interfaces/ICandidateFactory.sol\";\nimport { ILayer2Registry } from \"../interfaces/ILayer2Registry.sol\";\nimport { ISeigManager } from \"../interfaces/ISeigManager.sol\";\n//import { IDAOActivityRewardManager } from \"../interfaces/IDAOActivityRewardManager.sol\";\nimport { IDAOAgendaManager } from \"../interfaces/IDAOAgendaManager.sol\";\nimport { IDAOVault2 } from \"../interfaces/IDAOVault2.sol\";\n\ncontract StorageStateCommittee {\n    enum AgendaStatus { NONE, NOTICE, VOTING, EXEC, ENDED, PENDING, RISK }\n    enum AgendaResult { UNDEFINED, ACCEPT, REJECT, DISMISS }\n\n    struct CandidateInfo {\n        address candidateContract;\n        uint memberJoinedTime;\n        uint indexMembers;\n        uint256 rewardPeriod;\n        uint256 claimedTimestamp;\n    }\n    \n    address public ton;\n    IDAOVault2 public daoVault;\n    IDAOAgendaManager public agendaManager;\n    ICandidateFactory public candidateFactory;\n    ILayer2Registry public layer2Registry;\n    ISeigManager public seigManager;\n\n    address[] public candidates;\n    address[] public members;\n    uint256 public maxMember;\n\n    // candidate EOA => candidate information\n    mapping(address => CandidateInfo) public candidateInfos;\n    uint256 public quorum;\n\n    uint256 public activityRewardPerSecond;\n\n    event ApplyMemberSuccess(\n        address indexed from,\n        address member,\n        uint256 totalbalance,\n        uint256 memberIndex\n    );\n\n    modifier validAgendaManager() {\n        require(address(agendaManager) != address(0), \"StorageStateCommittee: AgendaManager is zero\");\n        _;\n    }\n    \n    /*modifier validActivityRewardManager() {\n        require(address(activityRewardManager) != address(0), \"StorageStateCommittee: ActivityRewardManager is zero\");\n        _;\n    }*/\n\n    modifier validCommitteeL2Factory() {\n        require(address(candidateFactory) != address(0), \"StorageStateCommittee: unvalid CommitteeL2Factory\");\n        _;\n    }\n\n    modifier validLayer2Registry() {\n        require(address(layer2Registry) != address(0), \"StorageStateCommittee: unvalid Layer2Registry\");\n        _;\n    }\n\n    modifier validSeigManager() {\n        require(address(seigManager) != address(0), \"StorageStateCommittee: unvalid SeigManagere\");\n        _;\n    }\n\n    modifier onlyMember(address _candidate) {\n        require(isMember(_candidate), \"StorageStateCommittee: not a member\");\n        _;\n    }\n    \n    function isMember(address _candidate) public view returns (bool) {\n        return candidateInfos[_candidate].memberJoinedTime > 0;\n    }\n\n    function candidateContract(address _candidate) public view returns (address) {\n        return candidateInfos[_candidate].candidateContract;\n    }\n}\n",
  "sourcePath": "/Users/sgnoo/Workspace/tokamak-dao-contracts/contracts/dao/StorageStateCommittee.sol",
  "compiler": {
    "name": "solc",
    "version": "0.7.6+commit.7338295f.Emscripten.clang"
  },
  "schemaVersion": "3.3.1",
  "updatedAt": "2021-01-20T01:55:31.118Z",
  "devdoc": {
    "kind": "dev",
    "methods": {},
    "version": 1
  },
  "userdoc": {
    "kind": "user",
    "methods": {},
    "version": 1
  }
}